{
	"grupal/test.sol": {
		"DecentralizedVoting": {
			"abi": [
				{
					"inputs": [
						{
							"internalType": "string",
							"name": "_topic",
							"type": "string"
						},
						{
							"internalType": "string[]",
							"name": "_candidates",
							"type": "string[]"
						},
						{
							"internalType": "uint256",
							"name": "_votingDuration",
							"type": "uint256"
						}
					],
					"stateMutability": "nonpayable",
					"type": "constructor"
				},
				{
					"anonymous": false,
					"inputs": [
						{
							"indexed": true,
							"internalType": "address",
							"name": "voter",
							"type": "address"
						},
						{
							"indexed": false,
							"internalType": "string",
							"name": "candidate",
							"type": "string"
						}
					],
					"name": "VoteCast",
					"type": "event"
				},
				{
					"anonymous": false,
					"inputs": [
						{
							"indexed": false,
							"internalType": "string",
							"name": "winner",
							"type": "string"
						}
					],
					"name": "VotingCompleted",
					"type": "event"
				},
				{
					"inputs": [
						{
							"internalType": "uint256",
							"name": "",
							"type": "uint256"
						}
					],
					"name": "candidates",
					"outputs": [
						{
							"internalType": "string",
							"name": "",
							"type": "string"
						}
					],
					"stateMutability": "view",
					"type": "function"
				},
				{
					"inputs": [],
					"name": "endVoting",
					"outputs": [],
					"stateMutability": "nonpayable",
					"type": "function"
				},
				{
					"inputs": [
						{
							"internalType": "address",
							"name": "",
							"type": "address"
						}
					],
					"name": "hasVoted",
					"outputs": [
						{
							"internalType": "bool",
							"name": "",
							"type": "bool"
						}
					],
					"stateMutability": "view",
					"type": "function"
				},
				{
					"inputs": [],
					"name": "owner",
					"outputs": [
						{
							"internalType": "address",
							"name": "",
							"type": "address"
						}
					],
					"stateMutability": "view",
					"type": "function"
				},
				{
					"inputs": [],
					"name": "topic",
					"outputs": [
						{
							"internalType": "string",
							"name": "",
							"type": "string"
						}
					],
					"stateMutability": "view",
					"type": "function"
				},
				{
					"inputs": [
						{
							"internalType": "string",
							"name": "candidate",
							"type": "string"
						}
					],
					"name": "vote",
					"outputs": [],
					"stateMutability": "nonpayable",
					"type": "function"
				},
				{
					"inputs": [
						{
							"internalType": "string",
							"name": "",
							"type": "string"
						}
					],
					"name": "votes",
					"outputs": [
						{
							"internalType": "uint256",
							"name": "",
							"type": "uint256"
						}
					],
					"stateMutability": "view",
					"type": "function"
				},
				{
					"inputs": [],
					"name": "votingClosed",
					"outputs": [
						{
							"internalType": "bool",
							"name": "",
							"type": "bool"
						}
					],
					"stateMutability": "view",
					"type": "function"
				},
				{
					"inputs": [],
					"name": "votingDeadline",
					"outputs": [
						{
							"internalType": "uint256",
							"name": "",
							"type": "uint256"
						}
					],
					"stateMutability": "view",
					"type": "function"
				}
			],
			"devdoc": {
				"kind": "dev",
				"methods": {},
				"version": 1
			},
			"evm": {
				"assembly": "    /* \"grupal/test.sol\":117:2281  contract DecentralizedVoting {... */\n  mstore(0x40, 0x80)\n    /* \"grupal/test.sol\":752:1026  constructor(string memory _topic, string[] memory _candidates, uint _votingDuration) {... */\n  callvalue\n  dup1\n  iszero\n  tag_1\n  jumpi\n  0x00\n  dup1\n  revert\ntag_1:\n  pop\n  mload(0x40)\n  sub(codesize, bytecodeSize)\n  dup1\n  bytecodeSize\n  dup4\n  codecopy\n  dup2\n  dup2\n  add\n  0x40\n  mstore\n  dup2\n  add\n  swap1\n  tag_2\n  swap2\n  swap1\n  tag_3\n  jump\t// in\ntag_2:\n    /* \"grupal/test.sol\":856:866  msg.sender */\n  caller\n    /* \"grupal/test.sol\":848:853  owner */\n  0x00\n  dup1\n    /* \"grupal/test.sol\":848:866  owner = msg.sender */\n  0x0100\n  exp\n  dup2\n  sload\n  dup2\n  0xffffffffffffffffffffffffffffffffffffffff\n  mul\n  not\n  and\n  swap1\n  dup4\n  0xffffffffffffffffffffffffffffffffffffffff\n  and\n  mul\n  or\n  swap1\n  sstore\n  pop\n    /* \"grupal/test.sol\":885:891  _topic */\n  dup3\n    /* \"grupal/test.sol\":877:882  topic */\n  0x01\n    /* \"grupal/test.sol\":877:891  topic = _topic */\n  swap1\n  dup2\n  tag_6\n  swap2\n  swap1\n  tag_7\n  jump\t// in\ntag_6:\n  pop\n    /* \"grupal/test.sol\":915:926  _candidates */\n  dup2\n    /* \"grupal/test.sol\":902:912  candidates */\n  0x05\n    /* \"grupal/test.sol\":902:926  candidates = _candidates */\n  swap1\n  dup1\n  mload\n  swap1\n  0x20\n  add\n  swap1\n  tag_8\n  swap3\n  swap2\n  swap1\n  tag_9\n  jump\t// in\ntag_8:\n  pop\n    /* \"grupal/test.sol\":972:987  _votingDuration */\n  dup1\n    /* \"grupal/test.sol\":954:969  block.timestamp */\n  timestamp\n    /* \"grupal/test.sol\":954:987  block.timestamp + _votingDuration */\n  tag_10\n  swap2\n  swap1\n  tag_11\n  jump\t// in\ntag_10:\n    /* \"grupal/test.sol\":937:951  votingDeadline */\n  0x02\n    /* \"grupal/test.sol\":937:987  votingDeadline = block.timestamp + _votingDuration */\n  dup2\n  swap1\n  sstore\n  pop\n    /* \"grupal/test.sol\":1013:1018  false */\n  0x00\n    /* \"grupal/test.sol\":998:1010  votingClosed */\n  0x06\n  0x00\n    /* \"grupal/test.sol\":998:1018  votingClosed = false */\n  0x0100\n  exp\n  dup2\n  sload\n  dup2\n  0xff\n  mul\n  not\n  and\n  swap1\n  dup4\n  iszero\n  iszero\n  mul\n  or\n  swap1\n  sstore\n  pop\n    /* \"grupal/test.sol\":752:1026  constructor(string memory _topic, string[] memory _candidates, uint _votingDuration) {... */\n  pop\n  pop\n  pop\n    /* \"grupal/test.sol\":117:2281  contract DecentralizedVoting {... */\n  jump(tag_12)\ntag_9:\n  dup3\n  dup1\n  sload\n  dup3\n  dup3\n  sstore\n  swap1\n  0x00\n  mstore\n  keccak256(0x00, 0x20)\n  swap1\n  dup2\n  add\n  swap3\n  dup3\n  iszero\n  tag_13\n  jumpi\n  swap2\n  0x20\n  mul\n  dup3\n  add\ntag_14:\n  dup3\n  dup2\n  gt\n  iszero\n  tag_15\n  jumpi\n  dup3\n  mload\n  dup3\n  swap1\n  dup2\n  tag_16\n  swap2\n  swap1\n  tag_7\n  jump\t// in\ntag_16:\n  pop\n  swap2\n  0x20\n  add\n  swap2\n  swap1\n  0x01\n  add\n  swap1\n  jump(tag_14)\ntag_15:\ntag_13:\n  pop\n  swap1\n  pop\n  tag_17\n  swap2\n  swap1\n  tag_18\n  jump\t// in\ntag_17:\n  pop\n  swap1\n  jump\t// out\ntag_18:\ntag_19:\n  dup1\n  dup3\n  gt\n  iszero\n  tag_20\n  jumpi\n  0x00\n  dup2\n  dup2\n  tag_21\n  swap2\n  swap1\n  tag_22\n  jump\t// in\ntag_21:\n  pop\n  0x01\n  add\n  jump(tag_19)\ntag_20:\n  pop\n  swap1\n  jump\t// out\ntag_22:\n  pop\n  dup1\n  sload\n  tag_23\n  swap1\n  tag_24\n  jump\t// in\ntag_23:\n  0x00\n  dup3\n  sstore\n  dup1\n  0x1f\n  lt\n  tag_26\n  jumpi\n  pop\n  jump(tag_25)\ntag_26:\n  0x1f\n  add\n  0x20\n  swap1\n  div\n  swap1\n  0x00\n  mstore\n  keccak256(0x00, 0x20)\n  swap1\n  dup2\n  add\n  swap1\n  tag_27\n  swap2\n  swap1\n  tag_28\n  jump\t// in\ntag_27:\ntag_25:\n  pop\n  jump\t// out\ntag_28:\ntag_29:\n  dup1\n  dup3\n  gt\n  iszero\n  tag_30\n  jumpi\n  0x00\n  dup2\n  0x00\n  swap1\n  sstore\n  pop\n  0x01\n  add\n  jump(tag_29)\ntag_30:\n  pop\n  swap1\n  jump\t// out\n    /* \"#utility.yul\":7:82   */\ntag_31:\n    /* \"#utility.yul\":40:46   */\n  0x00\n    /* \"#utility.yul\":73:75   */\n  0x40\n    /* \"#utility.yul\":67:76   */\n  mload\n    /* \"#utility.yul\":57:76   */\n  swap1\n  pop\n    /* \"#utility.yul\":7:82   */\n  swap1\n  jump\t// out\n    /* \"#utility.yul\":88:205   */\ntag_32:\n    /* \"#utility.yul\":197:198   */\n  0x00\n    /* \"#utility.yul\":194:195   */\n  dup1\n    /* \"#utility.yul\":187:199   */\n  revert\n    /* \"#utility.yul\":211:328   */\ntag_33:\n    /* \"#utility.yul\":320:321   */\n  0x00\n    /* \"#utility.yul\":317:318   */\n  dup1\n    /* \"#utility.yul\":310:322   */\n  revert\n    /* \"#utility.yul\":334:451   */\ntag_34:\n    /* \"#utility.yul\":443:444   */\n  0x00\n    /* \"#utility.yul\":440:441   */\n  dup1\n    /* \"#utility.yul\":433:445   */\n  revert\n    /* \"#utility.yul\":457:574   */\ntag_35:\n    /* \"#utility.yul\":566:567   */\n  0x00\n    /* \"#utility.yul\":563:564   */\n  dup1\n    /* \"#utility.yul\":556:568   */\n  revert\n    /* \"#utility.yul\":580:682   */\ntag_36:\n    /* \"#utility.yul\":621:627   */\n  0x00\n    /* \"#utility.yul\":672:674   */\n  0x1f\n    /* \"#utility.yul\":668:675   */\n  not\n    /* \"#utility.yul\":663:665   */\n  0x1f\n    /* \"#utility.yul\":656:661   */\n  dup4\n    /* \"#utility.yul\":652:666   */\n  add\n    /* \"#utility.yul\":648:676   */\n  and\n    /* \"#utility.yul\":638:676   */\n  swap1\n  pop\n    /* \"#utility.yul\":580:682   */\n  swap2\n  swap1\n  pop\n  jump\t// out\n    /* \"#utility.yul\":688:868   */\ntag_37:\n    /* \"#utility.yul\":736:813   */\n  0x4e487b7100000000000000000000000000000000000000000000000000000000\n    /* \"#utility.yul\":733:734   */\n  0x00\n    /* \"#utility.yul\":726:814   */\n  mstore\n    /* \"#utility.yul\":833:837   */\n  0x41\n    /* \"#utility.yul\":830:831   */\n  0x04\n    /* \"#utility.yul\":823:838   */\n  mstore\n    /* \"#utility.yul\":857:861   */\n  0x24\n    /* \"#utility.yul\":854:855   */\n  0x00\n    /* \"#utility.yul\":847:862   */\n  revert\n    /* \"#utility.yul\":874:1155   */\ntag_38:\n    /* \"#utility.yul\":957:984   */\n  tag_78\n    /* \"#utility.yul\":979:983   */\n  dup3\n    /* \"#utility.yul\":957:984   */\n  tag_36\n  jump\t// in\ntag_78:\n    /* \"#utility.yul\":949:955   */\n  dup2\n    /* \"#utility.yul\":945:985   */\n  add\n    /* \"#utility.yul\":1087:1093   */\n  dup2\n    /* \"#utility.yul\":1075:1085   */\n  dup2\n    /* \"#utility.yul\":1072:1094   */\n  lt\n    /* \"#utility.yul\":1051:1069   */\n  0xffffffffffffffff\n    /* \"#utility.yul\":1039:1049   */\n  dup3\n    /* \"#utility.yul\":1036:1070   */\n  gt\n    /* \"#utility.yul\":1033:1095   */\n  or\n    /* \"#utility.yul\":1030:1118   */\n  iszero\n  tag_79\n  jumpi\n    /* \"#utility.yul\":1098:1116   */\n  tag_80\n  tag_37\n  jump\t// in\ntag_80:\n    /* \"#utility.yul\":1030:1118   */\ntag_79:\n    /* \"#utility.yul\":1138:1148   */\n  dup1\n    /* \"#utility.yul\":1134:1136   */\n  0x40\n    /* \"#utility.yul\":1127:1149   */\n  mstore\n    /* \"#utility.yul\":917:1155   */\n  pop\n    /* \"#utility.yul\":874:1155   */\n  pop\n  pop\n  jump\t// out\n    /* \"#utility.yul\":1161:1290   */\ntag_39:\n    /* \"#utility.yul\":1195:1201   */\n  0x00\n    /* \"#utility.yul\":1222:1242   */\n  tag_82\n  tag_31\n  jump\t// in\ntag_82:\n    /* \"#utility.yul\":1212:1242   */\n  swap1\n  pop\n    /* \"#utility.yul\":1251:1284   */\n  tag_83\n    /* \"#utility.yul\":1279:1283   */\n  dup3\n    /* \"#utility.yul\":1271:1277   */\n  dup3\n    /* \"#utility.yul\":1251:1284   */\n  tag_38\n  jump\t// in\ntag_83:\n    /* \"#utility.yul\":1161:1290   */\n  swap2\n  swap1\n  pop\n  jump\t// out\n    /* \"#utility.yul\":1296:1604   */\ntag_40:\n    /* \"#utility.yul\":1358:1362   */\n  0x00\n    /* \"#utility.yul\":1448:1466   */\n  0xffffffffffffffff\n    /* \"#utility.yul\":1440:1446   */\n  dup3\n    /* \"#utility.yul\":1437:1467   */\n  gt\n    /* \"#utility.yul\":1434:1490   */\n  iszero\n  tag_85\n  jumpi\n    /* \"#utility.yul\":1470:1488   */\n  tag_86\n  tag_37\n  jump\t// in\ntag_86:\n    /* \"#utility.yul\":1434:1490   */\ntag_85:\n    /* \"#utility.yul\":1508:1537   */\n  tag_87\n    /* \"#utility.yul\":1530:1536   */\n  dup3\n    /* \"#utility.yul\":1508:1537   */\n  tag_36\n  jump\t// in\ntag_87:\n    /* \"#utility.yul\":1500:1537   */\n  swap1\n  pop\n    /* \"#utility.yul\":1592:1596   */\n  0x20\n    /* \"#utility.yul\":1586:1590   */\n  dup2\n    /* \"#utility.yul\":1582:1597   */\n  add\n    /* \"#utility.yul\":1574:1597   */\n  swap1\n  pop\n    /* \"#utility.yul\":1296:1604   */\n  swap2\n  swap1\n  pop\n  jump\t// out\n    /* \"#utility.yul\":1610:1749   */\ntag_41:\n    /* \"#utility.yul\":1699:1705   */\n  dup3\n    /* \"#utility.yul\":1694:1697   */\n  dup2\n    /* \"#utility.yul\":1689:1692   */\n  dup4\n    /* \"#utility.yul\":1683:1706   */\n  mcopy\n    /* \"#utility.yul\":1740:1741   */\n  0x00\n    /* \"#utility.yul\":1731:1737   */\n  dup4\n    /* \"#utility.yul\":1726:1729   */\n  dup4\n    /* \"#utility.yul\":1722:1738   */\n  add\n    /* \"#utility.yul\":1715:1742   */\n  mstore\n    /* \"#utility.yul\":1610:1749   */\n  pop\n  pop\n  pop\n  jump\t// out\n    /* \"#utility.yul\":1755:2189   */\ntag_42:\n    /* \"#utility.yul\":1844:1849   */\n  0x00\n    /* \"#utility.yul\":1869:1935   */\n  tag_90\n    /* \"#utility.yul\":1885:1934   */\n  tag_91\n    /* \"#utility.yul\":1927:1933   */\n  dup5\n    /* \"#utility.yul\":1885:1934   */\n  tag_40\n  jump\t// in\ntag_91:\n    /* \"#utility.yul\":1869:1935   */\n  tag_39\n  jump\t// in\ntag_90:\n    /* \"#utility.yul\":1860:1935   */\n  swap1\n  pop\n    /* \"#utility.yul\":1958:1964   */\n  dup3\n    /* \"#utility.yul\":1951:1956   */\n  dup2\n    /* \"#utility.yul\":1944:1965   */\n  mstore\n    /* \"#utility.yul\":1996:2000   */\n  0x20\n    /* \"#utility.yul\":1989:1994   */\n  dup2\n    /* \"#utility.yul\":1985:2001   */\n  add\n    /* \"#utility.yul\":2034:2037   */\n  dup5\n    /* \"#utility.yul\":2025:2031   */\n  dup5\n    /* \"#utility.yul\":2020:2023   */\n  dup5\n    /* \"#utility.yul\":2016:2032   */\n  add\n    /* \"#utility.yul\":2013:2038   */\n  gt\n    /* \"#utility.yul\":2010:2122   */\n  iszero\n  tag_92\n  jumpi\n    /* \"#utility.yul\":2041:2120   */\n  tag_93\n  tag_35\n  jump\t// in\ntag_93:\n    /* \"#utility.yul\":2010:2122   */\ntag_92:\n    /* \"#utility.yul\":2131:2183   */\n  tag_94\n    /* \"#utility.yul\":2176:2182   */\n  dup5\n    /* \"#utility.yul\":2171:2174   */\n  dup3\n    /* \"#utility.yul\":2166:2169   */\n  dup6\n    /* \"#utility.yul\":2131:2183   */\n  tag_41\n  jump\t// in\ntag_94:\n    /* \"#utility.yul\":1850:2189   */\n  pop\n    /* \"#utility.yul\":1755:2189   */\n  swap4\n  swap3\n  pop\n  pop\n  pop\n  jump\t// out\n    /* \"#utility.yul\":2209:2564   */\ntag_43:\n    /* \"#utility.yul\":2276:2281   */\n  0x00\n    /* \"#utility.yul\":2325:2328   */\n  dup3\n    /* \"#utility.yul\":2318:2322   */\n  0x1f\n    /* \"#utility.yul\":2310:2316   */\n  dup4\n    /* \"#utility.yul\":2306:2323   */\n  add\n    /* \"#utility.yul\":2302:2329   */\n  slt\n    /* \"#utility.yul\":2292:2414   */\n  tag_96\n  jumpi\n    /* \"#utility.yul\":2333:2412   */\n  tag_97\n  tag_34\n  jump\t// in\ntag_97:\n    /* \"#utility.yul\":2292:2414   */\ntag_96:\n    /* \"#utility.yul\":2443:2449   */\n  dup2\n    /* \"#utility.yul\":2437:2450   */\n  mload\n    /* \"#utility.yul\":2468:2558   */\n  tag_98\n    /* \"#utility.yul\":2554:2557   */\n  dup5\n    /* \"#utility.yul\":2546:2552   */\n  dup3\n    /* \"#utility.yul\":2539:2543   */\n  0x20\n    /* \"#utility.yul\":2531:2537   */\n  dup7\n    /* \"#utility.yul\":2527:2544   */\n  add\n    /* \"#utility.yul\":2468:2558   */\n  tag_42\n  jump\t// in\ntag_98:\n    /* \"#utility.yul\":2459:2558   */\n  swap2\n  pop\n    /* \"#utility.yul\":2282:2564   */\n  pop\n    /* \"#utility.yul\":2209:2564   */\n  swap3\n  swap2\n  pop\n  pop\n  jump\t// out\n    /* \"#utility.yul\":2570:2891   */\ntag_44:\n    /* \"#utility.yul\":2657:2661   */\n  0x00\n    /* \"#utility.yul\":2747:2765   */\n  0xffffffffffffffff\n    /* \"#utility.yul\":2739:2745   */\n  dup3\n    /* \"#utility.yul\":2736:2766   */\n  gt\n    /* \"#utility.yul\":2733:2789   */\n  iszero\n  tag_100\n  jumpi\n    /* \"#utility.yul\":2769:2787   */\n  tag_101\n  tag_37\n  jump\t// in\ntag_101:\n    /* \"#utility.yul\":2733:2789   */\ntag_100:\n    /* \"#utility.yul\":2819:2823   */\n  0x20\n    /* \"#utility.yul\":2811:2817   */\n  dup3\n    /* \"#utility.yul\":2807:2824   */\n  mul\n    /* \"#utility.yul\":2799:2824   */\n  swap1\n  pop\n    /* \"#utility.yul\":2879:2883   */\n  0x20\n    /* \"#utility.yul\":2873:2877   */\n  dup2\n    /* \"#utility.yul\":2869:2884   */\n  add\n    /* \"#utility.yul\":2861:2884   */\n  swap1\n  pop\n    /* \"#utility.yul\":2570:2891   */\n  swap2\n  swap1\n  pop\n  jump\t// out\n    /* \"#utility.yul\":2897:3014   */\ntag_45:\n    /* \"#utility.yul\":3006:3007   */\n  0x00\n    /* \"#utility.yul\":3003:3004   */\n  dup1\n    /* \"#utility.yul\":2996:3008   */\n  revert\n    /* \"#utility.yul\":3036:3996   */\ntag_46:\n    /* \"#utility.yul\":3153:3158   */\n  0x00\n    /* \"#utility.yul\":3178:3269   */\n  tag_104\n    /* \"#utility.yul\":3194:3268   */\n  tag_105\n    /* \"#utility.yul\":3261:3267   */\n  dup5\n    /* \"#utility.yul\":3194:3268   */\n  tag_44\n  jump\t// in\ntag_105:\n    /* \"#utility.yul\":3178:3269   */\n  tag_39\n  jump\t// in\ntag_104:\n    /* \"#utility.yul\":3169:3269   */\n  swap1\n  pop\n    /* \"#utility.yul\":3289:3294   */\n  dup1\n    /* \"#utility.yul\":3318:3324   */\n  dup4\n    /* \"#utility.yul\":3311:3316   */\n  dup3\n    /* \"#utility.yul\":3304:3325   */\n  mstore\n    /* \"#utility.yul\":3352:3356   */\n  0x20\n    /* \"#utility.yul\":3345:3350   */\n  dup3\n    /* \"#utility.yul\":3341:3357   */\n  add\n    /* \"#utility.yul\":3334:3357   */\n  swap1\n  pop\n    /* \"#utility.yul\":3405:3409   */\n  0x20\n    /* \"#utility.yul\":3397:3403   */\n  dup5\n    /* \"#utility.yul\":3393:3410   */\n  mul\n    /* \"#utility.yul\":3385:3391   */\n  dup4\n    /* \"#utility.yul\":3381:3411   */\n  add\n    /* \"#utility.yul\":3434:3437   */\n  dup6\n    /* \"#utility.yul\":3426:3432   */\n  dup2\n    /* \"#utility.yul\":3423:3438   */\n  gt\n    /* \"#utility.yul\":3420:3542   */\n  iszero\n  tag_106\n  jumpi\n    /* \"#utility.yul\":3453:3532   */\n  tag_107\n  tag_45\n  jump\t// in\ntag_107:\n    /* \"#utility.yul\":3420:3542   */\ntag_106:\n    /* \"#utility.yul\":3568:3574   */\n  dup4\n    /* \"#utility.yul\":3551:3990   */\ntag_108:\n    /* \"#utility.yul\":3585:3591   */\n  dup2\n    /* \"#utility.yul\":3580:3583   */\n  dup2\n    /* \"#utility.yul\":3577:3592   */\n  lt\n    /* \"#utility.yul\":3551:3990   */\n  iszero\n  tag_110\n  jumpi\n    /* \"#utility.yul\":3667:3670   */\n  dup1\n    /* \"#utility.yul\":3661:3671   */\n  mload\n    /* \"#utility.yul\":3703:3721   */\n  0xffffffffffffffff\n    /* \"#utility.yul\":3690:3701   */\n  dup2\n    /* \"#utility.yul\":3687:3722   */\n  gt\n    /* \"#utility.yul\":3684:3806   */\n  iszero\n  tag_111\n  jumpi\n    /* \"#utility.yul\":3725:3804   */\n  tag_112\n  tag_34\n  jump\t// in\ntag_112:\n    /* \"#utility.yul\":3684:3806   */\ntag_111:\n    /* \"#utility.yul\":3849:3860   */\n  dup1\n    /* \"#utility.yul\":3841:3847   */\n  dup7\n    /* \"#utility.yul\":3837:3861   */\n  add\n    /* \"#utility.yul\":3887:3945   */\n  tag_113\n    /* \"#utility.yul\":3941:3944   */\n  dup10\n    /* \"#utility.yul\":3929:3939   */\n  dup3\n    /* \"#utility.yul\":3887:3945   */\n  tag_43\n  jump\t// in\ntag_113:\n    /* \"#utility.yul\":3882:3885   */\n  dup6\n    /* \"#utility.yul\":3875:3946   */\n  mstore\n    /* \"#utility.yul\":3975:3979   */\n  0x20\n    /* \"#utility.yul\":3970:3973   */\n  dup6\n    /* \"#utility.yul\":3966:3980   */\n  add\n    /* \"#utility.yul\":3959:3980   */\n  swap5\n  pop\n    /* \"#utility.yul\":3627:3990   */\n  pop\n  pop\n    /* \"#utility.yul\":3611:3615   */\n  0x20\n    /* \"#utility.yul\":3606:3609   */\n  dup2\n    /* \"#utility.yul\":3602:3616   */\n  add\n    /* \"#utility.yul\":3595:3616   */\n  swap1\n  pop\n    /* \"#utility.yul\":3551:3990   */\n  jump(tag_108)\ntag_110:\n    /* \"#utility.yul\":3555:3576   */\n  pop\n    /* \"#utility.yul\":3159:3996   */\n  pop\n  pop\n    /* \"#utility.yul\":3036:3996   */\n  swap4\n  swap3\n  pop\n  pop\n  pop\n  jump\t// out\n    /* \"#utility.yul\":4018:4423   */\ntag_47:\n    /* \"#utility.yul\":4110:4115   */\n  0x00\n    /* \"#utility.yul\":4159:4162   */\n  dup3\n    /* \"#utility.yul\":4152:4156   */\n  0x1f\n    /* \"#utility.yul\":4144:4150   */\n  dup4\n    /* \"#utility.yul\":4140:4157   */\n  add\n    /* \"#utility.yul\":4136:4163   */\n  slt\n    /* \"#utility.yul\":4126:4248   */\n  tag_115\n  jumpi\n    /* \"#utility.yul\":4167:4246   */\n  tag_116\n  tag_34\n  jump\t// in\ntag_116:\n    /* \"#utility.yul\":4126:4248   */\ntag_115:\n    /* \"#utility.yul\":4277:4283   */\n  dup2\n    /* \"#utility.yul\":4271:4284   */\n  mload\n    /* \"#utility.yul\":4302:4417   */\n  tag_117\n    /* \"#utility.yul\":4413:4416   */\n  dup5\n    /* \"#utility.yul\":4405:4411   */\n  dup3\n    /* \"#utility.yul\":4398:4402   */\n  0x20\n    /* \"#utility.yul\":4390:4396   */\n  dup7\n    /* \"#utility.yul\":4386:4403   */\n  add\n    /* \"#utility.yul\":4302:4417   */\n  tag_46\n  jump\t// in\ntag_117:\n    /* \"#utility.yul\":4293:4417   */\n  swap2\n  pop\n    /* \"#utility.yul\":4116:4423   */\n  pop\n    /* \"#utility.yul\":4018:4423   */\n  swap3\n  swap2\n  pop\n  pop\n  jump\t// out\n    /* \"#utility.yul\":4429:4506   */\ntag_48:\n    /* \"#utility.yul\":4466:4473   */\n  0x00\n    /* \"#utility.yul\":4495:4500   */\n  dup2\n    /* \"#utility.yul\":4484:4500   */\n  swap1\n  pop\n    /* \"#utility.yul\":4429:4506   */\n  swap2\n  swap1\n  pop\n  jump\t// out\n    /* \"#utility.yul\":4512:4634   */\ntag_49:\n    /* \"#utility.yul\":4585:4609   */\n  tag_120\n    /* \"#utility.yul\":4603:4608   */\n  dup2\n    /* \"#utility.yul\":4585:4609   */\n  tag_48\n  jump\t// in\ntag_120:\n    /* \"#utility.yul\":4578:4583   */\n  dup2\n    /* \"#utility.yul\":4575:4610   */\n  eq\n    /* \"#utility.yul\":4565:4628   */\n  tag_121\n  jumpi\n    /* \"#utility.yul\":4624:4625   */\n  0x00\n    /* \"#utility.yul\":4621:4622   */\n  dup1\n    /* \"#utility.yul\":4614:4626   */\n  revert\n    /* \"#utility.yul\":4565:4628   */\ntag_121:\n    /* \"#utility.yul\":4512:4634   */\n  pop\n  jump\t// out\n    /* \"#utility.yul\":4640:4783   */\ntag_50:\n    /* \"#utility.yul\":4697:4702   */\n  0x00\n    /* \"#utility.yul\":4728:4734   */\n  dup2\n    /* \"#utility.yul\":4722:4735   */\n  mload\n    /* \"#utility.yul\":4713:4735   */\n  swap1\n  pop\n    /* \"#utility.yul\":4744:4777   */\n  tag_123\n    /* \"#utility.yul\":4771:4776   */\n  dup2\n    /* \"#utility.yul\":4744:4777   */\n  tag_49\n  jump\t// in\ntag_123:\n    /* \"#utility.yul\":4640:4783   */\n  swap3\n  swap2\n  pop\n  pop\n  jump\t// out\n    /* \"#utility.yul\":4789:5848   */\ntag_3:\n    /* \"#utility.yul\":4922:4928   */\n  0x00\n    /* \"#utility.yul\":4930:4936   */\n  dup1\n    /* \"#utility.yul\":4938:4944   */\n  0x00\n    /* \"#utility.yul\":4987:4989   */\n  0x60\n    /* \"#utility.yul\":4975:4984   */\n  dup5\n    /* \"#utility.yul\":4966:4973   */\n  dup7\n    /* \"#utility.yul\":4962:4985   */\n  sub\n    /* \"#utility.yul\":4958:4990   */\n  slt\n    /* \"#utility.yul\":4955:5074   */\n  iszero\n  tag_125\n  jumpi\n    /* \"#utility.yul\":4993:5072   */\n  tag_126\n  tag_32\n  jump\t// in\ntag_126:\n    /* \"#utility.yul\":4955:5074   */\ntag_125:\n    /* \"#utility.yul\":5134:5135   */\n  0x00\n    /* \"#utility.yul\":5123:5132   */\n  dup5\n    /* \"#utility.yul\":5119:5136   */\n  add\n    /* \"#utility.yul\":5113:5137   */\n  mload\n    /* \"#utility.yul\":5164:5182   */\n  0xffffffffffffffff\n    /* \"#utility.yul\":5156:5162   */\n  dup2\n    /* \"#utility.yul\":5153:5183   */\n  gt\n    /* \"#utility.yul\":5150:5267   */\n  iszero\n  tag_127\n  jumpi\n    /* \"#utility.yul\":5186:5265   */\n  tag_128\n  tag_33\n  jump\t// in\ntag_128:\n    /* \"#utility.yul\":5150:5267   */\ntag_127:\n    /* \"#utility.yul\":5291:5365   */\n  tag_129\n    /* \"#utility.yul\":5357:5364   */\n  dup7\n    /* \"#utility.yul\":5348:5354   */\n  dup3\n    /* \"#utility.yul\":5337:5346   */\n  dup8\n    /* \"#utility.yul\":5333:5355   */\n  add\n    /* \"#utility.yul\":5291:5365   */\n  tag_43\n  jump\t// in\ntag_129:\n    /* \"#utility.yul\":5281:5365   */\n  swap4\n  pop\n    /* \"#utility.yul\":5084:5375   */\n  pop\n    /* \"#utility.yul\":5435:5437   */\n  0x20\n    /* \"#utility.yul\":5424:5433   */\n  dup5\n    /* \"#utility.yul\":5420:5438   */\n  add\n    /* \"#utility.yul\":5414:5439   */\n  mload\n    /* \"#utility.yul\":5466:5484   */\n  0xffffffffffffffff\n    /* \"#utility.yul\":5458:5464   */\n  dup2\n    /* \"#utility.yul\":5455:5485   */\n  gt\n    /* \"#utility.yul\":5452:5569   */\n  iszero\n  tag_130\n  jumpi\n    /* \"#utility.yul\":5488:5567   */\n  tag_131\n  tag_33\n  jump\t// in\ntag_131:\n    /* \"#utility.yul\":5452:5569   */\ntag_130:\n    /* \"#utility.yul\":5593:5692   */\n  tag_132\n    /* \"#utility.yul\":5684:5691   */\n  dup7\n    /* \"#utility.yul\":5675:5681   */\n  dup3\n    /* \"#utility.yul\":5664:5673   */\n  dup8\n    /* \"#utility.yul\":5660:5682   */\n  add\n    /* \"#utility.yul\":5593:5692   */\n  tag_47\n  jump\t// in\ntag_132:\n    /* \"#utility.yul\":5583:5692   */\n  swap3\n  pop\n    /* \"#utility.yul\":5385:5702   */\n  pop\n    /* \"#utility.yul\":5741:5743   */\n  0x40\n    /* \"#utility.yul\":5767:5831   */\n  tag_133\n    /* \"#utility.yul\":5823:5830   */\n  dup7\n    /* \"#utility.yul\":5814:5820   */\n  dup3\n    /* \"#utility.yul\":5803:5812   */\n  dup8\n    /* \"#utility.yul\":5799:5821   */\n  add\n    /* \"#utility.yul\":5767:5831   */\n  tag_50\n  jump\t// in\ntag_133:\n    /* \"#utility.yul\":5757:5831   */\n  swap2\n  pop\n    /* \"#utility.yul\":5712:5841   */\n  pop\n    /* \"#utility.yul\":4789:5848   */\n  swap3\n  pop\n  swap3\n  pop\n  swap3\n  jump\t// out\n    /* \"#utility.yul\":5854:5953   */\ntag_51:\n    /* \"#utility.yul\":5906:5912   */\n  0x00\n    /* \"#utility.yul\":5940:5945   */\n  dup2\n    /* \"#utility.yul\":5934:5946   */\n  mload\n    /* \"#utility.yul\":5924:5946   */\n  swap1\n  pop\n    /* \"#utility.yul\":5854:5953   */\n  swap2\n  swap1\n  pop\n  jump\t// out\n    /* \"#utility.yul\":5959:6139   */\ntag_52:\n    /* \"#utility.yul\":6007:6084   */\n  0x4e487b7100000000000000000000000000000000000000000000000000000000\n    /* \"#utility.yul\":6004:6005   */\n  0x00\n    /* \"#utility.yul\":5997:6085   */\n  mstore\n    /* \"#utility.yul\":6104:6108   */\n  0x22\n    /* \"#utility.yul\":6101:6102   */\n  0x04\n    /* \"#utility.yul\":6094:6109   */\n  mstore\n    /* \"#utility.yul\":6128:6132   */\n  0x24\n    /* \"#utility.yul\":6125:6126   */\n  0x00\n    /* \"#utility.yul\":6118:6133   */\n  revert\n    /* \"#utility.yul\":6145:6465   */\ntag_24:\n    /* \"#utility.yul\":6189:6195   */\n  0x00\n    /* \"#utility.yul\":6226:6227   */\n  0x02\n    /* \"#utility.yul\":6220:6224   */\n  dup3\n    /* \"#utility.yul\":6216:6228   */\n  div\n    /* \"#utility.yul\":6206:6228   */\n  swap1\n  pop\n    /* \"#utility.yul\":6273:6274   */\n  0x01\n    /* \"#utility.yul\":6267:6271   */\n  dup3\n    /* \"#utility.yul\":6263:6275   */\n  and\n    /* \"#utility.yul\":6294:6312   */\n  dup1\n    /* \"#utility.yul\":6284:6365   */\n  tag_137\n  jumpi\n    /* \"#utility.yul\":6350:6354   */\n  0x7f\n    /* \"#utility.yul\":6342:6348   */\n  dup3\n    /* \"#utility.yul\":6338:6355   */\n  and\n    /* \"#utility.yul\":6328:6355   */\n  swap2\n  pop\n    /* \"#utility.yul\":6284:6365   */\ntag_137:\n    /* \"#utility.yul\":6412:6414   */\n  0x20\n    /* \"#utility.yul\":6404:6410   */\n  dup3\n    /* \"#utility.yul\":6401:6415   */\n  lt\n    /* \"#utility.yul\":6381:6399   */\n  dup2\n    /* \"#utility.yul\":6378:6416   */\n  sub\n    /* \"#utility.yul\":6375:6459   */\n  tag_138\n  jumpi\n    /* \"#utility.yul\":6431:6449   */\n  tag_139\n  tag_52\n  jump\t// in\ntag_139:\n    /* \"#utility.yul\":6375:6459   */\ntag_138:\n    /* \"#utility.yul\":6196:6465   */\n  pop\n    /* \"#utility.yul\":6145:6465   */\n  swap2\n  swap1\n  pop\n  jump\t// out\n    /* \"#utility.yul\":6471:6612   */\ntag_53:\n    /* \"#utility.yul\":6520:6524   */\n  0x00\n    /* \"#utility.yul\":6543:6546   */\n  dup2\n    /* \"#utility.yul\":6535:6546   */\n  swap1\n  pop\n    /* \"#utility.yul\":6566:6569   */\n  dup2\n    /* \"#utility.yul\":6563:6564   */\n  0x00\n    /* \"#utility.yul\":6556:6570   */\n  mstore\n    /* \"#utility.yul\":6600:6604   */\n  0x20\n    /* \"#utility.yul\":6597:6598   */\n  0x00\n    /* \"#utility.yul\":6587:6605   */\n  keccak256\n    /* \"#utility.yul\":6579:6605   */\n  swap1\n  pop\n    /* \"#utility.yul\":6471:6612   */\n  swap2\n  swap1\n  pop\n  jump\t// out\n    /* \"#utility.yul\":6618:6711   */\ntag_54:\n    /* \"#utility.yul\":6655:6661   */\n  0x00\n    /* \"#utility.yul\":6702:6704   */\n  0x20\n    /* \"#utility.yul\":6697:6699   */\n  0x1f\n    /* \"#utility.yul\":6690:6695   */\n  dup4\n    /* \"#utility.yul\":6686:6700   */\n  add\n    /* \"#utility.yul\":6682:6705   */\n  div\n    /* \"#utility.yul\":6672:6705   */\n  swap1\n  pop\n    /* \"#utility.yul\":6618:6711   */\n  swap2\n  swap1\n  pop\n  jump\t// out\n    /* \"#utility.yul\":6717:6824   */\ntag_55:\n    /* \"#utility.yul\":6761:6769   */\n  0x00\n    /* \"#utility.yul\":6811:6816   */\n  dup3\n    /* \"#utility.yul\":6805:6809   */\n  dup3\n    /* \"#utility.yul\":6801:6817   */\n  shl\n    /* \"#utility.yul\":6780:6817   */\n  swap1\n  pop\n    /* \"#utility.yul\":6717:6824   */\n  swap3\n  swap2\n  pop\n  pop\n  jump\t// out\n    /* \"#utility.yul\":6830:7223   */\ntag_56:\n    /* \"#utility.yul\":6899:6905   */\n  0x00\n    /* \"#utility.yul\":6949:6950   */\n  0x08\n    /* \"#utility.yul\":6937:6947   */\n  dup4\n    /* \"#utility.yul\":6933:6951   */\n  mul\n    /* \"#utility.yul\":6972:7069   */\n  tag_144\n    /* \"#utility.yul\":7002:7068   */\n  0xffffffffffffffffffffffffffffffffffffffffffffffffffffffffffffffff\n    /* \"#utility.yul\":6991:7000   */\n  dup3\n    /* \"#utility.yul\":6972:7069   */\n  tag_55\n  jump\t// in\ntag_144:\n    /* \"#utility.yul\":7090:7129   */\n  tag_145\n    /* \"#utility.yul\":7120:7128   */\n  dup7\n    /* \"#utility.yul\":7109:7118   */\n  dup4\n    /* \"#utility.yul\":7090:7129   */\n  tag_55\n  jump\t// in\ntag_145:\n    /* \"#utility.yul\":7078:7129   */\n  swap6\n  pop\n    /* \"#utility.yul\":7162:7166   */\n  dup1\n    /* \"#utility.yul\":7158:7167   */\n  not\n    /* \"#utility.yul\":7151:7156   */\n  dup5\n    /* \"#utility.yul\":7147:7168   */\n  and\n    /* \"#utility.yul\":7138:7168   */\n  swap4\n  pop\n    /* \"#utility.yul\":7211:7215   */\n  dup1\n    /* \"#utility.yul\":7201:7209   */\n  dup7\n    /* \"#utility.yul\":7197:7216   */\n  and\n    /* \"#utility.yul\":7190:7195   */\n  dup5\n    /* \"#utility.yul\":7187:7217   */\n  or\n    /* \"#utility.yul\":7177:7217   */\n  swap3\n  pop\n    /* \"#utility.yul\":6906:7223   */\n  pop\n  pop\n    /* \"#utility.yul\":6830:7223   */\n  swap4\n  swap3\n  pop\n  pop\n  pop\n  jump\t// out\n    /* \"#utility.yul\":7229:7289   */\ntag_57:\n    /* \"#utility.yul\":7257:7260   */\n  0x00\n    /* \"#utility.yul\":7278:7283   */\n  dup2\n    /* \"#utility.yul\":7271:7283   */\n  swap1\n  pop\n    /* \"#utility.yul\":7229:7289   */\n  swap2\n  swap1\n  pop\n  jump\t// out\n    /* \"#utility.yul\":7295:7437   */\ntag_58:\n    /* \"#utility.yul\":7345:7354   */\n  0x00\n    /* \"#utility.yul\":7378:7431   */\n  tag_148\n    /* \"#utility.yul\":7396:7430   */\n  tag_149\n    /* \"#utility.yul\":7405:7429   */\n  tag_150\n    /* \"#utility.yul\":7423:7428   */\n  dup5\n    /* \"#utility.yul\":7405:7429   */\n  tag_48\n  jump\t// in\ntag_150:\n    /* \"#utility.yul\":7396:7430   */\n  tag_57\n  jump\t// in\ntag_149:\n    /* \"#utility.yul\":7378:7431   */\n  tag_48\n  jump\t// in\ntag_148:\n    /* \"#utility.yul\":7365:7431   */\n  swap1\n  pop\n    /* \"#utility.yul\":7295:7437   */\n  swap2\n  swap1\n  pop\n  jump\t// out\n    /* \"#utility.yul\":7443:7518   */\ntag_59:\n    /* \"#utility.yul\":7486:7489   */\n  0x00\n    /* \"#utility.yul\":7507:7512   */\n  dup2\n    /* \"#utility.yul\":7500:7512   */\n  swap1\n  pop\n    /* \"#utility.yul\":7443:7518   */\n  swap2\n  swap1\n  pop\n  jump\t// out\n    /* \"#utility.yul\":7524:7793   */\ntag_60:\n    /* \"#utility.yul\":7634:7673   */\n  tag_153\n    /* \"#utility.yul\":7665:7672   */\n  dup4\n    /* \"#utility.yul\":7634:7673   */\n  tag_58\n  jump\t// in\ntag_153:\n    /* \"#utility.yul\":7695:7786   */\n  tag_154\n    /* \"#utility.yul\":7744:7785   */\n  tag_155\n    /* \"#utility.yul\":7768:7784   */\n  dup3\n    /* \"#utility.yul\":7744:7785   */\n  tag_59\n  jump\t// in\ntag_155:\n    /* \"#utility.yul\":7736:7742   */\n  dup5\n    /* \"#utility.yul\":7729:7733   */\n  dup5\n    /* \"#utility.yul\":7723:7734   */\n  sload\n    /* \"#utility.yul\":7695:7786   */\n  tag_56\n  jump\t// in\ntag_154:\n    /* \"#utility.yul\":7689:7693   */\n  dup3\n    /* \"#utility.yul\":7682:7787   */\n  sstore\n    /* \"#utility.yul\":7600:7793   */\n  pop\n    /* \"#utility.yul\":7524:7793   */\n  pop\n  pop\n  pop\n  jump\t// out\n    /* \"#utility.yul\":7799:7872   */\ntag_61:\n    /* \"#utility.yul\":7844:7847   */\n  0x00\n    /* \"#utility.yul\":7799:7872   */\n  swap1\n  jump\t// out\n    /* \"#utility.yul\":7878:8067   */\ntag_62:\n    /* \"#utility.yul\":7955:7987   */\n  tag_158\n  tag_61\n  jump\t// in\ntag_158:\n    /* \"#utility.yul\":7996:8061   */\n  tag_159\n    /* \"#utility.yul\":8054:8060   */\n  dup2\n    /* \"#utility.yul\":8046:8052   */\n  dup5\n    /* \"#utility.yul\":8040:8044   */\n  dup5\n    /* \"#utility.yul\":7996:8061   */\n  tag_60\n  jump\t// in\ntag_159:\n    /* \"#utility.yul\":7931:8067   */\n  pop\n    /* \"#utility.yul\":7878:8067   */\n  pop\n  pop\n  jump\t// out\n    /* \"#utility.yul\":8073:8259   */\ntag_63:\n    /* \"#utility.yul\":8133:8253   */\ntag_161:\n    /* \"#utility.yul\":8150:8153   */\n  dup2\n    /* \"#utility.yul\":8143:8148   */\n  dup2\n    /* \"#utility.yul\":8140:8154   */\n  lt\n    /* \"#utility.yul\":8133:8253   */\n  iszero\n  tag_163\n  jumpi\n    /* \"#utility.yul\":8204:8243   */\n  tag_164\n    /* \"#utility.yul\":8241:8242   */\n  0x00\n    /* \"#utility.yul\":8234:8239   */\n  dup3\n    /* \"#utility.yul\":8204:8243   */\n  tag_62\n  jump\t// in\ntag_164:\n    /* \"#utility.yul\":8177:8178   */\n  0x01\n    /* \"#utility.yul\":8170:8175   */\n  dup2\n    /* \"#utility.yul\":8166:8179   */\n  add\n    /* \"#utility.yul\":8157:8179   */\n  swap1\n  pop\n    /* \"#utility.yul\":8133:8253   */\n  jump(tag_161)\ntag_163:\n    /* \"#utility.yul\":8073:8259   */\n  pop\n  pop\n  jump\t// out\n    /* \"#utility.yul\":8265:8808   */\ntag_64:\n    /* \"#utility.yul\":8366:8368   */\n  0x1f\n    /* \"#utility.yul\":8361:8364   */\n  dup3\n    /* \"#utility.yul\":8358:8369   */\n  gt\n    /* \"#utility.yul\":8355:8801   */\n  iszero\n  tag_166\n  jumpi\n    /* \"#utility.yul\":8400:8438   */\n  tag_167\n    /* \"#utility.yul\":8432:8437   */\n  dup2\n    /* \"#utility.yul\":8400:8438   */\n  tag_53\n  jump\t// in\ntag_167:\n    /* \"#utility.yul\":8484:8513   */\n  tag_168\n    /* \"#utility.yul\":8502:8512   */\n  dup5\n    /* \"#utility.yul\":8484:8513   */\n  tag_54\n  jump\t// in\ntag_168:\n    /* \"#utility.yul\":8474:8482   */\n  dup2\n    /* \"#utility.yul\":8470:8514   */\n  add\n    /* \"#utility.yul\":8667:8669   */\n  0x20\n    /* \"#utility.yul\":8655:8665   */\n  dup6\n    /* \"#utility.yul\":8652:8670   */\n  lt\n    /* \"#utility.yul\":8649:8698   */\n  iszero\n  tag_169\n  jumpi\n    /* \"#utility.yul\":8688:8696   */\n  dup2\n    /* \"#utility.yul\":8673:8696   */\n  swap1\n  pop\n    /* \"#utility.yul\":8649:8698   */\ntag_169:\n    /* \"#utility.yul\":8711:8791   */\n  tag_170\n    /* \"#utility.yul\":8767:8789   */\n  tag_171\n    /* \"#utility.yul\":8785:8788   */\n  dup6\n    /* \"#utility.yul\":8767:8789   */\n  tag_54\n  jump\t// in\ntag_171:\n    /* \"#utility.yul\":8757:8765   */\n  dup4\n    /* \"#utility.yul\":8753:8790   */\n  add\n    /* \"#utility.yul\":8740:8751   */\n  dup3\n    /* \"#utility.yul\":8711:8791   */\n  tag_63\n  jump\t// in\ntag_170:\n    /* \"#utility.yul\":8370:8801   */\n  pop\n  pop\n    /* \"#utility.yul\":8355:8801   */\ntag_166:\n    /* \"#utility.yul\":8265:8808   */\n  pop\n  pop\n  pop\n  jump\t// out\n    /* \"#utility.yul\":8814:8931   */\ntag_65:\n    /* \"#utility.yul\":8868:8876   */\n  0x00\n    /* \"#utility.yul\":8918:8923   */\n  dup3\n    /* \"#utility.yul\":8912:8916   */\n  dup3\n    /* \"#utility.yul\":8908:8924   */\n  shr\n    /* \"#utility.yul\":8887:8924   */\n  swap1\n  pop\n    /* \"#utility.yul\":8814:8931   */\n  swap3\n  swap2\n  pop\n  pop\n  jump\t// out\n    /* \"#utility.yul\":8937:9106   */\ntag_66:\n    /* \"#utility.yul\":8981:8987   */\n  0x00\n    /* \"#utility.yul\":9014:9065   */\n  tag_174\n    /* \"#utility.yul\":9062:9063   */\n  0x00\n    /* \"#utility.yul\":9058:9064   */\n  not\n    /* \"#utility.yul\":9050:9055   */\n  dup5\n    /* \"#utility.yul\":9047:9048   */\n  0x08\n    /* \"#utility.yul\":9043:9056   */\n  mul\n    /* \"#utility.yul\":9014:9065   */\n  tag_65\n  jump\t// in\ntag_174:\n    /* \"#utility.yul\":9010:9066   */\n  not\n    /* \"#utility.yul\":9095:9099   */\n  dup1\n    /* \"#utility.yul\":9089:9093   */\n  dup4\n    /* \"#utility.yul\":9085:9100   */\n  and\n    /* \"#utility.yul\":9075:9100   */\n  swap2\n  pop\n    /* \"#utility.yul\":8988:9106   */\n  pop\n    /* \"#utility.yul\":8937:9106   */\n  swap3\n  swap2\n  pop\n  pop\n  jump\t// out\n    /* \"#utility.yul\":9111:9406   */\ntag_67:\n    /* \"#utility.yul\":9187:9191   */\n  0x00\n    /* \"#utility.yul\":9333:9362   */\n  tag_176\n    /* \"#utility.yul\":9358:9361   */\n  dup4\n    /* \"#utility.yul\":9352:9356   */\n  dup4\n    /* \"#utility.yul\":9333:9362   */\n  tag_66\n  jump\t// in\ntag_176:\n    /* \"#utility.yul\":9325:9362   */\n  swap2\n  pop\n    /* \"#utility.yul\":9395:9398   */\n  dup3\n    /* \"#utility.yul\":9392:9393   */\n  0x02\n    /* \"#utility.yul\":9388:9399   */\n  mul\n    /* \"#utility.yul\":9382:9386   */\n  dup3\n    /* \"#utility.yul\":9379:9400   */\n  or\n    /* \"#utility.yul\":9371:9400   */\n  swap1\n  pop\n    /* \"#utility.yul\":9111:9406   */\n  swap3\n  swap2\n  pop\n  pop\n  jump\t// out\n    /* \"#utility.yul\":9411:10806   */\ntag_7:\n    /* \"#utility.yul\":9528:9565   */\n  tag_178\n    /* \"#utility.yul\":9561:9564   */\n  dup3\n    /* \"#utility.yul\":9528:9565   */\n  tag_51\n  jump\t// in\ntag_178:\n    /* \"#utility.yul\":9630:9648   */\n  0xffffffffffffffff\n    /* \"#utility.yul\":9622:9628   */\n  dup2\n    /* \"#utility.yul\":9619:9649   */\n  gt\n    /* \"#utility.yul\":9616:9672   */\n  iszero\n  tag_179\n  jumpi\n    /* \"#utility.yul\":9652:9670   */\n  tag_180\n  tag_37\n  jump\t// in\ntag_180:\n    /* \"#utility.yul\":9616:9672   */\ntag_179:\n    /* \"#utility.yul\":9696:9734   */\n  tag_181\n    /* \"#utility.yul\":9728:9732   */\n  dup3\n    /* \"#utility.yul\":9722:9733   */\n  sload\n    /* \"#utility.yul\":9696:9734   */\n  tag_24\n  jump\t// in\ntag_181:\n    /* \"#utility.yul\":9781:9848   */\n  tag_182\n    /* \"#utility.yul\":9841:9847   */\n  dup3\n    /* \"#utility.yul\":9833:9839   */\n  dup3\n    /* \"#utility.yul\":9827:9831   */\n  dup6\n    /* \"#utility.yul\":9781:9848   */\n  tag_64\n  jump\t// in\ntag_182:\n    /* \"#utility.yul\":9875:9876   */\n  0x00\n    /* \"#utility.yul\":9899:9903   */\n  0x20\n    /* \"#utility.yul\":9886:9903   */\n  swap1\n  pop\n    /* \"#utility.yul\":9931:9933   */\n  0x1f\n    /* \"#utility.yul\":9923:9929   */\n  dup4\n    /* \"#utility.yul\":9920:9934   */\n  gt\n    /* \"#utility.yul\":9948:9949   */\n  0x01\n    /* \"#utility.yul\":9943:10561   */\n  dup2\n  eq\n  tag_184\n  jumpi\n    /* \"#utility.yul\":10605:10606   */\n  0x00\n    /* \"#utility.yul\":10622:10628   */\n  dup5\n    /* \"#utility.yul\":10619:10696   */\n  iszero\n  tag_185\n  jumpi\n    /* \"#utility.yul\":10671:10680   */\n  dup3\n    /* \"#utility.yul\":10666:10669   */\n  dup8\n    /* \"#utility.yul\":10662:10681   */\n  add\n    /* \"#utility.yul\":10656:10682   */\n  mload\n    /* \"#utility.yul\":10647:10682   */\n  swap1\n  pop\n    /* \"#utility.yul\":10619:10696   */\ntag_185:\n    /* \"#utility.yul\":10722:10789   */\n  tag_186\n    /* \"#utility.yul\":10782:10788   */\n  dup6\n    /* \"#utility.yul\":10775:10780   */\n  dup3\n    /* \"#utility.yul\":10722:10789   */\n  tag_67\n  jump\t// in\ntag_186:\n    /* \"#utility.yul\":10716:10720   */\n  dup7\n    /* \"#utility.yul\":10709:10790   */\n  sstore\n    /* \"#utility.yul\":10578:10800   */\n  pop\n    /* \"#utility.yul\":9913:10800   */\n  jump(tag_183)\n    /* \"#utility.yul\":9943:10561   */\ntag_184:\n    /* \"#utility.yul\":9995:9999   */\n  0x1f\n    /* \"#utility.yul\":9991:10000   */\n  not\n    /* \"#utility.yul\":9983:9989   */\n  dup5\n    /* \"#utility.yul\":9979:10001   */\n  and\n    /* \"#utility.yul\":10029:10066   */\n  tag_187\n    /* \"#utility.yul\":10061:10065   */\n  dup7\n    /* \"#utility.yul\":10029:10066   */\n  tag_53\n  jump\t// in\ntag_187:\n    /* \"#utility.yul\":10088:10089   */\n  0x00\n    /* \"#utility.yul\":10102:10310   */\ntag_188:\n    /* \"#utility.yul\":10116:10123   */\n  dup3\n    /* \"#utility.yul\":10113:10114   */\n  dup2\n    /* \"#utility.yul\":10110:10124   */\n  lt\n    /* \"#utility.yul\":10102:10310   */\n  iszero\n  tag_190\n  jumpi\n    /* \"#utility.yul\":10195:10204   */\n  dup5\n    /* \"#utility.yul\":10190:10193   */\n  dup10\n    /* \"#utility.yul\":10186:10205   */\n  add\n    /* \"#utility.yul\":10180:10206   */\n  mload\n    /* \"#utility.yul\":10172:10178   */\n  dup3\n    /* \"#utility.yul\":10165:10207   */\n  sstore\n    /* \"#utility.yul\":10246:10247   */\n  0x01\n    /* \"#utility.yul\":10238:10244   */\n  dup3\n    /* \"#utility.yul\":10234:10248   */\n  add\n    /* \"#utility.yul\":10224:10248   */\n  swap2\n  pop\n    /* \"#utility.yul\":10293:10295   */\n  0x20\n    /* \"#utility.yul\":10282:10291   */\n  dup6\n    /* \"#utility.yul\":10278:10296   */\n  add\n    /* \"#utility.yul\":10265:10296   */\n  swap5\n  pop\n    /* \"#utility.yul\":10139:10143   */\n  0x20\n    /* \"#utility.yul\":10136:10137   */\n  dup2\n    /* \"#utility.yul\":10132:10144   */\n  add\n    /* \"#utility.yul\":10127:10144   */\n  swap1\n  pop\n    /* \"#utility.yul\":10102:10310   */\n  jump(tag_188)\ntag_190:\n    /* \"#utility.yul\":10338:10344   */\n  dup7\n    /* \"#utility.yul\":10329:10336   */\n  dup4\n    /* \"#utility.yul\":10326:10345   */\n  lt\n    /* \"#utility.yul\":10323:10502   */\n  iszero\n  tag_191\n  jumpi\n    /* \"#utility.yul\":10396:10405   */\n  dup5\n    /* \"#utility.yul\":10391:10394   */\n  dup10\n    /* \"#utility.yul\":10387:10406   */\n  add\n    /* \"#utility.yul\":10381:10407   */\n  mload\n    /* \"#utility.yul\":10439:10487   */\n  tag_192\n    /* \"#utility.yul\":10481:10485   */\n  0x1f\n    /* \"#utility.yul\":10473:10479   */\n  dup10\n    /* \"#utility.yul\":10469:10486   */\n  and\n    /* \"#utility.yul\":10458:10467   */\n  dup3\n    /* \"#utility.yul\":10439:10487   */\n  tag_66\n  jump\t// in\ntag_192:\n    /* \"#utility.yul\":10431:10437   */\n  dup4\n    /* \"#utility.yul\":10424:10488   */\n  sstore\n    /* \"#utility.yul\":10346:10502   */\n  pop\n    /* \"#utility.yul\":10323:10502   */\ntag_191:\n    /* \"#utility.yul\":10548:10549   */\n  0x01\n    /* \"#utility.yul\":10544:10545   */\n  0x02\n    /* \"#utility.yul\":10536:10542   */\n  dup9\n    /* \"#utility.yul\":10532:10546   */\n  mul\n    /* \"#utility.yul\":10528:10550   */\n  add\n    /* \"#utility.yul\":10522:10526   */\n  dup9\n    /* \"#utility.yul\":10515:10551   */\n  sstore\n    /* \"#utility.yul\":9950:10561   */\n  pop\n  pop\n  pop\n    /* \"#utility.yul\":9913:10800   */\ntag_183:\n  pop\n    /* \"#utility.yul\":9503:10806   */\n  pop\n  pop\n  pop\n    /* \"#utility.yul\":9411:10806   */\n  pop\n  pop\n  jump\t// out\n    /* \"#utility.yul\":10812:10992   */\ntag_68:\n    /* \"#utility.yul\":10860:10937   */\n  0x4e487b7100000000000000000000000000000000000000000000000000000000\n    /* \"#utility.yul\":10857:10858   */\n  0x00\n    /* \"#utility.yul\":10850:10938   */\n  mstore\n    /* \"#utility.yul\":10957:10961   */\n  0x11\n    /* \"#utility.yul\":10954:10955   */\n  0x04\n    /* \"#utility.yul\":10947:10962   */\n  mstore\n    /* \"#utility.yul\":10981:10985   */\n  0x24\n    /* \"#utility.yul\":10978:10979   */\n  0x00\n    /* \"#utility.yul\":10971:10986   */\n  revert\n    /* \"#utility.yul\":10998:11189   */\ntag_11:\n    /* \"#utility.yul\":11038:11041   */\n  0x00\n    /* \"#utility.yul\":11057:11077   */\n  tag_195\n    /* \"#utility.yul\":11075:11076   */\n  dup3\n    /* \"#utility.yul\":11057:11077   */\n  tag_48\n  jump\t// in\ntag_195:\n    /* \"#utility.yul\":11052:11077   */\n  swap2\n  pop\n    /* \"#utility.yul\":11091:11111   */\n  tag_196\n    /* \"#utility.yul\":11109:11110   */\n  dup4\n    /* \"#utility.yul\":11091:11111   */\n  tag_48\n  jump\t// in\ntag_196:\n    /* \"#utility.yul\":11086:11111   */\n  swap3\n  pop\n    /* \"#utility.yul\":11134:11135   */\n  dup3\n    /* \"#utility.yul\":11131:11132   */\n  dup3\n    /* \"#utility.yul\":11127:11136   */\n  add\n    /* \"#utility.yul\":11120:11136   */\n  swap1\n  pop\n    /* \"#utility.yul\":11155:11158   */\n  dup1\n    /* \"#utility.yul\":11152:11153   */\n  dup3\n    /* \"#utility.yul\":11149:11159   */\n  gt\n    /* \"#utility.yul\":11146:11182   */\n  iszero\n  tag_197\n  jumpi\n    /* \"#utility.yul\":11162:11180   */\n  tag_198\n  tag_68\n  jump\t// in\ntag_198:\n    /* \"#utility.yul\":11146:11182   */\ntag_197:\n    /* \"#utility.yul\":10998:11189   */\n  swap3\n  swap2\n  pop\n  pop\n  jump\t// out\n    /* \"grupal/test.sol\":117:2281  contract DecentralizedVoting {... */\ntag_12:\n  dataSize(sub_0)\n  dup1\n  dataOffset(sub_0)\n  0x00\n  codecopy\n  0x00\n  return\nstop\n\nsub_0: assembly {\n        /* \"grupal/test.sol\":117:2281  contract DecentralizedVoting {... */\n      mstore(0x40, 0x80)\n      callvalue\n      dup1\n      iszero\n      tag_1\n      jumpi\n      0x00\n      dup1\n      revert\n    tag_1:\n      pop\n      jumpi(tag_2, lt(calldatasize, 0x04))\n      shr(0xe0, calldataload(0x00))\n      dup1\n      0x8da5cb5b\n      gt\n      tag_12\n      jumpi\n      dup1\n      0x8da5cb5b\n      eq\n      tag_7\n      jumpi\n      dup1\n      0xb99ef1fa\n      eq\n      tag_8\n      jumpi\n      dup1\n      0xbf63a577\n      eq\n      tag_9\n      jumpi\n      dup1\n      0xc3403ddf\n      eq\n      tag_10\n      jumpi\n      dup1\n      0xfc36e15b\n      eq\n      tag_11\n      jumpi\n      jump(tag_2)\n    tag_12:\n      dup1\n      0x036ee850\n      eq\n      tag_3\n      jumpi\n      dup1\n      0x09eef43e\n      eq\n      tag_4\n      jumpi\n      dup1\n      0x2479ecb8\n      eq\n      tag_5\n      jumpi\n      dup1\n      0x3477ee2e\n      eq\n      tag_6\n      jumpi\n    tag_2:\n      0x00\n      dup1\n      revert\n        /* \"grupal/test.sol\":206:232  uint public votingDeadline */\n    tag_3:\n      tag_13\n      tag_14\n      jump\t// in\n    tag_13:\n      mload(0x40)\n      tag_15\n      swap2\n      swap1\n      tag_16\n      jump\t// in\n    tag_15:\n      mload(0x40)\n      dup1\n      swap2\n      sub\n      swap1\n      return\n        /* \"grupal/test.sol\":239:279  mapping(address => bool) public hasVoted */\n    tag_4:\n      tag_17\n      0x04\n      dup1\n      calldatasize\n      sub\n      dup2\n      add\n      swap1\n      tag_18\n      swap2\n      swap1\n      tag_19\n      jump\t// in\n    tag_18:\n      tag_20\n      jump\t// in\n    tag_17:\n      mload(0x40)\n      tag_21\n      swap2\n      swap1\n      tag_22\n      jump\t// in\n    tag_21:\n      mload(0x40)\n      dup1\n      swap2\n      sub\n      swap1\n      return\n        /* \"grupal/test.sol\":362:386  bool public votingClosed */\n    tag_5:\n      tag_23\n      tag_24\n      jump\t// in\n    tag_23:\n      mload(0x40)\n      tag_25\n      swap2\n      swap1\n      tag_22\n      jump\t// in\n    tag_25:\n      mload(0x40)\n      dup1\n      swap2\n      sub\n      swap1\n      return\n        /* \"grupal/test.sol\":329:355  string[] public candidates */\n    tag_6:\n      tag_26\n      0x04\n      dup1\n      calldatasize\n      sub\n      dup2\n      add\n      swap1\n      tag_27\n      swap2\n      swap1\n      tag_28\n      jump\t// in\n    tag_27:\n      tag_29\n      jump\t// in\n    tag_26:\n      mload(0x40)\n      tag_30\n      swap2\n      swap1\n      tag_31\n      jump\t// in\n    tag_30:\n      mload(0x40)\n      dup1\n      swap2\n      sub\n      swap1\n      return\n        /* \"grupal/test.sol\":153:173  address public owner */\n    tag_7:\n      tag_32\n      tag_33\n      jump\t// in\n    tag_32:\n      mload(0x40)\n      tag_34\n      swap2\n      swap1\n      tag_35\n      jump\t// in\n    tag_34:\n      mload(0x40)\n      dup1\n      swap2\n      sub\n      swap1\n      return\n        /* \"grupal/test.sol\":286:322  mapping(string => uint) public votes */\n    tag_8:\n      tag_36\n      0x04\n      dup1\n      calldatasize\n      sub\n      dup2\n      add\n      swap1\n      tag_37\n      swap2\n      swap1\n      tag_38\n      jump\t// in\n    tag_37:\n      tag_39\n      jump\t// in\n    tag_36:\n      mload(0x40)\n      tag_40\n      swap2\n      swap1\n      tag_16\n      jump\t// in\n    tag_40:\n      mload(0x40)\n      dup1\n      swap2\n      sub\n      swap1\n      return\n        /* \"grupal/test.sol\":180:199  string public topic */\n    tag_9:\n      tag_41\n      tag_42\n      jump\t// in\n    tag_41:\n      mload(0x40)\n      tag_43\n      swap2\n      swap1\n      tag_31\n      jump\t// in\n    tag_43:\n      mload(0x40)\n      dup1\n      swap2\n      sub\n      swap1\n      return\n        /* \"grupal/test.sol\":1712:2278  function endVoting() public onlyOwner {... */\n    tag_10:\n      tag_44\n      tag_45\n      jump\t// in\n    tag_44:\n      stop\n        /* \"grupal/test.sol\":1034:1704  function vote(string memory candidate) public beforeDeadline {... */\n    tag_11:\n      tag_46\n      0x04\n      dup1\n      calldatasize\n      sub\n      dup2\n      add\n      swap1\n      tag_47\n      swap2\n      swap1\n      tag_38\n      jump\t// in\n    tag_47:\n      tag_48\n      jump\t// in\n    tag_46:\n      stop\n        /* \"grupal/test.sol\":206:232  uint public votingDeadline */\n    tag_14:\n      sload(0x02)\n      dup2\n      jump\t// out\n        /* \"grupal/test.sol\":239:279  mapping(address => bool) public hasVoted */\n    tag_20:\n      mstore(0x20, 0x03)\n      dup1\n      0x00\n      mstore\n      keccak256(0x00, 0x40)\n      0x00\n      swap2\n      pop\n      sload\n      swap1\n      0x0100\n      exp\n      swap1\n      div\n      0xff\n      and\n      dup2\n      jump\t// out\n        /* \"grupal/test.sol\":362:386  bool public votingClosed */\n    tag_24:\n      0x06\n      0x00\n      swap1\n      sload\n      swap1\n      0x0100\n      exp\n      swap1\n      div\n      0xff\n      and\n      dup2\n      jump\t// out\n        /* \"grupal/test.sol\":329:355  string[] public candidates */\n    tag_29:\n      0x05\n      dup2\n      dup2\n      sload\n      dup2\n      lt\n      tag_49\n      jumpi\n      0x00\n      dup1\n      revert\n    tag_49:\n      swap1\n      0x00\n      mstore\n      keccak256(0x00, 0x20)\n      add\n      0x00\n      swap2\n      pop\n      swap1\n      pop\n      dup1\n      sload\n      tag_51\n      swap1\n      tag_52\n      jump\t// in\n    tag_51:\n      dup1\n      0x1f\n      add\n      0x20\n      dup1\n      swap2\n      div\n      mul\n      0x20\n      add\n      mload(0x40)\n      swap1\n      dup2\n      add\n      0x40\n      mstore\n      dup1\n      swap3\n      swap2\n      swap1\n      dup2\n      dup2\n      mstore\n      0x20\n      add\n      dup3\n      dup1\n      sload\n      tag_53\n      swap1\n      tag_52\n      jump\t// in\n    tag_53:\n      dup1\n      iszero\n      tag_54\n      jumpi\n      dup1\n      0x1f\n      lt\n      tag_55\n      jumpi\n      0x0100\n      dup1\n      dup4\n      sload\n      div\n      mul\n      dup4\n      mstore\n      swap2\n      0x20\n      add\n      swap2\n      jump(tag_54)\n    tag_55:\n      dup3\n      add\n      swap2\n      swap1\n      0x00\n      mstore\n      keccak256(0x00, 0x20)\n      swap1\n    tag_56:\n      dup2\n      sload\n      dup2\n      mstore\n      swap1\n      0x01\n      add\n      swap1\n      0x20\n      add\n      dup1\n      dup4\n      gt\n      tag_56\n      jumpi\n      dup3\n      swap1\n      sub\n      0x1f\n      and\n      dup3\n      add\n      swap2\n    tag_54:\n      pop\n      pop\n      pop\n      pop\n      pop\n      dup2\n      jump\t// out\n        /* \"grupal/test.sol\":153:173  address public owner */\n    tag_33:\n      0x00\n      dup1\n      sload\n      swap1\n      0x0100\n      exp\n      swap1\n      div\n      0xffffffffffffffffffffffffffffffffffffffff\n      and\n      dup2\n      jump\t// out\n        /* \"grupal/test.sol\":286:322  mapping(string => uint) public votes */\n    tag_39:\n      0x04\n      dup2\n      dup1\n      mload\n      0x20\n      dup2\n      add\n      dup3\n      add\n      dup1\n      mload\n      dup5\n      dup3\n      mstore\n      0x20\n      dup4\n      add\n      0x20\n      dup6\n      add\n      keccak256\n      dup2\n      dup4\n      mstore\n      dup1\n      swap6\n      pop\n      pop\n      pop\n      pop\n      pop\n      pop\n      0x00\n      swap2\n      pop\n      swap1\n      pop\n      sload\n      dup2\n      jump\t// out\n        /* \"grupal/test.sol\":180:199  string public topic */\n    tag_42:\n      0x01\n      dup1\n      sload\n      tag_57\n      swap1\n      tag_52\n      jump\t// in\n    tag_57:\n      dup1\n      0x1f\n      add\n      0x20\n      dup1\n      swap2\n      div\n      mul\n      0x20\n      add\n      mload(0x40)\n      swap1\n      dup2\n      add\n      0x40\n      mstore\n      dup1\n      swap3\n      swap2\n      swap1\n      dup2\n      dup2\n      mstore\n      0x20\n      add\n      dup3\n      dup1\n      sload\n      tag_58\n      swap1\n      tag_52\n      jump\t// in\n    tag_58:\n      dup1\n      iszero\n      tag_59\n      jumpi\n      dup1\n      0x1f\n      lt\n      tag_60\n      jumpi\n      0x0100\n      dup1\n      dup4\n      sload\n      div\n      mul\n      dup4\n      mstore\n      swap2\n      0x20\n      add\n      swap2\n      jump(tag_59)\n    tag_60:\n      dup3\n      add\n      swap2\n      swap1\n      0x00\n      mstore\n      keccak256(0x00, 0x20)\n      swap1\n    tag_61:\n      dup2\n      sload\n      dup2\n      mstore\n      swap1\n      0x01\n      add\n      swap1\n      0x20\n      add\n      dup1\n      dup4\n      gt\n      tag_61\n      jumpi\n      dup3\n      swap1\n      sub\n      0x1f\n      and\n      dup3\n      add\n      swap2\n    tag_59:\n      pop\n      pop\n      pop\n      pop\n      pop\n      dup2\n      jump\t// out\n        /* \"grupal/test.sol\":1712:2278  function endVoting() public onlyOwner {... */\n    tag_45:\n        /* \"grupal/test.sol\":556:561  owner */\n      0x00\n      dup1\n      sload\n      swap1\n      0x0100\n      exp\n      swap1\n      div\n      0xffffffffffffffffffffffffffffffffffffffff\n      and\n        /* \"grupal/test.sol\":542:561  msg.sender == owner */\n      0xffffffffffffffffffffffffffffffffffffffff\n      and\n        /* \"grupal/test.sol\":542:552  msg.sender */\n      caller\n        /* \"grupal/test.sol\":542:561  msg.sender == owner */\n      0xffffffffffffffffffffffffffffffffffffffff\n      and\n      eq\n        /* \"grupal/test.sol\":534:591  require(msg.sender == owner, \"Only owner can call this.\") */\n      tag_63\n      jumpi\n      mload(0x40)\n      0x08c379a000000000000000000000000000000000000000000000000000000000\n      dup2\n      mstore\n      0x04\n      add\n      tag_64\n      swap1\n      tag_65\n      jump\t// in\n    tag_64:\n      mload(0x40)\n      dup1\n      swap2\n      sub\n      swap1\n      revert\n    tag_63:\n        /* \"grupal/test.sol\":1787:1801  votingDeadline */\n      sload(0x02)\n        /* \"grupal/test.sol\":1769:1784  block.timestamp */\n      timestamp\n        /* \"grupal/test.sol\":1769:1801  block.timestamp > votingDeadline */\n      gt\n        /* \"grupal/test.sol\":1761:1833  require(block.timestamp > votingDeadline, \"Voting period still active.\") */\n      tag_67\n      jumpi\n      mload(0x40)\n      0x08c379a000000000000000000000000000000000000000000000000000000000\n      dup2\n      mstore\n      0x04\n      add\n      tag_68\n      swap1\n      tag_69\n      jump\t// in\n    tag_68:\n      mload(0x40)\n      dup1\n      swap2\n      sub\n      swap1\n      revert\n    tag_67:\n        /* \"grupal/test.sol\":1853:1865  votingClosed */\n      0x06\n      0x00\n      swap1\n      sload\n      swap1\n      0x0100\n      exp\n      swap1\n      div\n      0xff\n      and\n        /* \"grupal/test.sol\":1852:1865  !votingClosed */\n      iszero\n        /* \"grupal/test.sol\":1844:1891  require(!votingClosed, \"Voting already ended.\") */\n      tag_70\n      jumpi\n      mload(0x40)\n      0x08c379a000000000000000000000000000000000000000000000000000000000\n      dup2\n      mstore\n      0x04\n      add\n      tag_71\n      swap1\n      tag_72\n      jump\t// in\n    tag_71:\n      mload(0x40)\n      dup1\n      swap2\n      sub\n      swap1\n      revert\n    tag_70:\n        /* \"grupal/test.sol\":1904:1924  string memory winner */\n      0x60\n        /* \"grupal/test.sol\":1935:1952  uint highestVotes */\n      0x00\n        /* \"grupal/test.sol\":1974:1980  uint i */\n      dup1\n        /* \"grupal/test.sol\":1969:2192  for (uint i = 0; i < candidates.length; i++) {... */\n    tag_73:\n        /* \"grupal/test.sol\":1990:2000  candidates */\n      0x05\n        /* \"grupal/test.sol\":1990:2007  candidates.length */\n      dup1\n      sload\n      swap1\n      pop\n        /* \"grupal/test.sol\":1986:1987  i */\n      dup2\n        /* \"grupal/test.sol\":1986:2007  i < candidates.length */\n      lt\n        /* \"grupal/test.sol\":1969:2192  for (uint i = 0; i < candidates.length; i++) {... */\n      iszero\n      tag_74\n      jumpi\n        /* \"grupal/test.sol\":2056:2068  highestVotes */\n      dup2\n        /* \"grupal/test.sol\":2033:2038  votes */\n      0x04\n        /* \"grupal/test.sol\":2039:2049  candidates */\n      0x05\n        /* \"grupal/test.sol\":2050:2051  i */\n      dup4\n        /* \"grupal/test.sol\":2039:2052  candidates[i] */\n      dup2\n      sload\n      dup2\n      lt\n      tag_76\n      jumpi\n      tag_77\n      tag_78\n      jump\t// in\n    tag_77:\n    tag_76:\n      swap1\n      0x00\n      mstore\n      keccak256(0x00, 0x20)\n      add\n        /* \"grupal/test.sol\":2033:2053  votes[candidates[i]] */\n      mload(0x40)\n      tag_80\n      swap2\n      swap1\n      tag_81\n      jump\t// in\n    tag_80:\n      swap1\n      dup2\n      mstore\n      0x20\n      add\n      mload(0x40)\n      dup1\n      swap2\n      sub\n      swap1\n      keccak256\n      sload\n        /* \"grupal/test.sol\":2033:2068  votes[candidates[i]] > highestVotes */\n      gt\n        /* \"grupal/test.sol\":2029:2181  if (votes[candidates[i]] > highestVotes) {... */\n      iszero\n      tag_82\n      jumpi\n        /* \"grupal/test.sol\":2104:2109  votes */\n      0x04\n        /* \"grupal/test.sol\":2110:2120  candidates */\n      0x05\n        /* \"grupal/test.sol\":2121:2122  i */\n      dup3\n        /* \"grupal/test.sol\":2110:2123  candidates[i] */\n      dup2\n      sload\n      dup2\n      lt\n      tag_83\n      jumpi\n      tag_84\n      tag_78\n      jump\t// in\n    tag_84:\n    tag_83:\n      swap1\n      0x00\n      mstore\n      keccak256(0x00, 0x20)\n      add\n        /* \"grupal/test.sol\":2104:2124  votes[candidates[i]] */\n      mload(0x40)\n      tag_86\n      swap2\n      swap1\n      tag_81\n      jump\t// in\n    tag_86:\n      swap1\n      dup2\n      mstore\n      0x20\n      add\n      mload(0x40)\n      dup1\n      swap2\n      sub\n      swap1\n      keccak256\n      sload\n        /* \"grupal/test.sol\":2089:2124  highestVotes = votes[candidates[i]] */\n      swap2\n      pop\n        /* \"grupal/test.sol\":2152:2162  candidates */\n      0x05\n        /* \"grupal/test.sol\":2163:2164  i */\n      dup2\n        /* \"grupal/test.sol\":2152:2165  candidates[i] */\n      dup2\n      sload\n      dup2\n      lt\n      tag_87\n      jumpi\n      tag_88\n      tag_78\n      jump\t// in\n    tag_88:\n    tag_87:\n      swap1\n      0x00\n      mstore\n      keccak256(0x00, 0x20)\n      add\n        /* \"grupal/test.sol\":2143:2165  winner = candidates[i] */\n      dup1\n      sload\n      tag_90\n      swap1\n      tag_52\n      jump\t// in\n    tag_90:\n      dup1\n      0x1f\n      add\n      0x20\n      dup1\n      swap2\n      div\n      mul\n      0x20\n      add\n      mload(0x40)\n      swap1\n      dup2\n      add\n      0x40\n      mstore\n      dup1\n      swap3\n      swap2\n      swap1\n      dup2\n      dup2\n      mstore\n      0x20\n      add\n      dup3\n      dup1\n      sload\n      tag_91\n      swap1\n      tag_52\n      jump\t// in\n    tag_91:\n      dup1\n      iszero\n      tag_92\n      jumpi\n      dup1\n      0x1f\n      lt\n      tag_93\n      jumpi\n      0x0100\n      dup1\n      dup4\n      sload\n      div\n      mul\n      dup4\n      mstore\n      swap2\n      0x20\n      add\n      swap2\n      jump(tag_92)\n    tag_93:\n      dup3\n      add\n      swap2\n      swap1\n      0x00\n      mstore\n      keccak256(0x00, 0x20)\n      swap1\n    tag_94:\n      dup2\n      sload\n      dup2\n      mstore\n      swap1\n      0x01\n      add\n      swap1\n      0x20\n      add\n      dup1\n      dup4\n      gt\n      tag_94\n      jumpi\n      dup3\n      swap1\n      sub\n      0x1f\n      and\n      dup3\n      add\n      swap2\n    tag_92:\n      pop\n      pop\n      pop\n      pop\n      pop\n      swap3\n      pop\n        /* \"grupal/test.sol\":2029:2181  if (votes[candidates[i]] > highestVotes) {... */\n    tag_82:\n        /* \"grupal/test.sol\":2009:2012  i++ */\n      dup1\n      dup1\n      0x01\n      add\n      swap2\n      pop\n      pop\n        /* \"grupal/test.sol\":1969:2192  for (uint i = 0; i < candidates.length; i++) {... */\n      jump(tag_73)\n    tag_74:\n      pop\n        /* \"grupal/test.sol\":2227:2231  true */\n      0x01\n        /* \"grupal/test.sol\":2212:2224  votingClosed */\n      0x06\n      0x00\n        /* \"grupal/test.sol\":2212:2231  votingClosed = true */\n      0x0100\n      exp\n      dup2\n      sload\n      dup2\n      0xff\n      mul\n      not\n      and\n      swap1\n      dup4\n      iszero\n      iszero\n      mul\n      or\n      swap1\n      sstore\n      pop\n        /* \"grupal/test.sol\":2247:2270  VotingCompleted(winner) */\n      0x3230e72ef07adc105de93ad791b887e1aff8d7d710b98494ad2b0d8d25e4a56c\n        /* \"grupal/test.sol\":2263:2269  winner */\n      dup3\n        /* \"grupal/test.sol\":2247:2270  VotingCompleted(winner) */\n      mload(0x40)\n      tag_95\n      swap2\n      swap1\n      tag_31\n      jump\t// in\n    tag_95:\n      mload(0x40)\n      dup1\n      swap2\n      sub\n      swap1\n      log1\n        /* \"grupal/test.sol\":1750:2278  {... */\n      pop\n      pop\n        /* \"grupal/test.sol\":1712:2278  function endVoting() public onlyOwner {... */\n      jump\t// out\n        /* \"grupal/test.sol\":1034:1704  function vote(string memory candidate) public beforeDeadline {... */\n    tag_48:\n        /* \"grupal/test.sol\":683:697  votingDeadline */\n      sload(0x02)\n        /* \"grupal/test.sol\":664:679  block.timestamp */\n      timestamp\n        /* \"grupal/test.sol\":664:697  block.timestamp <= votingDeadline */\n      gt\n      iszero\n        /* \"grupal/test.sol\":656:724  require(block.timestamp <= votingDeadline, \"Voting period is over.\") */\n      tag_97\n      jumpi\n      mload(0x40)\n      0x08c379a000000000000000000000000000000000000000000000000000000000\n      dup2\n      mstore\n      0x04\n      add\n      tag_98\n      swap1\n      tag_99\n      jump\t// in\n    tag_98:\n      mload(0x40)\n      dup1\n      swap2\n      sub\n      swap1\n      revert\n    tag_97:\n        /* \"grupal/test.sol\":1115:1123  hasVoted */\n      0x03\n        /* \"grupal/test.sol\":1115:1135  hasVoted[msg.sender] */\n      0x00\n        /* \"grupal/test.sol\":1124:1134  msg.sender */\n      caller\n        /* \"grupal/test.sol\":1115:1135  hasVoted[msg.sender] */\n      0xffffffffffffffffffffffffffffffffffffffff\n      and\n      0xffffffffffffffffffffffffffffffffffffffff\n      and\n      dup2\n      mstore\n      0x20\n      add\n      swap1\n      dup2\n      mstore\n      0x20\n      add\n      0x00\n      keccak256\n      0x00\n      swap1\n      sload\n      swap1\n      0x0100\n      exp\n      swap1\n      div\n      0xff\n      and\n        /* \"grupal/test.sol\":1114:1135  !hasVoted[msg.sender] */\n      iszero\n        /* \"grupal/test.sol\":1106:1163  require(!hasVoted[msg.sender], \"You have already voted.\") */\n      tag_101\n      jumpi\n      mload(0x40)\n      0x08c379a000000000000000000000000000000000000000000000000000000000\n      dup2\n      mstore\n      0x04\n      add\n      tag_102\n      swap1\n      tag_103\n      jump\t// in\n    tag_102:\n      mload(0x40)\n      dup1\n      swap2\n      sub\n      swap1\n      revert\n    tag_101:\n        /* \"grupal/test.sol\":1183:1195  votingClosed */\n      0x06\n      0x00\n      swap1\n      sload\n      swap1\n      0x0100\n      exp\n      swap1\n      div\n      0xff\n      and\n        /* \"grupal/test.sol\":1182:1195  !votingClosed */\n      iszero\n        /* \"grupal/test.sol\":1174:1217  require(!votingClosed, \"Voting has ended.\") */\n      tag_104\n      jumpi\n      mload(0x40)\n      0x08c379a000000000000000000000000000000000000000000000000000000000\n      dup2\n      mstore\n      0x04\n      add\n      tag_105\n      swap1\n      tag_106\n      jump\t// in\n    tag_105:\n      mload(0x40)\n      dup1\n      swap2\n      sub\n      swap1\n      revert\n    tag_104:\n        /* \"grupal/test.sol\":1238:1259  bool isValidCandidate */\n      0x00\n        /* \"grupal/test.sol\":1283:1289  uint i */\n      dup1\n        /* \"grupal/test.sol\":1278:1521  for (uint i = 0; i < candidates.length; i++) {... */\n    tag_107:\n        /* \"grupal/test.sol\":1299:1309  candidates */\n      0x05\n        /* \"grupal/test.sol\":1299:1316  candidates.length */\n      dup1\n      sload\n      swap1\n      pop\n        /* \"grupal/test.sol\":1295:1296  i */\n      dup2\n        /* \"grupal/test.sol\":1295:1316  i < candidates.length */\n      lt\n        /* \"grupal/test.sol\":1278:1521  for (uint i = 0; i < candidates.length; i++) {... */\n      iszero\n      tag_108\n      jumpi\n        /* \"grupal/test.sol\":1415:1424  candidate */\n      dup3\n        /* \"grupal/test.sol\":1398:1425  abi.encodePacked(candidate) */\n      add(0x20, mload(0x40))\n      tag_110\n      swap2\n      swap1\n      tag_111\n      jump\t// in\n    tag_110:\n      mload(0x40)\n      0x20\n      dup2\n      dup4\n      sub\n      sub\n      dup2\n      mstore\n      swap1\n      0x40\n      mstore\n        /* \"grupal/test.sol\":1388:1426  keccak256(abi.encodePacked(candidate)) */\n      dup1\n      mload\n      swap1\n      0x20\n      add\n      keccak256\n        /* \"grupal/test.sol\":1369:1379  candidates */\n      0x05\n        /* \"grupal/test.sol\":1380:1381  i */\n      dup3\n        /* \"grupal/test.sol\":1369:1382  candidates[i] */\n      dup2\n      sload\n      dup2\n      lt\n      tag_112\n      jumpi\n      tag_113\n      tag_78\n      jump\t// in\n    tag_113:\n    tag_112:\n      swap1\n      0x00\n      mstore\n      keccak256(0x00, 0x20)\n      add\n        /* \"grupal/test.sol\":1352:1383  abi.encodePacked(candidates[i]) */\n      add(0x20, mload(0x40))\n      tag_115\n      swap2\n      swap1\n      tag_81\n      jump\t// in\n    tag_115:\n      mload(0x40)\n      0x20\n      dup2\n      dup4\n      sub\n      sub\n      dup2\n      mstore\n      swap1\n      0x40\n      mstore\n        /* \"grupal/test.sol\":1342:1384  keccak256(abi.encodePacked(candidates[i])) */\n      dup1\n      mload\n      swap1\n      0x20\n      add\n      keccak256\n        /* \"grupal/test.sol\":1342:1426  keccak256(abi.encodePacked(candidates[i])) == keccak256(abi.encodePacked(candidate)) */\n      sub\n        /* \"grupal/test.sol\":1338:1510  if (keccak256(abi.encodePacked(candidates[i])) == keccak256(abi.encodePacked(candidate))) {... */\n      tag_116\n      jumpi\n        /* \"grupal/test.sol\":1466:1470  true */\n      0x01\n        /* \"grupal/test.sol\":1447:1470  isValidCandidate = true */\n      swap2\n      pop\n        /* \"grupal/test.sol\":1489:1494  break */\n      jump(tag_108)\n        /* \"grupal/test.sol\":1338:1510  if (keccak256(abi.encodePacked(candidates[i])) == keccak256(abi.encodePacked(candidate))) {... */\n    tag_116:\n        /* \"grupal/test.sol\":1318:1321  i++ */\n      dup1\n      dup1\n      0x01\n      add\n      swap2\n      pop\n      pop\n        /* \"grupal/test.sol\":1278:1521  for (uint i = 0; i < candidates.length; i++) {... */\n      jump(tag_107)\n    tag_108:\n      pop\n        /* \"grupal/test.sol\":1539:1555  isValidCandidate */\n      dup1\n        /* \"grupal/test.sol\":1531:1578  require(isValidCandidate, \"Invalid candidate.\") */\n      tag_117\n      jumpi\n      mload(0x40)\n      0x08c379a000000000000000000000000000000000000000000000000000000000\n      dup2\n      mstore\n      0x04\n      add\n      tag_118\n      swap1\n      tag_119\n      jump\t// in\n    tag_118:\n      mload(0x40)\n      dup1\n      swap2\n      sub\n      swap1\n      revert\n    tag_117:\n        /* \"grupal/test.sol\":1591:1596  votes */\n      0x04\n        /* \"grupal/test.sol\":1597:1606  candidate */\n      dup3\n        /* \"grupal/test.sol\":1591:1607  votes[candidate] */\n      mload(0x40)\n      tag_120\n      swap2\n      swap1\n      tag_111\n      jump\t// in\n    tag_120:\n      swap1\n      dup2\n      mstore\n      0x20\n      add\n      mload(0x40)\n      dup1\n      swap2\n      sub\n      swap1\n      keccak256\n      0x00\n        /* \"grupal/test.sol\":1591:1609  votes[candidate]++ */\n      dup2\n      sload\n      dup1\n      swap3\n      swap2\n      swap1\n      tag_121\n      swap1\n      tag_122\n      jump\t// in\n    tag_121:\n      swap2\n      swap1\n      pop\n      sstore\n      pop\n        /* \"grupal/test.sol\":1643:1647  true */\n      0x01\n        /* \"grupal/test.sol\":1620:1628  hasVoted */\n      0x03\n        /* \"grupal/test.sol\":1620:1640  hasVoted[msg.sender] */\n      0x00\n        /* \"grupal/test.sol\":1629:1639  msg.sender */\n      caller\n        /* \"grupal/test.sol\":1620:1640  hasVoted[msg.sender] */\n      0xffffffffffffffffffffffffffffffffffffffff\n      and\n      0xffffffffffffffffffffffffffffffffffffffff\n      and\n      dup2\n      mstore\n      0x20\n      add\n      swap1\n      dup2\n      mstore\n      0x20\n      add\n      0x00\n      keccak256\n      0x00\n        /* \"grupal/test.sol\":1620:1647  hasVoted[msg.sender] = true */\n      0x0100\n      exp\n      dup2\n      sload\n      dup2\n      0xff\n      mul\n      not\n      and\n      swap1\n      dup4\n      iszero\n      iszero\n      mul\n      or\n      swap1\n      sstore\n      pop\n        /* \"grupal/test.sol\":1674:1684  msg.sender */\n      caller\n        /* \"grupal/test.sol\":1665:1696  VoteCast(msg.sender, candidate) */\n      0xffffffffffffffffffffffffffffffffffffffff\n      and\n      0x866dc605853954ffa419910eb05d67f430efec2e7db7ce135bf55565667a4ab4\n        /* \"grupal/test.sol\":1686:1695  candidate */\n      dup4\n        /* \"grupal/test.sol\":1665:1696  VoteCast(msg.sender, candidate) */\n      mload(0x40)\n      tag_123\n      swap2\n      swap1\n      tag_31\n      jump\t// in\n    tag_123:\n      mload(0x40)\n      dup1\n      swap2\n      sub\n      swap1\n      log2\n        /* \"grupal/test.sol\":1095:1704  {... */\n      pop\n        /* \"grupal/test.sol\":1034:1704  function vote(string memory candidate) public beforeDeadline {... */\n      pop\n      jump\t// out\n        /* \"#utility.yul\":7:84   */\n    tag_124:\n        /* \"#utility.yul\":44:51   */\n      0x00\n        /* \"#utility.yul\":73:78   */\n      dup2\n        /* \"#utility.yul\":62:78   */\n      swap1\n      pop\n        /* \"#utility.yul\":7:84   */\n      swap2\n      swap1\n      pop\n      jump\t// out\n        /* \"#utility.yul\":90:208   */\n    tag_125:\n        /* \"#utility.yul\":177:201   */\n      tag_175\n        /* \"#utility.yul\":195:200   */\n      dup2\n        /* \"#utility.yul\":177:201   */\n      tag_124\n      jump\t// in\n    tag_175:\n        /* \"#utility.yul\":172:175   */\n      dup3\n        /* \"#utility.yul\":165:202   */\n      mstore\n        /* \"#utility.yul\":90:208   */\n      pop\n      pop\n      jump\t// out\n        /* \"#utility.yul\":214:436   */\n    tag_16:\n        /* \"#utility.yul\":307:311   */\n      0x00\n        /* \"#utility.yul\":345:347   */\n      0x20\n        /* \"#utility.yul\":334:343   */\n      dup3\n        /* \"#utility.yul\":330:348   */\n      add\n        /* \"#utility.yul\":322:348   */\n      swap1\n      pop\n        /* \"#utility.yul\":358:429   */\n      tag_177\n        /* \"#utility.yul\":426:427   */\n      0x00\n        /* \"#utility.yul\":415:424   */\n      dup4\n        /* \"#utility.yul\":411:428   */\n      add\n        /* \"#utility.yul\":402:408   */\n      dup5\n        /* \"#utility.yul\":358:429   */\n      tag_125\n      jump\t// in\n    tag_177:\n        /* \"#utility.yul\":214:436   */\n      swap3\n      swap2\n      pop\n      pop\n      jump\t// out\n        /* \"#utility.yul\":442:517   */\n    tag_126:\n        /* \"#utility.yul\":475:481   */\n      0x00\n        /* \"#utility.yul\":508:510   */\n      0x40\n        /* \"#utility.yul\":502:511   */\n      mload\n        /* \"#utility.yul\":492:511   */\n      swap1\n      pop\n        /* \"#utility.yul\":442:517   */\n      swap1\n      jump\t// out\n        /* \"#utility.yul\":523:640   */\n    tag_127:\n        /* \"#utility.yul\":632:633   */\n      0x00\n        /* \"#utility.yul\":629:630   */\n      dup1\n        /* \"#utility.yul\":622:634   */\n      revert\n        /* \"#utility.yul\":646:763   */\n    tag_128:\n        /* \"#utility.yul\":755:756   */\n      0x00\n        /* \"#utility.yul\":752:753   */\n      dup1\n        /* \"#utility.yul\":745:757   */\n      revert\n        /* \"#utility.yul\":769:895   */\n    tag_129:\n        /* \"#utility.yul\":806:813   */\n      0x00\n        /* \"#utility.yul\":846:888   */\n      0xffffffffffffffffffffffffffffffffffffffff\n        /* \"#utility.yul\":839:844   */\n      dup3\n        /* \"#utility.yul\":835:889   */\n      and\n        /* \"#utility.yul\":824:889   */\n      swap1\n      pop\n        /* \"#utility.yul\":769:895   */\n      swap2\n      swap1\n      pop\n      jump\t// out\n        /* \"#utility.yul\":901:997   */\n    tag_130:\n        /* \"#utility.yul\":938:945   */\n      0x00\n        /* \"#utility.yul\":967:991   */\n      tag_183\n        /* \"#utility.yul\":985:990   */\n      dup3\n        /* \"#utility.yul\":967:991   */\n      tag_129\n      jump\t// in\n    tag_183:\n        /* \"#utility.yul\":956:991   */\n      swap1\n      pop\n        /* \"#utility.yul\":901:997   */\n      swap2\n      swap1\n      pop\n      jump\t// out\n        /* \"#utility.yul\":1003:1125   */\n    tag_131:\n        /* \"#utility.yul\":1076:1100   */\n      tag_185\n        /* \"#utility.yul\":1094:1099   */\n      dup2\n        /* \"#utility.yul\":1076:1100   */\n      tag_130\n      jump\t// in\n    tag_185:\n        /* \"#utility.yul\":1069:1074   */\n      dup2\n        /* \"#utility.yul\":1066:1101   */\n      eq\n        /* \"#utility.yul\":1056:1119   */\n      tag_186\n      jumpi\n        /* \"#utility.yul\":1115:1116   */\n      0x00\n        /* \"#utility.yul\":1112:1113   */\n      dup1\n        /* \"#utility.yul\":1105:1117   */\n      revert\n        /* \"#utility.yul\":1056:1119   */\n    tag_186:\n        /* \"#utility.yul\":1003:1125   */\n      pop\n      jump\t// out\n        /* \"#utility.yul\":1131:1270   */\n    tag_132:\n        /* \"#utility.yul\":1177:1182   */\n      0x00\n        /* \"#utility.yul\":1215:1221   */\n      dup2\n        /* \"#utility.yul\":1202:1222   */\n      calldataload\n        /* \"#utility.yul\":1193:1222   */\n      swap1\n      pop\n        /* \"#utility.yul\":1231:1264   */\n      tag_188\n        /* \"#utility.yul\":1258:1263   */\n      dup2\n        /* \"#utility.yul\":1231:1264   */\n      tag_131\n      jump\t// in\n    tag_188:\n        /* \"#utility.yul\":1131:1270   */\n      swap3\n      swap2\n      pop\n      pop\n      jump\t// out\n        /* \"#utility.yul\":1276:1605   */\n    tag_19:\n        /* \"#utility.yul\":1335:1341   */\n      0x00\n        /* \"#utility.yul\":1384:1386   */\n      0x20\n        /* \"#utility.yul\":1372:1381   */\n      dup3\n        /* \"#utility.yul\":1363:1370   */\n      dup5\n        /* \"#utility.yul\":1359:1382   */\n      sub\n        /* \"#utility.yul\":1355:1387   */\n      slt\n        /* \"#utility.yul\":1352:1471   */\n      iszero\n      tag_190\n      jumpi\n        /* \"#utility.yul\":1390:1469   */\n      tag_191\n      tag_127\n      jump\t// in\n    tag_191:\n        /* \"#utility.yul\":1352:1471   */\n    tag_190:\n        /* \"#utility.yul\":1510:1511   */\n      0x00\n        /* \"#utility.yul\":1535:1588   */\n      tag_192\n        /* \"#utility.yul\":1580:1587   */\n      dup5\n        /* \"#utility.yul\":1571:1577   */\n      dup3\n        /* \"#utility.yul\":1560:1569   */\n      dup6\n        /* \"#utility.yul\":1556:1578   */\n      add\n        /* \"#utility.yul\":1535:1588   */\n      tag_132\n      jump\t// in\n    tag_192:\n        /* \"#utility.yul\":1525:1588   */\n      swap2\n      pop\n        /* \"#utility.yul\":1481:1598   */\n      pop\n        /* \"#utility.yul\":1276:1605   */\n      swap3\n      swap2\n      pop\n      pop\n      jump\t// out\n        /* \"#utility.yul\":1611:1701   */\n    tag_133:\n        /* \"#utility.yul\":1645:1652   */\n      0x00\n        /* \"#utility.yul\":1688:1693   */\n      dup2\n        /* \"#utility.yul\":1681:1694   */\n      iszero\n        /* \"#utility.yul\":1674:1695   */\n      iszero\n        /* \"#utility.yul\":1663:1695   */\n      swap1\n      pop\n        /* \"#utility.yul\":1611:1701   */\n      swap2\n      swap1\n      pop\n      jump\t// out\n        /* \"#utility.yul\":1707:1816   */\n    tag_134:\n        /* \"#utility.yul\":1788:1809   */\n      tag_195\n        /* \"#utility.yul\":1803:1808   */\n      dup2\n        /* \"#utility.yul\":1788:1809   */\n      tag_133\n      jump\t// in\n    tag_195:\n        /* \"#utility.yul\":1783:1786   */\n      dup3\n        /* \"#utility.yul\":1776:1810   */\n      mstore\n        /* \"#utility.yul\":1707:1816   */\n      pop\n      pop\n      jump\t// out\n        /* \"#utility.yul\":1822:2032   */\n    tag_22:\n        /* \"#utility.yul\":1909:1913   */\n      0x00\n        /* \"#utility.yul\":1947:1949   */\n      0x20\n        /* \"#utility.yul\":1936:1945   */\n      dup3\n        /* \"#utility.yul\":1932:1950   */\n      add\n        /* \"#utility.yul\":1924:1950   */\n      swap1\n      pop\n        /* \"#utility.yul\":1960:2025   */\n      tag_197\n        /* \"#utility.yul\":2022:2023   */\n      0x00\n        /* \"#utility.yul\":2011:2020   */\n      dup4\n        /* \"#utility.yul\":2007:2024   */\n      add\n        /* \"#utility.yul\":1998:2004   */\n      dup5\n        /* \"#utility.yul\":1960:2025   */\n      tag_134\n      jump\t// in\n    tag_197:\n        /* \"#utility.yul\":1822:2032   */\n      swap3\n      swap2\n      pop\n      pop\n      jump\t// out\n        /* \"#utility.yul\":2038:2160   */\n    tag_135:\n        /* \"#utility.yul\":2111:2135   */\n      tag_199\n        /* \"#utility.yul\":2129:2134   */\n      dup2\n        /* \"#utility.yul\":2111:2135   */\n      tag_124\n      jump\t// in\n    tag_199:\n        /* \"#utility.yul\":2104:2109   */\n      dup2\n        /* \"#utility.yul\":2101:2136   */\n      eq\n        /* \"#utility.yul\":2091:2154   */\n      tag_200\n      jumpi\n        /* \"#utility.yul\":2150:2151   */\n      0x00\n        /* \"#utility.yul\":2147:2148   */\n      dup1\n        /* \"#utility.yul\":2140:2152   */\n      revert\n        /* \"#utility.yul\":2091:2154   */\n    tag_200:\n        /* \"#utility.yul\":2038:2160   */\n      pop\n      jump\t// out\n        /* \"#utility.yul\":2166:2305   */\n    tag_136:\n        /* \"#utility.yul\":2212:2217   */\n      0x00\n        /* \"#utility.yul\":2250:2256   */\n      dup2\n        /* \"#utility.yul\":2237:2257   */\n      calldataload\n        /* \"#utility.yul\":2228:2257   */\n      swap1\n      pop\n        /* \"#utility.yul\":2266:2299   */\n      tag_202\n        /* \"#utility.yul\":2293:2298   */\n      dup2\n        /* \"#utility.yul\":2266:2299   */\n      tag_135\n      jump\t// in\n    tag_202:\n        /* \"#utility.yul\":2166:2305   */\n      swap3\n      swap2\n      pop\n      pop\n      jump\t// out\n        /* \"#utility.yul\":2311:2640   */\n    tag_28:\n        /* \"#utility.yul\":2370:2376   */\n      0x00\n        /* \"#utility.yul\":2419:2421   */\n      0x20\n        /* \"#utility.yul\":2407:2416   */\n      dup3\n        /* \"#utility.yul\":2398:2405   */\n      dup5\n        /* \"#utility.yul\":2394:2417   */\n      sub\n        /* \"#utility.yul\":2390:2422   */\n      slt\n        /* \"#utility.yul\":2387:2506   */\n      iszero\n      tag_204\n      jumpi\n        /* \"#utility.yul\":2425:2504   */\n      tag_205\n      tag_127\n      jump\t// in\n    tag_205:\n        /* \"#utility.yul\":2387:2506   */\n    tag_204:\n        /* \"#utility.yul\":2545:2546   */\n      0x00\n        /* \"#utility.yul\":2570:2623   */\n      tag_206\n        /* \"#utility.yul\":2615:2622   */\n      dup5\n        /* \"#utility.yul\":2606:2612   */\n      dup3\n        /* \"#utility.yul\":2595:2604   */\n      dup6\n        /* \"#utility.yul\":2591:2613   */\n      add\n        /* \"#utility.yul\":2570:2623   */\n      tag_136\n      jump\t// in\n    tag_206:\n        /* \"#utility.yul\":2560:2623   */\n      swap2\n      pop\n        /* \"#utility.yul\":2516:2633   */\n      pop\n        /* \"#utility.yul\":2311:2640   */\n      swap3\n      swap2\n      pop\n      pop\n      jump\t// out\n        /* \"#utility.yul\":2646:2745   */\n    tag_137:\n        /* \"#utility.yul\":2698:2704   */\n      0x00\n        /* \"#utility.yul\":2732:2737   */\n      dup2\n        /* \"#utility.yul\":2726:2738   */\n      mload\n        /* \"#utility.yul\":2716:2738   */\n      swap1\n      pop\n        /* \"#utility.yul\":2646:2745   */\n      swap2\n      swap1\n      pop\n      jump\t// out\n        /* \"#utility.yul\":2751:2920   */\n    tag_138:\n        /* \"#utility.yul\":2835:2846   */\n      0x00\n        /* \"#utility.yul\":2869:2875   */\n      dup3\n        /* \"#utility.yul\":2864:2867   */\n      dup3\n        /* \"#utility.yul\":2857:2876   */\n      mstore\n        /* \"#utility.yul\":2909:2913   */\n      0x20\n        /* \"#utility.yul\":2904:2907   */\n      dup3\n        /* \"#utility.yul\":2900:2914   */\n      add\n        /* \"#utility.yul\":2885:2914   */\n      swap1\n      pop\n        /* \"#utility.yul\":2751:2920   */\n      swap3\n      swap2\n      pop\n      pop\n      jump\t// out\n        /* \"#utility.yul\":2926:3065   */\n    tag_139:\n        /* \"#utility.yul\":3015:3021   */\n      dup3\n        /* \"#utility.yul\":3010:3013   */\n      dup2\n        /* \"#utility.yul\":3005:3008   */\n      dup4\n        /* \"#utility.yul\":2999:3022   */\n      mcopy\n        /* \"#utility.yul\":3056:3057   */\n      0x00\n        /* \"#utility.yul\":3047:3053   */\n      dup4\n        /* \"#utility.yul\":3042:3045   */\n      dup4\n        /* \"#utility.yul\":3038:3054   */\n      add\n        /* \"#utility.yul\":3031:3058   */\n      mstore\n        /* \"#utility.yul\":2926:3065   */\n      pop\n      pop\n      pop\n      jump\t// out\n        /* \"#utility.yul\":3071:3173   */\n    tag_140:\n        /* \"#utility.yul\":3112:3118   */\n      0x00\n        /* \"#utility.yul\":3163:3165   */\n      0x1f\n        /* \"#utility.yul\":3159:3166   */\n      not\n        /* \"#utility.yul\":3154:3156   */\n      0x1f\n        /* \"#utility.yul\":3147:3152   */\n      dup4\n        /* \"#utility.yul\":3143:3157   */\n      add\n        /* \"#utility.yul\":3139:3167   */\n      and\n        /* \"#utility.yul\":3129:3167   */\n      swap1\n      pop\n        /* \"#utility.yul\":3071:3173   */\n      swap2\n      swap1\n      pop\n      jump\t// out\n        /* \"#utility.yul\":3179:3556   */\n    tag_141:\n        /* \"#utility.yul\":3267:3270   */\n      0x00\n        /* \"#utility.yul\":3295:3334   */\n      tag_212\n        /* \"#utility.yul\":3328:3333   */\n      dup3\n        /* \"#utility.yul\":3295:3334   */\n      tag_137\n      jump\t// in\n    tag_212:\n        /* \"#utility.yul\":3350:3421   */\n      tag_213\n        /* \"#utility.yul\":3414:3420   */\n      dup2\n        /* \"#utility.yul\":3409:3412   */\n      dup6\n        /* \"#utility.yul\":3350:3421   */\n      tag_138\n      jump\t// in\n    tag_213:\n        /* \"#utility.yul\":3343:3421   */\n      swap4\n      pop\n        /* \"#utility.yul\":3430:3495   */\n      tag_214\n        /* \"#utility.yul\":3488:3494   */\n      dup2\n        /* \"#utility.yul\":3483:3486   */\n      dup6\n        /* \"#utility.yul\":3476:3480   */\n      0x20\n        /* \"#utility.yul\":3469:3474   */\n      dup7\n        /* \"#utility.yul\":3465:3481   */\n      add\n        /* \"#utility.yul\":3430:3495   */\n      tag_139\n      jump\t// in\n    tag_214:\n        /* \"#utility.yul\":3520:3549   */\n      tag_215\n        /* \"#utility.yul\":3542:3548   */\n      dup2\n        /* \"#utility.yul\":3520:3549   */\n      tag_140\n      jump\t// in\n    tag_215:\n        /* \"#utility.yul\":3515:3518   */\n      dup5\n        /* \"#utility.yul\":3511:3550   */\n      add\n        /* \"#utility.yul\":3504:3550   */\n      swap2\n      pop\n        /* \"#utility.yul\":3271:3556   */\n      pop\n        /* \"#utility.yul\":3179:3556   */\n      swap3\n      swap2\n      pop\n      pop\n      jump\t// out\n        /* \"#utility.yul\":3562:3875   */\n    tag_31:\n        /* \"#utility.yul\":3675:3679   */\n      0x00\n        /* \"#utility.yul\":3713:3715   */\n      0x20\n        /* \"#utility.yul\":3702:3711   */\n      dup3\n        /* \"#utility.yul\":3698:3716   */\n      add\n        /* \"#utility.yul\":3690:3716   */\n      swap1\n      pop\n        /* \"#utility.yul\":3762:3771   */\n      dup2\n        /* \"#utility.yul\":3756:3760   */\n      dup2\n        /* \"#utility.yul\":3752:3772   */\n      sub\n        /* \"#utility.yul\":3748:3749   */\n      0x00\n        /* \"#utility.yul\":3737:3746   */\n      dup4\n        /* \"#utility.yul\":3733:3750   */\n      add\n        /* \"#utility.yul\":3726:3773   */\n      mstore\n        /* \"#utility.yul\":3790:3868   */\n      tag_217\n        /* \"#utility.yul\":3863:3867   */\n      dup2\n        /* \"#utility.yul\":3854:3860   */\n      dup5\n        /* \"#utility.yul\":3790:3868   */\n      tag_141\n      jump\t// in\n    tag_217:\n        /* \"#utility.yul\":3782:3868   */\n      swap1\n      pop\n        /* \"#utility.yul\":3562:3875   */\n      swap3\n      swap2\n      pop\n      pop\n      jump\t// out\n        /* \"#utility.yul\":3881:3999   */\n    tag_142:\n        /* \"#utility.yul\":3968:3992   */\n      tag_219\n        /* \"#utility.yul\":3986:3991   */\n      dup2\n        /* \"#utility.yul\":3968:3992   */\n      tag_130\n      jump\t// in\n    tag_219:\n        /* \"#utility.yul\":3963:3966   */\n      dup3\n        /* \"#utility.yul\":3956:3993   */\n      mstore\n        /* \"#utility.yul\":3881:3999   */\n      pop\n      pop\n      jump\t// out\n        /* \"#utility.yul\":4005:4227   */\n    tag_35:\n        /* \"#utility.yul\":4098:4102   */\n      0x00\n        /* \"#utility.yul\":4136:4138   */\n      0x20\n        /* \"#utility.yul\":4125:4134   */\n      dup3\n        /* \"#utility.yul\":4121:4139   */\n      add\n        /* \"#utility.yul\":4113:4139   */\n      swap1\n      pop\n        /* \"#utility.yul\":4149:4220   */\n      tag_221\n        /* \"#utility.yul\":4217:4218   */\n      0x00\n        /* \"#utility.yul\":4206:4215   */\n      dup4\n        /* \"#utility.yul\":4202:4219   */\n      add\n        /* \"#utility.yul\":4193:4199   */\n      dup5\n        /* \"#utility.yul\":4149:4220   */\n      tag_142\n      jump\t// in\n    tag_221:\n        /* \"#utility.yul\":4005:4227   */\n      swap3\n      swap2\n      pop\n      pop\n      jump\t// out\n        /* \"#utility.yul\":4233:4350   */\n    tag_143:\n        /* \"#utility.yul\":4342:4343   */\n      0x00\n        /* \"#utility.yul\":4339:4340   */\n      dup1\n        /* \"#utility.yul\":4332:4344   */\n      revert\n        /* \"#utility.yul\":4356:4473   */\n    tag_144:\n        /* \"#utility.yul\":4465:4466   */\n      0x00\n        /* \"#utility.yul\":4462:4463   */\n      dup1\n        /* \"#utility.yul\":4455:4467   */\n      revert\n        /* \"#utility.yul\":4479:4659   */\n    tag_145:\n        /* \"#utility.yul\":4527:4604   */\n      0x4e487b7100000000000000000000000000000000000000000000000000000000\n        /* \"#utility.yul\":4524:4525   */\n      0x00\n        /* \"#utility.yul\":4517:4605   */\n      mstore\n        /* \"#utility.yul\":4624:4628   */\n      0x41\n        /* \"#utility.yul\":4621:4622   */\n      0x04\n        /* \"#utility.yul\":4614:4629   */\n      mstore\n        /* \"#utility.yul\":4648:4652   */\n      0x24\n        /* \"#utility.yul\":4645:4646   */\n      0x00\n        /* \"#utility.yul\":4638:4653   */\n      revert\n        /* \"#utility.yul\":4665:4946   */\n    tag_146:\n        /* \"#utility.yul\":4748:4775   */\n      tag_226\n        /* \"#utility.yul\":4770:4774   */\n      dup3\n        /* \"#utility.yul\":4748:4775   */\n      tag_140\n      jump\t// in\n    tag_226:\n        /* \"#utility.yul\":4740:4746   */\n      dup2\n        /* \"#utility.yul\":4736:4776   */\n      add\n        /* \"#utility.yul\":4878:4884   */\n      dup2\n        /* \"#utility.yul\":4866:4876   */\n      dup2\n        /* \"#utility.yul\":4863:4885   */\n      lt\n        /* \"#utility.yul\":4842:4860   */\n      0xffffffffffffffff\n        /* \"#utility.yul\":4830:4840   */\n      dup3\n        /* \"#utility.yul\":4827:4861   */\n      gt\n        /* \"#utility.yul\":4824:4886   */\n      or\n        /* \"#utility.yul\":4821:4909   */\n      iszero\n      tag_227\n      jumpi\n        /* \"#utility.yul\":4889:4907   */\n      tag_228\n      tag_145\n      jump\t// in\n    tag_228:\n        /* \"#utility.yul\":4821:4909   */\n    tag_227:\n        /* \"#utility.yul\":4929:4939   */\n      dup1\n        /* \"#utility.yul\":4925:4927   */\n      0x40\n        /* \"#utility.yul\":4918:4940   */\n      mstore\n        /* \"#utility.yul\":4708:4946   */\n      pop\n        /* \"#utility.yul\":4665:4946   */\n      pop\n      pop\n      jump\t// out\n        /* \"#utility.yul\":4952:5081   */\n    tag_147:\n        /* \"#utility.yul\":4986:4992   */\n      0x00\n        /* \"#utility.yul\":5013:5033   */\n      tag_230\n      tag_126\n      jump\t// in\n    tag_230:\n        /* \"#utility.yul\":5003:5033   */\n      swap1\n      pop\n        /* \"#utility.yul\":5042:5075   */\n      tag_231\n        /* \"#utility.yul\":5070:5074   */\n      dup3\n        /* \"#utility.yul\":5062:5068   */\n      dup3\n        /* \"#utility.yul\":5042:5075   */\n      tag_146\n      jump\t// in\n    tag_231:\n        /* \"#utility.yul\":4952:5081   */\n      swap2\n      swap1\n      pop\n      jump\t// out\n        /* \"#utility.yul\":5087:5395   */\n    tag_148:\n        /* \"#utility.yul\":5149:5153   */\n      0x00\n        /* \"#utility.yul\":5239:5257   */\n      0xffffffffffffffff\n        /* \"#utility.yul\":5231:5237   */\n      dup3\n        /* \"#utility.yul\":5228:5258   */\n      gt\n        /* \"#utility.yul\":5225:5281   */\n      iszero\n      tag_233\n      jumpi\n        /* \"#utility.yul\":5261:5279   */\n      tag_234\n      tag_145\n      jump\t// in\n    tag_234:\n        /* \"#utility.yul\":5225:5281   */\n    tag_233:\n        /* \"#utility.yul\":5299:5328   */\n      tag_235\n        /* \"#utility.yul\":5321:5327   */\n      dup3\n        /* \"#utility.yul\":5299:5328   */\n      tag_140\n      jump\t// in\n    tag_235:\n        /* \"#utility.yul\":5291:5328   */\n      swap1\n      pop\n        /* \"#utility.yul\":5383:5387   */\n      0x20\n        /* \"#utility.yul\":5377:5381   */\n      dup2\n        /* \"#utility.yul\":5373:5388   */\n      add\n        /* \"#utility.yul\":5365:5388   */\n      swap1\n      pop\n        /* \"#utility.yul\":5087:5395   */\n      swap2\n      swap1\n      pop\n      jump\t// out\n        /* \"#utility.yul\":5401:5549   */\n    tag_149:\n        /* \"#utility.yul\":5499:5505   */\n      dup3\n        /* \"#utility.yul\":5494:5497   */\n      dup2\n        /* \"#utility.yul\":5489:5492   */\n      dup4\n        /* \"#utility.yul\":5476:5506   */\n      calldatacopy\n        /* \"#utility.yul\":5540:5541   */\n      0x00\n        /* \"#utility.yul\":5531:5537   */\n      dup4\n        /* \"#utility.yul\":5526:5529   */\n      dup4\n        /* \"#utility.yul\":5522:5538   */\n      add\n        /* \"#utility.yul\":5515:5542   */\n      mstore\n        /* \"#utility.yul\":5401:5549   */\n      pop\n      pop\n      pop\n      jump\t// out\n        /* \"#utility.yul\":5555:5980   */\n    tag_150:\n        /* \"#utility.yul\":5633:5638   */\n      0x00\n        /* \"#utility.yul\":5658:5724   */\n      tag_238\n        /* \"#utility.yul\":5674:5723   */\n      tag_239\n        /* \"#utility.yul\":5716:5722   */\n      dup5\n        /* \"#utility.yul\":5674:5723   */\n      tag_148\n      jump\t// in\n    tag_239:\n        /* \"#utility.yul\":5658:5724   */\n      tag_147\n      jump\t// in\n    tag_238:\n        /* \"#utility.yul\":5649:5724   */\n      swap1\n      pop\n        /* \"#utility.yul\":5747:5753   */\n      dup3\n        /* \"#utility.yul\":5740:5745   */\n      dup2\n        /* \"#utility.yul\":5733:5754   */\n      mstore\n        /* \"#utility.yul\":5785:5789   */\n      0x20\n        /* \"#utility.yul\":5778:5783   */\n      dup2\n        /* \"#utility.yul\":5774:5790   */\n      add\n        /* \"#utility.yul\":5823:5826   */\n      dup5\n        /* \"#utility.yul\":5814:5820   */\n      dup5\n        /* \"#utility.yul\":5809:5812   */\n      dup5\n        /* \"#utility.yul\":5805:5821   */\n      add\n        /* \"#utility.yul\":5802:5827   */\n      gt\n        /* \"#utility.yul\":5799:5911   */\n      iszero\n      tag_240\n      jumpi\n        /* \"#utility.yul\":5830:5909   */\n      tag_241\n      tag_144\n      jump\t// in\n    tag_241:\n        /* \"#utility.yul\":5799:5911   */\n    tag_240:\n        /* \"#utility.yul\":5920:5974   */\n      tag_242\n        /* \"#utility.yul\":5967:5973   */\n      dup5\n        /* \"#utility.yul\":5962:5965   */\n      dup3\n        /* \"#utility.yul\":5957:5960   */\n      dup6\n        /* \"#utility.yul\":5920:5974   */\n      tag_149\n      jump\t// in\n    tag_242:\n        /* \"#utility.yul\":5639:5980   */\n      pop\n        /* \"#utility.yul\":5555:5980   */\n      swap4\n      swap3\n      pop\n      pop\n      pop\n      jump\t// out\n        /* \"#utility.yul\":6000:6340   */\n    tag_151:\n        /* \"#utility.yul\":6056:6061   */\n      0x00\n        /* \"#utility.yul\":6105:6108   */\n      dup3\n        /* \"#utility.yul\":6098:6102   */\n      0x1f\n        /* \"#utility.yul\":6090:6096   */\n      dup4\n        /* \"#utility.yul\":6086:6103   */\n      add\n        /* \"#utility.yul\":6082:6109   */\n      slt\n        /* \"#utility.yul\":6072:6194   */\n      tag_244\n      jumpi\n        /* \"#utility.yul\":6113:6192   */\n      tag_245\n      tag_143\n      jump\t// in\n    tag_245:\n        /* \"#utility.yul\":6072:6194   */\n    tag_244:\n        /* \"#utility.yul\":6230:6236   */\n      dup2\n        /* \"#utility.yul\":6217:6237   */\n      calldataload\n        /* \"#utility.yul\":6255:6334   */\n      tag_246\n        /* \"#utility.yul\":6330:6333   */\n      dup5\n        /* \"#utility.yul\":6322:6328   */\n      dup3\n        /* \"#utility.yul\":6315:6319   */\n      0x20\n        /* \"#utility.yul\":6307:6313   */\n      dup7\n        /* \"#utility.yul\":6303:6320   */\n      add\n        /* \"#utility.yul\":6255:6334   */\n      tag_150\n      jump\t// in\n    tag_246:\n        /* \"#utility.yul\":6246:6334   */\n      swap2\n      pop\n        /* \"#utility.yul\":6062:6340   */\n      pop\n        /* \"#utility.yul\":6000:6340   */\n      swap3\n      swap2\n      pop\n      pop\n      jump\t// out\n        /* \"#utility.yul\":6346:6855   */\n    tag_38:\n        /* \"#utility.yul\":6415:6421   */\n      0x00\n        /* \"#utility.yul\":6464:6466   */\n      0x20\n        /* \"#utility.yul\":6452:6461   */\n      dup3\n        /* \"#utility.yul\":6443:6450   */\n      dup5\n        /* \"#utility.yul\":6439:6462   */\n      sub\n        /* \"#utility.yul\":6435:6467   */\n      slt\n        /* \"#utility.yul\":6432:6551   */\n      iszero\n      tag_248\n      jumpi\n        /* \"#utility.yul\":6470:6549   */\n      tag_249\n      tag_127\n      jump\t// in\n    tag_249:\n        /* \"#utility.yul\":6432:6551   */\n    tag_248:\n        /* \"#utility.yul\":6618:6619   */\n      0x00\n        /* \"#utility.yul\":6607:6616   */\n      dup3\n        /* \"#utility.yul\":6603:6620   */\n      add\n        /* \"#utility.yul\":6590:6621   */\n      calldataload\n        /* \"#utility.yul\":6648:6666   */\n      0xffffffffffffffff\n        /* \"#utility.yul\":6640:6646   */\n      dup2\n        /* \"#utility.yul\":6637:6667   */\n      gt\n        /* \"#utility.yul\":6634:6751   */\n      iszero\n      tag_250\n      jumpi\n        /* \"#utility.yul\":6670:6749   */\n      tag_251\n      tag_128\n      jump\t// in\n    tag_251:\n        /* \"#utility.yul\":6634:6751   */\n    tag_250:\n        /* \"#utility.yul\":6775:6838   */\n      tag_252\n        /* \"#utility.yul\":6830:6837   */\n      dup5\n        /* \"#utility.yul\":6821:6827   */\n      dup3\n        /* \"#utility.yul\":6810:6819   */\n      dup6\n        /* \"#utility.yul\":6806:6828   */\n      add\n        /* \"#utility.yul\":6775:6838   */\n      tag_151\n      jump\t// in\n    tag_252:\n        /* \"#utility.yul\":6765:6838   */\n      swap2\n      pop\n        /* \"#utility.yul\":6561:6848   */\n      pop\n        /* \"#utility.yul\":6346:6855   */\n      swap3\n      swap2\n      pop\n      pop\n      jump\t// out\n        /* \"#utility.yul\":6861:7041   */\n    tag_152:\n        /* \"#utility.yul\":6909:6986   */\n      0x4e487b7100000000000000000000000000000000000000000000000000000000\n        /* \"#utility.yul\":6906:6907   */\n      0x00\n        /* \"#utility.yul\":6899:6987   */\n      mstore\n        /* \"#utility.yul\":7006:7010   */\n      0x22\n        /* \"#utility.yul\":7003:7004   */\n      0x04\n        /* \"#utility.yul\":6996:7011   */\n      mstore\n        /* \"#utility.yul\":7030:7034   */\n      0x24\n        /* \"#utility.yul\":7027:7028   */\n      0x00\n        /* \"#utility.yul\":7020:7035   */\n      revert\n        /* \"#utility.yul\":7047:7367   */\n    tag_52:\n        /* \"#utility.yul\":7091:7097   */\n      0x00\n        /* \"#utility.yul\":7128:7129   */\n      0x02\n        /* \"#utility.yul\":7122:7126   */\n      dup3\n        /* \"#utility.yul\":7118:7130   */\n      div\n        /* \"#utility.yul\":7108:7130   */\n      swap1\n      pop\n        /* \"#utility.yul\":7175:7176   */\n      0x01\n        /* \"#utility.yul\":7169:7173   */\n      dup3\n        /* \"#utility.yul\":7165:7177   */\n      and\n        /* \"#utility.yul\":7196:7214   */\n      dup1\n        /* \"#utility.yul\":7186:7267   */\n      tag_255\n      jumpi\n        /* \"#utility.yul\":7252:7256   */\n      0x7f\n        /* \"#utility.yul\":7244:7250   */\n      dup3\n        /* \"#utility.yul\":7240:7257   */\n      and\n        /* \"#utility.yul\":7230:7257   */\n      swap2\n      pop\n        /* \"#utility.yul\":7186:7267   */\n    tag_255:\n        /* \"#utility.yul\":7314:7316   */\n      0x20\n        /* \"#utility.yul\":7306:7312   */\n      dup3\n        /* \"#utility.yul\":7303:7317   */\n      lt\n        /* \"#utility.yul\":7283:7301   */\n      dup2\n        /* \"#utility.yul\":7280:7318   */\n      sub\n        /* \"#utility.yul\":7277:7361   */\n      tag_256\n      jumpi\n        /* \"#utility.yul\":7333:7351   */\n      tag_257\n      tag_152\n      jump\t// in\n    tag_257:\n        /* \"#utility.yul\":7277:7361   */\n    tag_256:\n        /* \"#utility.yul\":7098:7367   */\n      pop\n        /* \"#utility.yul\":7047:7367   */\n      swap2\n      swap1\n      pop\n      jump\t// out\n        /* \"#utility.yul\":7373:7548   */\n    tag_153:\n        /* \"#utility.yul\":7513:7540   */\n      0x4f6e6c79206f776e65722063616e2063616c6c20746869732e00000000000000\n        /* \"#utility.yul\":7509:7510   */\n      0x00\n        /* \"#utility.yul\":7501:7507   */\n      dup3\n        /* \"#utility.yul\":7497:7511   */\n      add\n        /* \"#utility.yul\":7490:7541   */\n      mstore\n        /* \"#utility.yul\":7373:7548   */\n      pop\n      jump\t// out\n        /* \"#utility.yul\":7554:7920   */\n    tag_154:\n        /* \"#utility.yul\":7696:7699   */\n      0x00\n        /* \"#utility.yul\":7717:7784   */\n      tag_260\n        /* \"#utility.yul\":7781:7783   */\n      0x19\n        /* \"#utility.yul\":7776:7779   */\n      dup4\n        /* \"#utility.yul\":7717:7784   */\n      tag_138\n      jump\t// in\n    tag_260:\n        /* \"#utility.yul\":7710:7784   */\n      swap2\n      pop\n        /* \"#utility.yul\":7793:7886   */\n      tag_261\n        /* \"#utility.yul\":7882:7885   */\n      dup3\n        /* \"#utility.yul\":7793:7886   */\n      tag_153\n      jump\t// in\n    tag_261:\n        /* \"#utility.yul\":7911:7913   */\n      0x20\n        /* \"#utility.yul\":7906:7909   */\n      dup3\n        /* \"#utility.yul\":7902:7914   */\n      add\n        /* \"#utility.yul\":7895:7914   */\n      swap1\n      pop\n        /* \"#utility.yul\":7554:7920   */\n      swap2\n      swap1\n      pop\n      jump\t// out\n        /* \"#utility.yul\":7926:8345   */\n    tag_65:\n        /* \"#utility.yul\":8092:8096   */\n      0x00\n        /* \"#utility.yul\":8130:8132   */\n      0x20\n        /* \"#utility.yul\":8119:8128   */\n      dup3\n        /* \"#utility.yul\":8115:8133   */\n      add\n        /* \"#utility.yul\":8107:8133   */\n      swap1\n      pop\n        /* \"#utility.yul\":8179:8188   */\n      dup2\n        /* \"#utility.yul\":8173:8177   */\n      dup2\n        /* \"#utility.yul\":8169:8189   */\n      sub\n        /* \"#utility.yul\":8165:8166   */\n      0x00\n        /* \"#utility.yul\":8154:8163   */\n      dup4\n        /* \"#utility.yul\":8150:8167   */\n      add\n        /* \"#utility.yul\":8143:8190   */\n      mstore\n        /* \"#utility.yul\":8207:8338   */\n      tag_263\n        /* \"#utility.yul\":8333:8337   */\n      dup2\n        /* \"#utility.yul\":8207:8338   */\n      tag_154\n      jump\t// in\n    tag_263:\n        /* \"#utility.yul\":8199:8338   */\n      swap1\n      pop\n        /* \"#utility.yul\":7926:8345   */\n      swap2\n      swap1\n      pop\n      jump\t// out\n        /* \"#utility.yul\":8351:8528   */\n    tag_155:\n        /* \"#utility.yul\":8491:8520   */\n      0x566f74696e6720706572696f64207374696c6c206163746976652e0000000000\n        /* \"#utility.yul\":8487:8488   */\n      0x00\n        /* \"#utility.yul\":8479:8485   */\n      dup3\n        /* \"#utility.yul\":8475:8489   */\n      add\n        /* \"#utility.yul\":8468:8521   */\n      mstore\n        /* \"#utility.yul\":8351:8528   */\n      pop\n      jump\t// out\n        /* \"#utility.yul\":8534:8900   */\n    tag_156:\n        /* \"#utility.yul\":8676:8679   */\n      0x00\n        /* \"#utility.yul\":8697:8764   */\n      tag_266\n        /* \"#utility.yul\":8761:8763   */\n      0x1b\n        /* \"#utility.yul\":8756:8759   */\n      dup4\n        /* \"#utility.yul\":8697:8764   */\n      tag_138\n      jump\t// in\n    tag_266:\n        /* \"#utility.yul\":8690:8764   */\n      swap2\n      pop\n        /* \"#utility.yul\":8773:8866   */\n      tag_267\n        /* \"#utility.yul\":8862:8865   */\n      dup3\n        /* \"#utility.yul\":8773:8866   */\n      tag_155\n      jump\t// in\n    tag_267:\n        /* \"#utility.yul\":8891:8893   */\n      0x20\n        /* \"#utility.yul\":8886:8889   */\n      dup3\n        /* \"#utility.yul\":8882:8894   */\n      add\n        /* \"#utility.yul\":8875:8894   */\n      swap1\n      pop\n        /* \"#utility.yul\":8534:8900   */\n      swap2\n      swap1\n      pop\n      jump\t// out\n        /* \"#utility.yul\":8906:9325   */\n    tag_69:\n        /* \"#utility.yul\":9072:9076   */\n      0x00\n        /* \"#utility.yul\":9110:9112   */\n      0x20\n        /* \"#utility.yul\":9099:9108   */\n      dup3\n        /* \"#utility.yul\":9095:9113   */\n      add\n        /* \"#utility.yul\":9087:9113   */\n      swap1\n      pop\n        /* \"#utility.yul\":9159:9168   */\n      dup2\n        /* \"#utility.yul\":9153:9157   */\n      dup2\n        /* \"#utility.yul\":9149:9169   */\n      sub\n        /* \"#utility.yul\":9145:9146   */\n      0x00\n        /* \"#utility.yul\":9134:9143   */\n      dup4\n        /* \"#utility.yul\":9130:9147   */\n      add\n        /* \"#utility.yul\":9123:9170   */\n      mstore\n        /* \"#utility.yul\":9187:9318   */\n      tag_269\n        /* \"#utility.yul\":9313:9317   */\n      dup2\n        /* \"#utility.yul\":9187:9318   */\n      tag_156\n      jump\t// in\n    tag_269:\n        /* \"#utility.yul\":9179:9318   */\n      swap1\n      pop\n        /* \"#utility.yul\":8906:9325   */\n      swap2\n      swap1\n      pop\n      jump\t// out\n        /* \"#utility.yul\":9331:9502   */\n    tag_157:\n        /* \"#utility.yul\":9471:9494   */\n      0x566f74696e6720616c726561647920656e6465642e0000000000000000000000\n        /* \"#utility.yul\":9467:9468   */\n      0x00\n        /* \"#utility.yul\":9459:9465   */\n      dup3\n        /* \"#utility.yul\":9455:9469   */\n      add\n        /* \"#utility.yul\":9448:9495   */\n      mstore\n        /* \"#utility.yul\":9331:9502   */\n      pop\n      jump\t// out\n        /* \"#utility.yul\":9508:9874   */\n    tag_158:\n        /* \"#utility.yul\":9650:9653   */\n      0x00\n        /* \"#utility.yul\":9671:9738   */\n      tag_272\n        /* \"#utility.yul\":9735:9737   */\n      0x15\n        /* \"#utility.yul\":9730:9733   */\n      dup4\n        /* \"#utility.yul\":9671:9738   */\n      tag_138\n      jump\t// in\n    tag_272:\n        /* \"#utility.yul\":9664:9738   */\n      swap2\n      pop\n        /* \"#utility.yul\":9747:9840   */\n      tag_273\n        /* \"#utility.yul\":9836:9839   */\n      dup3\n        /* \"#utility.yul\":9747:9840   */\n      tag_157\n      jump\t// in\n    tag_273:\n        /* \"#utility.yul\":9865:9867   */\n      0x20\n        /* \"#utility.yul\":9860:9863   */\n      dup3\n        /* \"#utility.yul\":9856:9868   */\n      add\n        /* \"#utility.yul\":9849:9868   */\n      swap1\n      pop\n        /* \"#utility.yul\":9508:9874   */\n      swap2\n      swap1\n      pop\n      jump\t// out\n        /* \"#utility.yul\":9880:10299   */\n    tag_72:\n        /* \"#utility.yul\":10046:10050   */\n      0x00\n        /* \"#utility.yul\":10084:10086   */\n      0x20\n        /* \"#utility.yul\":10073:10082   */\n      dup3\n        /* \"#utility.yul\":10069:10087   */\n      add\n        /* \"#utility.yul\":10061:10087   */\n      swap1\n      pop\n        /* \"#utility.yul\":10133:10142   */\n      dup2\n        /* \"#utility.yul\":10127:10131   */\n      dup2\n        /* \"#utility.yul\":10123:10143   */\n      sub\n        /* \"#utility.yul\":10119:10120   */\n      0x00\n        /* \"#utility.yul\":10108:10117   */\n      dup4\n        /* \"#utility.yul\":10104:10121   */\n      add\n        /* \"#utility.yul\":10097:10144   */\n      mstore\n        /* \"#utility.yul\":10161:10292   */\n      tag_275\n        /* \"#utility.yul\":10287:10291   */\n      dup2\n        /* \"#utility.yul\":10161:10292   */\n      tag_158\n      jump\t// in\n    tag_275:\n        /* \"#utility.yul\":10153:10292   */\n      swap1\n      pop\n        /* \"#utility.yul\":9880:10299   */\n      swap2\n      swap1\n      pop\n      jump\t// out\n        /* \"#utility.yul\":10305:10485   */\n    tag_78:\n        /* \"#utility.yul\":10353:10430   */\n      0x4e487b7100000000000000000000000000000000000000000000000000000000\n        /* \"#utility.yul\":10350:10351   */\n      0x00\n        /* \"#utility.yul\":10343:10431   */\n      mstore\n        /* \"#utility.yul\":10450:10454   */\n      0x32\n        /* \"#utility.yul\":10447:10448   */\n      0x04\n        /* \"#utility.yul\":10440:10455   */\n      mstore\n        /* \"#utility.yul\":10474:10478   */\n      0x24\n        /* \"#utility.yul\":10471:10472   */\n      0x00\n        /* \"#utility.yul\":10464:10479   */\n      revert\n        /* \"#utility.yul\":10491:10639   */\n    tag_159:\n        /* \"#utility.yul\":10593:10604   */\n      0x00\n        /* \"#utility.yul\":10630:10633   */\n      dup2\n        /* \"#utility.yul\":10615:10633   */\n      swap1\n      pop\n        /* \"#utility.yul\":10491:10639   */\n      swap3\n      swap2\n      pop\n      pop\n      jump\t// out\n        /* \"#utility.yul\":10645:10786   */\n    tag_160:\n        /* \"#utility.yul\":10694:10698   */\n      0x00\n        /* \"#utility.yul\":10717:10720   */\n      dup2\n        /* \"#utility.yul\":10709:10720   */\n      swap1\n      pop\n        /* \"#utility.yul\":10740:10743   */\n      dup2\n        /* \"#utility.yul\":10737:10738   */\n      0x00\n        /* \"#utility.yul\":10730:10744   */\n      mstore\n        /* \"#utility.yul\":10774:10778   */\n      0x20\n        /* \"#utility.yul\":10771:10772   */\n      0x00\n        /* \"#utility.yul\":10761:10779   */\n      keccak256\n        /* \"#utility.yul\":10753:10779   */\n      swap1\n      pop\n        /* \"#utility.yul\":10645:10786   */\n      swap2\n      swap1\n      pop\n      jump\t// out\n        /* \"#utility.yul\":10816:11690   */\n    tag_161:\n        /* \"#utility.yul\":10919:10922   */\n      0x00\n        /* \"#utility.yul\":10956:10961   */\n      dup2\n        /* \"#utility.yul\":10950:10962   */\n      sload\n        /* \"#utility.yul\":10985:11021   */\n      tag_280\n        /* \"#utility.yul\":11011:11020   */\n      dup2\n        /* \"#utility.yul\":10985:11021   */\n      tag_52\n      jump\t// in\n    tag_280:\n        /* \"#utility.yul\":11037:11126   */\n      tag_281\n        /* \"#utility.yul\":11119:11125   */\n      dup2\n        /* \"#utility.yul\":11114:11117   */\n      dup7\n        /* \"#utility.yul\":11037:11126   */\n      tag_159\n      jump\t// in\n    tag_281:\n        /* \"#utility.yul\":11030:11126   */\n      swap5\n      pop\n        /* \"#utility.yul\":11157:11158   */\n      0x01\n        /* \"#utility.yul\":11146:11155   */\n      dup3\n        /* \"#utility.yul\":11142:11159   */\n      and\n        /* \"#utility.yul\":11173:11174   */\n      0x00\n        /* \"#utility.yul\":11168:11334   */\n      dup2\n      eq\n      tag_283\n      jumpi\n        /* \"#utility.yul\":11348:11349   */\n      0x01\n        /* \"#utility.yul\":11343:11684   */\n      dup2\n      eq\n      tag_284\n      jumpi\n        /* \"#utility.yul\":11135:11684   */\n      jump(tag_282)\n        /* \"#utility.yul\":11168:11334   */\n    tag_283:\n        /* \"#utility.yul\":11252:11256   */\n      0xff\n        /* \"#utility.yul\":11248:11257   */\n      not\n        /* \"#utility.yul\":11237:11246   */\n      dup4\n        /* \"#utility.yul\":11233:11258   */\n      and\n        /* \"#utility.yul\":11228:11231   */\n      dup7\n        /* \"#utility.yul\":11221:11259   */\n      mstore\n        /* \"#utility.yul\":11314:11320   */\n      dup2\n        /* \"#utility.yul\":11307:11321   */\n      iszero\n        /* \"#utility.yul\":11300:11322   */\n      iszero\n        /* \"#utility.yul\":11292:11298   */\n      dup3\n        /* \"#utility.yul\":11288:11323   */\n      mul\n        /* \"#utility.yul\":11283:11286   */\n      dup7\n        /* \"#utility.yul\":11279:11324   */\n      add\n        /* \"#utility.yul\":11272:11324   */\n      swap4\n      pop\n        /* \"#utility.yul\":11168:11334   */\n      jump(tag_282)\n        /* \"#utility.yul\":11343:11684   */\n    tag_284:\n        /* \"#utility.yul\":11410:11448   */\n      tag_285\n        /* \"#utility.yul\":11442:11447   */\n      dup6\n        /* \"#utility.yul\":11410:11448   */\n      tag_160\n      jump\t// in\n    tag_285:\n        /* \"#utility.yul\":11470:11471   */\n      0x00\n        /* \"#utility.yul\":11484:11638   */\n    tag_286:\n        /* \"#utility.yul\":11498:11504   */\n      dup4\n        /* \"#utility.yul\":11495:11496   */\n      dup2\n        /* \"#utility.yul\":11492:11505   */\n      lt\n        /* \"#utility.yul\":11484:11638   */\n      iszero\n      tag_288\n      jumpi\n        /* \"#utility.yul\":11572:11579   */\n      dup2\n        /* \"#utility.yul\":11566:11580   */\n      sload\n        /* \"#utility.yul\":11562:11563   */\n      dup2\n        /* \"#utility.yul\":11557:11560   */\n      dup10\n        /* \"#utility.yul\":11553:11564   */\n      add\n        /* \"#utility.yul\":11546:11581   */\n      mstore\n        /* \"#utility.yul\":11622:11623   */\n      0x01\n        /* \"#utility.yul\":11613:11620   */\n      dup3\n        /* \"#utility.yul\":11609:11624   */\n      add\n        /* \"#utility.yul\":11598:11624   */\n      swap2\n      pop\n        /* \"#utility.yul\":11520:11524   */\n      0x20\n        /* \"#utility.yul\":11517:11518   */\n      dup2\n        /* \"#utility.yul\":11513:11525   */\n      add\n        /* \"#utility.yul\":11508:11525   */\n      swap1\n      pop\n        /* \"#utility.yul\":11484:11638   */\n      jump(tag_286)\n    tag_288:\n        /* \"#utility.yul\":11667:11673   */\n      dup4\n        /* \"#utility.yul\":11662:11665   */\n      dup9\n        /* \"#utility.yul\":11658:11674   */\n      add\n        /* \"#utility.yul\":11651:11674   */\n      swap6\n      pop\n        /* \"#utility.yul\":11350:11684   */\n      pop\n      pop\n        /* \"#utility.yul\":11135:11684   */\n    tag_282:\n      pop\n        /* \"#utility.yul\":10923:11690   */\n      pop\n      pop\n        /* \"#utility.yul\":10816:11690   */\n      swap3\n      swap2\n      pop\n      pop\n      jump\t// out\n        /* \"#utility.yul\":11696:11965   */\n    tag_81:\n        /* \"#utility.yul\":11825:11828   */\n      0x00\n        /* \"#utility.yul\":11847:11939   */\n      tag_290\n        /* \"#utility.yul\":11935:11938   */\n      dup3\n        /* \"#utility.yul\":11926:11932   */\n      dup5\n        /* \"#utility.yul\":11847:11939   */\n      tag_161\n      jump\t// in\n    tag_290:\n        /* \"#utility.yul\":11840:11939   */\n      swap2\n      pop\n        /* \"#utility.yul\":11956:11959   */\n      dup2\n        /* \"#utility.yul\":11949:11959   */\n      swap1\n      pop\n        /* \"#utility.yul\":11696:11965   */\n      swap3\n      swap2\n      pop\n      pop\n      jump\t// out\n        /* \"#utility.yul\":11971:12143   */\n    tag_162:\n        /* \"#utility.yul\":12111:12135   */\n      0x566f74696e6720706572696f64206973206f7665722e00000000000000000000\n        /* \"#utility.yul\":12107:12108   */\n      0x00\n        /* \"#utility.yul\":12099:12105   */\n      dup3\n        /* \"#utility.yul\":12095:12109   */\n      add\n        /* \"#utility.yul\":12088:12136   */\n      mstore\n        /* \"#utility.yul\":11971:12143   */\n      pop\n      jump\t// out\n        /* \"#utility.yul\":12149:12515   */\n    tag_163:\n        /* \"#utility.yul\":12291:12294   */\n      0x00\n        /* \"#utility.yul\":12312:12379   */\n      tag_293\n        /* \"#utility.yul\":12376:12378   */\n      0x16\n        /* \"#utility.yul\":12371:12374   */\n      dup4\n        /* \"#utility.yul\":12312:12379   */\n      tag_138\n      jump\t// in\n    tag_293:\n        /* \"#utility.yul\":12305:12379   */\n      swap2\n      pop\n        /* \"#utility.yul\":12388:12481   */\n      tag_294\n        /* \"#utility.yul\":12477:12480   */\n      dup3\n        /* \"#utility.yul\":12388:12481   */\n      tag_162\n      jump\t// in\n    tag_294:\n        /* \"#utility.yul\":12506:12508   */\n      0x20\n        /* \"#utility.yul\":12501:12504   */\n      dup3\n        /* \"#utility.yul\":12497:12509   */\n      add\n        /* \"#utility.yul\":12490:12509   */\n      swap1\n      pop\n        /* \"#utility.yul\":12149:12515   */\n      swap2\n      swap1\n      pop\n      jump\t// out\n        /* \"#utility.yul\":12521:12940   */\n    tag_99:\n        /* \"#utility.yul\":12687:12691   */\n      0x00\n        /* \"#utility.yul\":12725:12727   */\n      0x20\n        /* \"#utility.yul\":12714:12723   */\n      dup3\n        /* \"#utility.yul\":12710:12728   */\n      add\n        /* \"#utility.yul\":12702:12728   */\n      swap1\n      pop\n        /* \"#utility.yul\":12774:12783   */\n      dup2\n        /* \"#utility.yul\":12768:12772   */\n      dup2\n        /* \"#utility.yul\":12764:12784   */\n      sub\n        /* \"#utility.yul\":12760:12761   */\n      0x00\n        /* \"#utility.yul\":12749:12758   */\n      dup4\n        /* \"#utility.yul\":12745:12762   */\n      add\n        /* \"#utility.yul\":12738:12785   */\n      mstore\n        /* \"#utility.yul\":12802:12933   */\n      tag_296\n        /* \"#utility.yul\":12928:12932   */\n      dup2\n        /* \"#utility.yul\":12802:12933   */\n      tag_163\n      jump\t// in\n    tag_296:\n        /* \"#utility.yul\":12794:12933   */\n      swap1\n      pop\n        /* \"#utility.yul\":12521:12940   */\n      swap2\n      swap1\n      pop\n      jump\t// out\n        /* \"#utility.yul\":12946:13119   */\n    tag_164:\n        /* \"#utility.yul\":13086:13111   */\n      0x596f75206861766520616c726561647920766f7465642e000000000000000000\n        /* \"#utility.yul\":13082:13083   */\n      0x00\n        /* \"#utility.yul\":13074:13080   */\n      dup3\n        /* \"#utility.yul\":13070:13084   */\n      add\n        /* \"#utility.yul\":13063:13112   */\n      mstore\n        /* \"#utility.yul\":12946:13119   */\n      pop\n      jump\t// out\n        /* \"#utility.yul\":13125:13491   */\n    tag_165:\n        /* \"#utility.yul\":13267:13270   */\n      0x00\n        /* \"#utility.yul\":13288:13355   */\n      tag_299\n        /* \"#utility.yul\":13352:13354   */\n      0x17\n        /* \"#utility.yul\":13347:13350   */\n      dup4\n        /* \"#utility.yul\":13288:13355   */\n      tag_138\n      jump\t// in\n    tag_299:\n        /* \"#utility.yul\":13281:13355   */\n      swap2\n      pop\n        /* \"#utility.yul\":13364:13457   */\n      tag_300\n        /* \"#utility.yul\":13453:13456   */\n      dup3\n        /* \"#utility.yul\":13364:13457   */\n      tag_164\n      jump\t// in\n    tag_300:\n        /* \"#utility.yul\":13482:13484   */\n      0x20\n        /* \"#utility.yul\":13477:13480   */\n      dup3\n        /* \"#utility.yul\":13473:13485   */\n      add\n        /* \"#utility.yul\":13466:13485   */\n      swap1\n      pop\n        /* \"#utility.yul\":13125:13491   */\n      swap2\n      swap1\n      pop\n      jump\t// out\n        /* \"#utility.yul\":13497:13916   */\n    tag_103:\n        /* \"#utility.yul\":13663:13667   */\n      0x00\n        /* \"#utility.yul\":13701:13703   */\n      0x20\n        /* \"#utility.yul\":13690:13699   */\n      dup3\n        /* \"#utility.yul\":13686:13704   */\n      add\n        /* \"#utility.yul\":13678:13704   */\n      swap1\n      pop\n        /* \"#utility.yul\":13750:13759   */\n      dup2\n        /* \"#utility.yul\":13744:13748   */\n      dup2\n        /* \"#utility.yul\":13740:13760   */\n      sub\n        /* \"#utility.yul\":13736:13737   */\n      0x00\n        /* \"#utility.yul\":13725:13734   */\n      dup4\n        /* \"#utility.yul\":13721:13738   */\n      add\n        /* \"#utility.yul\":13714:13761   */\n      mstore\n        /* \"#utility.yul\":13778:13909   */\n      tag_302\n        /* \"#utility.yul\":13904:13908   */\n      dup2\n        /* \"#utility.yul\":13778:13909   */\n      tag_165\n      jump\t// in\n    tag_302:\n        /* \"#utility.yul\":13770:13909   */\n      swap1\n      pop\n        /* \"#utility.yul\":13497:13916   */\n      swap2\n      swap1\n      pop\n      jump\t// out\n        /* \"#utility.yul\":13922:14089   */\n    tag_166:\n        /* \"#utility.yul\":14062:14081   */\n      0x566f74696e672068617320656e6465642e000000000000000000000000000000\n        /* \"#utility.yul\":14058:14059   */\n      0x00\n        /* \"#utility.yul\":14050:14056   */\n      dup3\n        /* \"#utility.yul\":14046:14060   */\n      add\n        /* \"#utility.yul\":14039:14082   */\n      mstore\n        /* \"#utility.yul\":13922:14089   */\n      pop\n      jump\t// out\n        /* \"#utility.yul\":14095:14461   */\n    tag_167:\n        /* \"#utility.yul\":14237:14240   */\n      0x00\n        /* \"#utility.yul\":14258:14325   */\n      tag_305\n        /* \"#utility.yul\":14322:14324   */\n      0x11\n        /* \"#utility.yul\":14317:14320   */\n      dup4\n        /* \"#utility.yul\":14258:14325   */\n      tag_138\n      jump\t// in\n    tag_305:\n        /* \"#utility.yul\":14251:14325   */\n      swap2\n      pop\n        /* \"#utility.yul\":14334:14427   */\n      tag_306\n        /* \"#utility.yul\":14423:14426   */\n      dup3\n        /* \"#utility.yul\":14334:14427   */\n      tag_166\n      jump\t// in\n    tag_306:\n        /* \"#utility.yul\":14452:14454   */\n      0x20\n        /* \"#utility.yul\":14447:14450   */\n      dup3\n        /* \"#utility.yul\":14443:14455   */\n      add\n        /* \"#utility.yul\":14436:14455   */\n      swap1\n      pop\n        /* \"#utility.yul\":14095:14461   */\n      swap2\n      swap1\n      pop\n      jump\t// out\n        /* \"#utility.yul\":14467:14886   */\n    tag_106:\n        /* \"#utility.yul\":14633:14637   */\n      0x00\n        /* \"#utility.yul\":14671:14673   */\n      0x20\n        /* \"#utility.yul\":14660:14669   */\n      dup3\n        /* \"#utility.yul\":14656:14674   */\n      add\n        /* \"#utility.yul\":14648:14674   */\n      swap1\n      pop\n        /* \"#utility.yul\":14720:14729   */\n      dup2\n        /* \"#utility.yul\":14714:14718   */\n      dup2\n        /* \"#utility.yul\":14710:14730   */\n      sub\n        /* \"#utility.yul\":14706:14707   */\n      0x00\n        /* \"#utility.yul\":14695:14704   */\n      dup4\n        /* \"#utility.yul\":14691:14708   */\n      add\n        /* \"#utility.yul\":14684:14731   */\n      mstore\n        /* \"#utility.yul\":14748:14879   */\n      tag_308\n        /* \"#utility.yul\":14874:14878   */\n      dup2\n        /* \"#utility.yul\":14748:14879   */\n      tag_167\n      jump\t// in\n    tag_308:\n        /* \"#utility.yul\":14740:14879   */\n      swap1\n      pop\n        /* \"#utility.yul\":14467:14886   */\n      swap2\n      swap1\n      pop\n      jump\t// out\n        /* \"#utility.yul\":14892:15282   */\n    tag_168:\n        /* \"#utility.yul\":14998:15001   */\n      0x00\n        /* \"#utility.yul\":15026:15065   */\n      tag_310\n        /* \"#utility.yul\":15059:15064   */\n      dup3\n        /* \"#utility.yul\":15026:15065   */\n      tag_137\n      jump\t// in\n    tag_310:\n        /* \"#utility.yul\":15081:15170   */\n      tag_311\n        /* \"#utility.yul\":15163:15169   */\n      dup2\n        /* \"#utility.yul\":15158:15161   */\n      dup6\n        /* \"#utility.yul\":15081:15170   */\n      tag_159\n      jump\t// in\n    tag_311:\n        /* \"#utility.yul\":15074:15170   */\n      swap4\n      pop\n        /* \"#utility.yul\":15179:15244   */\n      tag_312\n        /* \"#utility.yul\":15237:15243   */\n      dup2\n        /* \"#utility.yul\":15232:15235   */\n      dup6\n        /* \"#utility.yul\":15225:15229   */\n      0x20\n        /* \"#utility.yul\":15218:15223   */\n      dup7\n        /* \"#utility.yul\":15214:15230   */\n      add\n        /* \"#utility.yul\":15179:15244   */\n      tag_139\n      jump\t// in\n    tag_312:\n        /* \"#utility.yul\":15269:15275   */\n      dup1\n        /* \"#utility.yul\":15264:15267   */\n      dup5\n        /* \"#utility.yul\":15260:15276   */\n      add\n        /* \"#utility.yul\":15253:15276   */\n      swap2\n      pop\n        /* \"#utility.yul\":15002:15282   */\n      pop\n        /* \"#utility.yul\":14892:15282   */\n      swap3\n      swap2\n      pop\n      pop\n      jump\t// out\n        /* \"#utility.yul\":15288:15563   */\n    tag_111:\n        /* \"#utility.yul\":15420:15423   */\n      0x00\n        /* \"#utility.yul\":15442:15537   */\n      tag_314\n        /* \"#utility.yul\":15533:15536   */\n      dup3\n        /* \"#utility.yul\":15524:15530   */\n      dup5\n        /* \"#utility.yul\":15442:15537   */\n      tag_168\n      jump\t// in\n    tag_314:\n        /* \"#utility.yul\":15435:15537   */\n      swap2\n      pop\n        /* \"#utility.yul\":15554:15557   */\n      dup2\n        /* \"#utility.yul\":15547:15557   */\n      swap1\n      pop\n        /* \"#utility.yul\":15288:15563   */\n      swap3\n      swap2\n      pop\n      pop\n      jump\t// out\n        /* \"#utility.yul\":15569:15737   */\n    tag_169:\n        /* \"#utility.yul\":15709:15729   */\n      0x496e76616c69642063616e6469646174652e0000000000000000000000000000\n        /* \"#utility.yul\":15705:15706   */\n      0x00\n        /* \"#utility.yul\":15697:15703   */\n      dup3\n        /* \"#utility.yul\":15693:15707   */\n      add\n        /* \"#utility.yul\":15686:15730   */\n      mstore\n        /* \"#utility.yul\":15569:15737   */\n      pop\n      jump\t// out\n        /* \"#utility.yul\":15743:16109   */\n    tag_170:\n        /* \"#utility.yul\":15885:15888   */\n      0x00\n        /* \"#utility.yul\":15906:15973   */\n      tag_317\n        /* \"#utility.yul\":15970:15972   */\n      0x12\n        /* \"#utility.yul\":15965:15968   */\n      dup4\n        /* \"#utility.yul\":15906:15973   */\n      tag_138\n      jump\t// in\n    tag_317:\n        /* \"#utility.yul\":15899:15973   */\n      swap2\n      pop\n        /* \"#utility.yul\":15982:16075   */\n      tag_318\n        /* \"#utility.yul\":16071:16074   */\n      dup3\n        /* \"#utility.yul\":15982:16075   */\n      tag_169\n      jump\t// in\n    tag_318:\n        /* \"#utility.yul\":16100:16102   */\n      0x20\n        /* \"#utility.yul\":16095:16098   */\n      dup3\n        /* \"#utility.yul\":16091:16103   */\n      add\n        /* \"#utility.yul\":16084:16103   */\n      swap1\n      pop\n        /* \"#utility.yul\":15743:16109   */\n      swap2\n      swap1\n      pop\n      jump\t// out\n        /* \"#utility.yul\":16115:16534   */\n    tag_119:\n        /* \"#utility.yul\":16281:16285   */\n      0x00\n        /* \"#utility.yul\":16319:16321   */\n      0x20\n        /* \"#utility.yul\":16308:16317   */\n      dup3\n        /* \"#utility.yul\":16304:16322   */\n      add\n        /* \"#utility.yul\":16296:16322   */\n      swap1\n      pop\n        /* \"#utility.yul\":16368:16377   */\n      dup2\n        /* \"#utility.yul\":16362:16366   */\n      dup2\n        /* \"#utility.yul\":16358:16378   */\n      sub\n        /* \"#utility.yul\":16354:16355   */\n      0x00\n        /* \"#utility.yul\":16343:16352   */\n      dup4\n        /* \"#utility.yul\":16339:16356   */\n      add\n        /* \"#utility.yul\":16332:16379   */\n      mstore\n        /* \"#utility.yul\":16396:16527   */\n      tag_320\n        /* \"#utility.yul\":16522:16526   */\n      dup2\n        /* \"#utility.yul\":16396:16527   */\n      tag_170\n      jump\t// in\n    tag_320:\n        /* \"#utility.yul\":16388:16527   */\n      swap1\n      pop\n        /* \"#utility.yul\":16115:16534   */\n      swap2\n      swap1\n      pop\n      jump\t// out\n        /* \"#utility.yul\":16540:16720   */\n    tag_171:\n        /* \"#utility.yul\":16588:16665   */\n      0x4e487b7100000000000000000000000000000000000000000000000000000000\n        /* \"#utility.yul\":16585:16586   */\n      0x00\n        /* \"#utility.yul\":16578:16666   */\n      mstore\n        /* \"#utility.yul\":16685:16689   */\n      0x11\n        /* \"#utility.yul\":16682:16683   */\n      0x04\n        /* \"#utility.yul\":16675:16690   */\n      mstore\n        /* \"#utility.yul\":16709:16713   */\n      0x24\n        /* \"#utility.yul\":16706:16707   */\n      0x00\n        /* \"#utility.yul\":16699:16714   */\n      revert\n        /* \"#utility.yul\":16726:16959   */\n    tag_122:\n        /* \"#utility.yul\":16765:16768   */\n      0x00\n        /* \"#utility.yul\":16788:16812   */\n      tag_323\n        /* \"#utility.yul\":16806:16811   */\n      dup3\n        /* \"#utility.yul\":16788:16812   */\n      tag_124\n      jump\t// in\n    tag_323:\n        /* \"#utility.yul\":16779:16812   */\n      swap2\n      pop\n        /* \"#utility.yul\":16834:16900   */\n      0xffffffffffffffffffffffffffffffffffffffffffffffffffffffffffffffff\n        /* \"#utility.yul\":16827:16832   */\n      dup3\n        /* \"#utility.yul\":16824:16901   */\n      sub\n        /* \"#utility.yul\":16821:16924   */\n      tag_324\n      jumpi\n        /* \"#utility.yul\":16904:16922   */\n      tag_325\n      tag_171\n      jump\t// in\n    tag_325:\n        /* \"#utility.yul\":16821:16924   */\n    tag_324:\n        /* \"#utility.yul\":16951:16952   */\n      0x01\n        /* \"#utility.yul\":16944:16949   */\n      dup3\n        /* \"#utility.yul\":16940:16953   */\n      add\n        /* \"#utility.yul\":16933:16953   */\n      swap1\n      pop\n        /* \"#utility.yul\":16726:16959   */\n      swap2\n      swap1\n      pop\n      jump\t// out\n\n    auxdata: 0xa264697066735822122074823b6f71be9ecb236c0232631a3076a072e4891a5e83d112996a40824a4f4a64736f6c634300081a0033\n}\n",
				"bytecode": {
					"linkReferences": {},
					"object": "608060405234801561000f575f80fd5b50604051611943380380611943833981810160405281019061003191906103fe565b335f806101000a81548173ffffffffffffffffffffffffffffffffffffffff021916908373ffffffffffffffffffffffffffffffffffffffff160217905550826001908161007f919061068a565b5081600590805190602001906100969291906100ca565b5080426100a39190610786565b6002819055505f60065f6101000a81548160ff0219169083151502179055505050506107b9565b828054828255905f5260205f20908101928215610110579160200282015b8281111561010f5782518290816100ff919061068a565b50916020019190600101906100e8565b5b50905061011d9190610121565b5090565b5b80821115610140575f81816101379190610144565b50600101610122565b5090565b508054610150906104bd565b5f825580601f10610161575061017e565b601f0160209004905f5260205f209081019061017d9190610181565b5b50565b5b80821115610198575f815f905550600101610182565b5090565b5f604051905090565b5f80fd5b5f80fd5b5f80fd5b5f80fd5b5f601f19601f8301169050919050565b7f4e487b71000000000000000000000000000000000000000000000000000000005f52604160045260245ffd5b6101fb826101b5565b810181811067ffffffffffffffff8211171561021a576102196101c5565b5b80604052505050565b5f61022c61019c565b905061023882826101f2565b919050565b5f67ffffffffffffffff821115610257576102566101c5565b5b610260826101b5565b9050602081019050919050565b8281835e5f83830152505050565b5f61028d6102888461023d565b610223565b9050828152602081018484840111156102a9576102a86101b1565b5b6102b484828561026d565b509392505050565b5f82601f8301126102d0576102cf6101ad565b5b81516102e084826020860161027b565b91505092915050565b5f67ffffffffffffffff821115610303576103026101c5565b5b602082029050602081019050919050565b5f80fd5b5f61032a610325846102e9565b610223565b9050808382526020820190506020840283018581111561034d5761034c610314565b5b835b8181101561039457805167ffffffffffffffff811115610372576103716101ad565b5b80860161037f89826102bc565b8552602085019450505060208101905061034f565b5050509392505050565b5f82601f8301126103b2576103b16101ad565b5b81516103c2848260208601610318565b91505092915050565b5f819050919050565b6103dd816103cb565b81146103e7575f80fd5b50565b5f815190506103f8816103d4565b92915050565b5f805f60608486031215610415576104146101a5565b5b5f84015167ffffffffffffffff811115610432576104316101a9565b5b61043e868287016102bc565b935050602084015167ffffffffffffffff81111561045f5761045e6101a9565b5b61046b8682870161039e565b925050604061047c868287016103ea565b9150509250925092565b5f81519050919050565b7f4e487b71000000000000000000000000000000000000000000000000000000005f52602260045260245ffd5b5f60028204905060018216806104d457607f821691505b6020821081036104e7576104e6610490565b5b50919050565b5f819050815f5260205f209050919050565b5f6020601f8301049050919050565b5f82821b905092915050565b5f600883026105497fffffffffffffffffffffffffffffffffffffffffffffffffffffffffffffffff8261050e565b610553868361050e565b95508019841693508086168417925050509392505050565b5f819050919050565b5f61058e610589610584846103cb565b61056b565b6103cb565b9050919050565b5f819050919050565b6105a783610574565b6105bb6105b382610595565b84845461051a565b825550505050565b5f90565b6105cf6105c3565b6105da81848461059e565b505050565b5b818110156105fd576105f25f826105c7565b6001810190506105e0565b5050565b601f82111561064257610613816104ed565b61061c846104ff565b8101602085101561062b578190505b61063f610637856104ff565b8301826105df565b50505b505050565b5f82821c905092915050565b5f6106625f1984600802610647565b1980831691505092915050565b5f61067a8383610653565b9150826002028217905092915050565b61069382610486565b67ffffffffffffffff8111156106ac576106ab6101c5565b5b6106b682546104bd565b6106c1828285610601565b5f60209050601f8311600181146106f2575f84156106e0578287015190505b6106ea858261066f565b865550610751565b601f198416610700866104ed565b5f5b8281101561072757848901518255600182019150602085019450602081019050610702565b868310156107445784890151610740601f891682610653565b8355505b6001600288020188555050505b505050505050565b7f4e487b71000000000000000000000000000000000000000000000000000000005f52601160045260245ffd5b5f610790826103cb565b915061079b836103cb565b92508282019050808211156107b3576107b2610759565b5b92915050565b61117d806107c65f395ff3fe608060405234801561000f575f80fd5b5060043610610091575f3560e01c80638da5cb5b116100645780638da5cb5b14610131578063b99ef1fa1461014f578063bf63a5771461017f578063c3403ddf1461019d578063fc36e15b146101a757610091565b8063036ee8501461009557806309eef43e146100b35780632479ecb8146100e35780633477ee2e14610101575b5f80fd5b61009d6101c3565b6040516100aa9190610917565b60405180910390f35b6100cd60048036038101906100c8919061099b565b6101c9565b6040516100da91906109e0565b60405180910390f35b6100eb6101e6565b6040516100f891906109e0565b60405180910390f35b61011b60048036038101906101169190610a23565b6101f8565b6040516101289190610abe565b60405180910390f35b61013961029e565b6040516101469190610aed565b60405180910390f35b61016960048036038101906101649190610c32565b6102c1565b6040516101769190610917565b60405180910390f35b6101876102ee565b6040516101949190610abe565b60405180910390f35b6101a561037a565b005b6101c160048036038101906101bc9190610c32565b610632565b005b60025481565b6003602052805f5260405f205f915054906101000a900460ff1681565b60065f9054906101000a900460ff1681565b60058181548110610207575f80fd5b905f5260205f20015f91509050805461021f90610ca6565b80601f016020809104026020016040519081016040528092919081815260200182805461024b90610ca6565b80156102965780601f1061026d57610100808354040283529160200191610296565b820191905f5260205f20905b81548152906001019060200180831161027957829003601f168201915b505050505081565b5f8054906101000a900473ffffffffffffffffffffffffffffffffffffffff1681565b6004818051602081018201805184825260208301602085012081835280955050505050505f915090505481565b600180546102fb90610ca6565b80601f016020809104026020016040519081016040528092919081815260200182805461032790610ca6565b80156103725780601f1061034957610100808354040283529160200191610372565b820191905f5260205f20905b81548152906001019060200180831161035557829003601f168201915b505050505081565b5f8054906101000a900473ffffffffffffffffffffffffffffffffffffffff1673ffffffffffffffffffffffffffffffffffffffff163373ffffffffffffffffffffffffffffffffffffffff1614610407576040517f08c379a00000000000000000000000000000000000000000000000000000000081526004016103fe90610d20565b60405180910390fd5b600254421161044b576040517f08c379a000000000000000000000000000000000000000000000000000000000815260040161044290610d88565b60405180910390fd5b60065f9054906101000a900460ff161561049a576040517f08c379a000000000000000000000000000000000000000000000000000000000815260040161049190610df0565b60405180910390fd5b60605f805b6005805490508110156105dc57816004600583815481106104c3576104c2610e0e565b5b905f5260205f20016040516104d89190610ed7565b90815260200160405180910390205411156105cf5760046005828154811061050357610502610e0e565b5b905f5260205f20016040516105189190610ed7565b90815260200160405180910390205491506005818154811061053d5761053c610e0e565b5b905f5260205f2001805461055090610ca6565b80601f016020809104026020016040519081016040528092919081815260200182805461057c90610ca6565b80156105c75780601f1061059e576101008083540402835291602001916105c7565b820191905f5260205f20905b8154815290600101906020018083116105aa57829003601f168201915b505050505092505b808060010191505061049f565b50600160065f6101000a81548160ff0219169083151502179055507f3230e72ef07adc105de93ad791b887e1aff8d7d710b98494ad2b0d8d25e4a56c826040516106269190610abe565b60405180910390a15050565b600254421115610677576040517f08c379a000000000000000000000000000000000000000000000000000000000815260040161066e90610f37565b60405180910390fd5b60035f3373ffffffffffffffffffffffffffffffffffffffff1673ffffffffffffffffffffffffffffffffffffffff1681526020019081526020015f205f9054906101000a900460ff1615610701576040517f08c379a00000000000000000000000000000000000000000000000000000000081526004016106f890610f9f565b60405180910390fd5b60065f9054906101000a900460ff1615610750576040517f08c379a000000000000000000000000000000000000000000000000000000000815260040161074790611007565b60405180910390fd5b5f805b6005805490508110156107e457826040516020016107719190611055565b604051602081830303815290604052805190602001206005828154811061079b5761079a610e0e565b5b905f5260205f20016040516020016107b39190610ed7565b60405160208183030381529060405280519060200120036107d757600191506107e4565b8080600101915050610753565b5080610825576040517f08c379a000000000000000000000000000000000000000000000000000000000815260040161081c906110b5565b60405180910390fd5b6004826040516108359190611055565b90815260200160405180910390205f81548092919061085390611100565b9190505550600160035f3373ffffffffffffffffffffffffffffffffffffffff1673ffffffffffffffffffffffffffffffffffffffff1681526020019081526020015f205f6101000a81548160ff0219169083151502179055503373ffffffffffffffffffffffffffffffffffffffff167f866dc605853954ffa419910eb05d67f430efec2e7db7ce135bf55565667a4ab4836040516108f39190610abe565b60405180910390a25050565b5f819050919050565b610911816108ff565b82525050565b5f60208201905061092a5f830184610908565b92915050565b5f604051905090565b5f80fd5b5f80fd5b5f73ffffffffffffffffffffffffffffffffffffffff82169050919050565b5f61096a82610941565b9050919050565b61097a81610960565b8114610984575f80fd5b50565b5f8135905061099581610971565b92915050565b5f602082840312156109b0576109af610939565b5b5f6109bd84828501610987565b91505092915050565b5f8115159050919050565b6109da816109c6565b82525050565b5f6020820190506109f35f8301846109d1565b92915050565b610a02816108ff565b8114610a0c575f80fd5b50565b5f81359050610a1d816109f9565b92915050565b5f60208284031215610a3857610a37610939565b5b5f610a4584828501610a0f565b91505092915050565b5f81519050919050565b5f82825260208201905092915050565b8281835e5f83830152505050565b5f601f19601f8301169050919050565b5f610a9082610a4e565b610a9a8185610a58565b9350610aaa818560208601610a68565b610ab381610a76565b840191505092915050565b5f6020820190508181035f830152610ad68184610a86565b905092915050565b610ae781610960565b82525050565b5f602082019050610b005f830184610ade565b92915050565b5f80fd5b5f80fd5b7f4e487b71000000000000000000000000000000000000000000000000000000005f52604160045260245ffd5b610b4482610a76565b810181811067ffffffffffffffff82111715610b6357610b62610b0e565b5b80604052505050565b5f610b75610930565b9050610b818282610b3b565b919050565b5f67ffffffffffffffff821115610ba057610b9f610b0e565b5b610ba982610a76565b9050602081019050919050565b828183375f83830152505050565b5f610bd6610bd184610b86565b610b6c565b905082815260208101848484011115610bf257610bf1610b0a565b5b610bfd848285610bb6565b509392505050565b5f82601f830112610c1957610c18610b06565b5b8135610c29848260208601610bc4565b91505092915050565b5f60208284031215610c4757610c46610939565b5b5f82013567ffffffffffffffff811115610c6457610c6361093d565b5b610c7084828501610c05565b91505092915050565b7f4e487b71000000000000000000000000000000000000000000000000000000005f52602260045260245ffd5b5f6002820490506001821680610cbd57607f821691505b602082108103610cd057610ccf610c79565b5b50919050565b7f4f6e6c79206f776e65722063616e2063616c6c20746869732e000000000000005f82015250565b5f610d0a601983610a58565b9150610d1582610cd6565b602082019050919050565b5f6020820190508181035f830152610d3781610cfe565b9050919050565b7f566f74696e6720706572696f64207374696c6c206163746976652e00000000005f82015250565b5f610d72601b83610a58565b9150610d7d82610d3e565b602082019050919050565b5f6020820190508181035f830152610d9f81610d66565b9050919050565b7f566f74696e6720616c726561647920656e6465642e00000000000000000000005f82015250565b5f610dda601583610a58565b9150610de582610da6565b602082019050919050565b5f6020820190508181035f830152610e0781610dce565b9050919050565b7f4e487b71000000000000000000000000000000000000000000000000000000005f52603260045260245ffd5b5f81905092915050565b5f819050815f5260205f209050919050565b5f8154610e6381610ca6565b610e6d8186610e3b565b9450600182165f8114610e875760018114610e9c57610ece565b60ff1983168652811515820286019350610ece565b610ea585610e45565b5f5b83811015610ec657815481890152600182019150602081019050610ea7565b838801955050505b50505092915050565b5f610ee28284610e57565b915081905092915050565b7f566f74696e6720706572696f64206973206f7665722e000000000000000000005f82015250565b5f610f21601683610a58565b9150610f2c82610eed565b602082019050919050565b5f6020820190508181035f830152610f4e81610f15565b9050919050565b7f596f75206861766520616c726561647920766f7465642e0000000000000000005f82015250565b5f610f89601783610a58565b9150610f9482610f55565b602082019050919050565b5f6020820190508181035f830152610fb681610f7d565b9050919050565b7f566f74696e672068617320656e6465642e0000000000000000000000000000005f82015250565b5f610ff1601183610a58565b9150610ffc82610fbd565b602082019050919050565b5f6020820190508181035f83015261101e81610fe5565b9050919050565b5f61102f82610a4e565b6110398185610e3b565b9350611049818560208601610a68565b80840191505092915050565b5f6110608284611025565b915081905092915050565b7f496e76616c69642063616e6469646174652e00000000000000000000000000005f82015250565b5f61109f601283610a58565b91506110aa8261106b565b602082019050919050565b5f6020820190508181035f8301526110cc81611093565b9050919050565b7f4e487b71000000000000000000000000000000000000000000000000000000005f52601160045260245ffd5b5f61110a826108ff565b91507fffffffffffffffffffffffffffffffffffffffffffffffffffffffffffffffff820361113c5761113b6110d3565b5b60018201905091905056fea264697066735822122074823b6f71be9ecb236c0232631a3076a072e4891a5e83d112996a40824a4f4a64736f6c634300081a0033",
					"opcodes": "PUSH1 0x80 PUSH1 0x40 MSTORE CALLVALUE DUP1 ISZERO PUSH2 0xF JUMPI PUSH0 DUP1 REVERT JUMPDEST POP PUSH1 0x40 MLOAD PUSH2 0x1943 CODESIZE SUB DUP1 PUSH2 0x1943 DUP4 CODECOPY DUP2 DUP2 ADD PUSH1 0x40 MSTORE DUP2 ADD SWAP1 PUSH2 0x31 SWAP2 SWAP1 PUSH2 0x3FE JUMP JUMPDEST CALLER PUSH0 DUP1 PUSH2 0x100 EXP DUP2 SLOAD DUP2 PUSH20 0xFFFFFFFFFFFFFFFFFFFFFFFFFFFFFFFFFFFFFFFF MUL NOT AND SWAP1 DUP4 PUSH20 0xFFFFFFFFFFFFFFFFFFFFFFFFFFFFFFFFFFFFFFFF AND MUL OR SWAP1 SSTORE POP DUP3 PUSH1 0x1 SWAP1 DUP2 PUSH2 0x7F SWAP2 SWAP1 PUSH2 0x68A JUMP JUMPDEST POP DUP2 PUSH1 0x5 SWAP1 DUP1 MLOAD SWAP1 PUSH1 0x20 ADD SWAP1 PUSH2 0x96 SWAP3 SWAP2 SWAP1 PUSH2 0xCA JUMP JUMPDEST POP DUP1 TIMESTAMP PUSH2 0xA3 SWAP2 SWAP1 PUSH2 0x786 JUMP JUMPDEST PUSH1 0x2 DUP2 SWAP1 SSTORE POP PUSH0 PUSH1 0x6 PUSH0 PUSH2 0x100 EXP DUP2 SLOAD DUP2 PUSH1 0xFF MUL NOT AND SWAP1 DUP4 ISZERO ISZERO MUL OR SWAP1 SSTORE POP POP POP POP PUSH2 0x7B9 JUMP JUMPDEST DUP3 DUP1 SLOAD DUP3 DUP3 SSTORE SWAP1 PUSH0 MSTORE PUSH1 0x20 PUSH0 KECCAK256 SWAP1 DUP2 ADD SWAP3 DUP3 ISZERO PUSH2 0x110 JUMPI SWAP2 PUSH1 0x20 MUL DUP3 ADD JUMPDEST DUP3 DUP2 GT ISZERO PUSH2 0x10F JUMPI DUP3 MLOAD DUP3 SWAP1 DUP2 PUSH2 0xFF SWAP2 SWAP1 PUSH2 0x68A JUMP JUMPDEST POP SWAP2 PUSH1 0x20 ADD SWAP2 SWAP1 PUSH1 0x1 ADD SWAP1 PUSH2 0xE8 JUMP JUMPDEST JUMPDEST POP SWAP1 POP PUSH2 0x11D SWAP2 SWAP1 PUSH2 0x121 JUMP JUMPDEST POP SWAP1 JUMP JUMPDEST JUMPDEST DUP1 DUP3 GT ISZERO PUSH2 0x140 JUMPI PUSH0 DUP2 DUP2 PUSH2 0x137 SWAP2 SWAP1 PUSH2 0x144 JUMP JUMPDEST POP PUSH1 0x1 ADD PUSH2 0x122 JUMP JUMPDEST POP SWAP1 JUMP JUMPDEST POP DUP1 SLOAD PUSH2 0x150 SWAP1 PUSH2 0x4BD JUMP JUMPDEST PUSH0 DUP3 SSTORE DUP1 PUSH1 0x1F LT PUSH2 0x161 JUMPI POP PUSH2 0x17E JUMP JUMPDEST PUSH1 0x1F ADD PUSH1 0x20 SWAP1 DIV SWAP1 PUSH0 MSTORE PUSH1 0x20 PUSH0 KECCAK256 SWAP1 DUP2 ADD SWAP1 PUSH2 0x17D SWAP2 SWAP1 PUSH2 0x181 JUMP JUMPDEST JUMPDEST POP JUMP JUMPDEST JUMPDEST DUP1 DUP3 GT ISZERO PUSH2 0x198 JUMPI PUSH0 DUP2 PUSH0 SWAP1 SSTORE POP PUSH1 0x1 ADD PUSH2 0x182 JUMP JUMPDEST POP SWAP1 JUMP JUMPDEST PUSH0 PUSH1 0x40 MLOAD SWAP1 POP SWAP1 JUMP JUMPDEST PUSH0 DUP1 REVERT JUMPDEST PUSH0 DUP1 REVERT JUMPDEST PUSH0 DUP1 REVERT JUMPDEST PUSH0 DUP1 REVERT JUMPDEST PUSH0 PUSH1 0x1F NOT PUSH1 0x1F DUP4 ADD AND SWAP1 POP SWAP2 SWAP1 POP JUMP JUMPDEST PUSH32 0x4E487B7100000000000000000000000000000000000000000000000000000000 PUSH0 MSTORE PUSH1 0x41 PUSH1 0x4 MSTORE PUSH1 0x24 PUSH0 REVERT JUMPDEST PUSH2 0x1FB DUP3 PUSH2 0x1B5 JUMP JUMPDEST DUP2 ADD DUP2 DUP2 LT PUSH8 0xFFFFFFFFFFFFFFFF DUP3 GT OR ISZERO PUSH2 0x21A JUMPI PUSH2 0x219 PUSH2 0x1C5 JUMP JUMPDEST JUMPDEST DUP1 PUSH1 0x40 MSTORE POP POP POP JUMP JUMPDEST PUSH0 PUSH2 0x22C PUSH2 0x19C JUMP JUMPDEST SWAP1 POP PUSH2 0x238 DUP3 DUP3 PUSH2 0x1F2 JUMP JUMPDEST SWAP2 SWAP1 POP JUMP JUMPDEST PUSH0 PUSH8 0xFFFFFFFFFFFFFFFF DUP3 GT ISZERO PUSH2 0x257 JUMPI PUSH2 0x256 PUSH2 0x1C5 JUMP JUMPDEST JUMPDEST PUSH2 0x260 DUP3 PUSH2 0x1B5 JUMP JUMPDEST SWAP1 POP PUSH1 0x20 DUP2 ADD SWAP1 POP SWAP2 SWAP1 POP JUMP JUMPDEST DUP3 DUP2 DUP4 MCOPY PUSH0 DUP4 DUP4 ADD MSTORE POP POP POP JUMP JUMPDEST PUSH0 PUSH2 0x28D PUSH2 0x288 DUP5 PUSH2 0x23D JUMP JUMPDEST PUSH2 0x223 JUMP JUMPDEST SWAP1 POP DUP3 DUP2 MSTORE PUSH1 0x20 DUP2 ADD DUP5 DUP5 DUP5 ADD GT ISZERO PUSH2 0x2A9 JUMPI PUSH2 0x2A8 PUSH2 0x1B1 JUMP JUMPDEST JUMPDEST PUSH2 0x2B4 DUP5 DUP3 DUP6 PUSH2 0x26D JUMP JUMPDEST POP SWAP4 SWAP3 POP POP POP JUMP JUMPDEST PUSH0 DUP3 PUSH1 0x1F DUP4 ADD SLT PUSH2 0x2D0 JUMPI PUSH2 0x2CF PUSH2 0x1AD JUMP JUMPDEST JUMPDEST DUP2 MLOAD PUSH2 0x2E0 DUP5 DUP3 PUSH1 0x20 DUP7 ADD PUSH2 0x27B JUMP JUMPDEST SWAP2 POP POP SWAP3 SWAP2 POP POP JUMP JUMPDEST PUSH0 PUSH8 0xFFFFFFFFFFFFFFFF DUP3 GT ISZERO PUSH2 0x303 JUMPI PUSH2 0x302 PUSH2 0x1C5 JUMP JUMPDEST JUMPDEST PUSH1 0x20 DUP3 MUL SWAP1 POP PUSH1 0x20 DUP2 ADD SWAP1 POP SWAP2 SWAP1 POP JUMP JUMPDEST PUSH0 DUP1 REVERT JUMPDEST PUSH0 PUSH2 0x32A PUSH2 0x325 DUP5 PUSH2 0x2E9 JUMP JUMPDEST PUSH2 0x223 JUMP JUMPDEST SWAP1 POP DUP1 DUP4 DUP3 MSTORE PUSH1 0x20 DUP3 ADD SWAP1 POP PUSH1 0x20 DUP5 MUL DUP4 ADD DUP6 DUP2 GT ISZERO PUSH2 0x34D JUMPI PUSH2 0x34C PUSH2 0x314 JUMP JUMPDEST JUMPDEST DUP4 JUMPDEST DUP2 DUP2 LT ISZERO PUSH2 0x394 JUMPI DUP1 MLOAD PUSH8 0xFFFFFFFFFFFFFFFF DUP2 GT ISZERO PUSH2 0x372 JUMPI PUSH2 0x371 PUSH2 0x1AD JUMP JUMPDEST JUMPDEST DUP1 DUP7 ADD PUSH2 0x37F DUP10 DUP3 PUSH2 0x2BC JUMP JUMPDEST DUP6 MSTORE PUSH1 0x20 DUP6 ADD SWAP5 POP POP POP PUSH1 0x20 DUP2 ADD SWAP1 POP PUSH2 0x34F JUMP JUMPDEST POP POP POP SWAP4 SWAP3 POP POP POP JUMP JUMPDEST PUSH0 DUP3 PUSH1 0x1F DUP4 ADD SLT PUSH2 0x3B2 JUMPI PUSH2 0x3B1 PUSH2 0x1AD JUMP JUMPDEST JUMPDEST DUP2 MLOAD PUSH2 0x3C2 DUP5 DUP3 PUSH1 0x20 DUP7 ADD PUSH2 0x318 JUMP JUMPDEST SWAP2 POP POP SWAP3 SWAP2 POP POP JUMP JUMPDEST PUSH0 DUP2 SWAP1 POP SWAP2 SWAP1 POP JUMP JUMPDEST PUSH2 0x3DD DUP2 PUSH2 0x3CB JUMP JUMPDEST DUP2 EQ PUSH2 0x3E7 JUMPI PUSH0 DUP1 REVERT JUMPDEST POP JUMP JUMPDEST PUSH0 DUP2 MLOAD SWAP1 POP PUSH2 0x3F8 DUP2 PUSH2 0x3D4 JUMP JUMPDEST SWAP3 SWAP2 POP POP JUMP JUMPDEST PUSH0 DUP1 PUSH0 PUSH1 0x60 DUP5 DUP7 SUB SLT ISZERO PUSH2 0x415 JUMPI PUSH2 0x414 PUSH2 0x1A5 JUMP JUMPDEST JUMPDEST PUSH0 DUP5 ADD MLOAD PUSH8 0xFFFFFFFFFFFFFFFF DUP2 GT ISZERO PUSH2 0x432 JUMPI PUSH2 0x431 PUSH2 0x1A9 JUMP JUMPDEST JUMPDEST PUSH2 0x43E DUP7 DUP3 DUP8 ADD PUSH2 0x2BC JUMP JUMPDEST SWAP4 POP POP PUSH1 0x20 DUP5 ADD MLOAD PUSH8 0xFFFFFFFFFFFFFFFF DUP2 GT ISZERO PUSH2 0x45F JUMPI PUSH2 0x45E PUSH2 0x1A9 JUMP JUMPDEST JUMPDEST PUSH2 0x46B DUP7 DUP3 DUP8 ADD PUSH2 0x39E JUMP JUMPDEST SWAP3 POP POP PUSH1 0x40 PUSH2 0x47C DUP7 DUP3 DUP8 ADD PUSH2 0x3EA JUMP JUMPDEST SWAP2 POP POP SWAP3 POP SWAP3 POP SWAP3 JUMP JUMPDEST PUSH0 DUP2 MLOAD SWAP1 POP SWAP2 SWAP1 POP JUMP JUMPDEST PUSH32 0x4E487B7100000000000000000000000000000000000000000000000000000000 PUSH0 MSTORE PUSH1 0x22 PUSH1 0x4 MSTORE PUSH1 0x24 PUSH0 REVERT JUMPDEST PUSH0 PUSH1 0x2 DUP3 DIV SWAP1 POP PUSH1 0x1 DUP3 AND DUP1 PUSH2 0x4D4 JUMPI PUSH1 0x7F DUP3 AND SWAP2 POP JUMPDEST PUSH1 0x20 DUP3 LT DUP2 SUB PUSH2 0x4E7 JUMPI PUSH2 0x4E6 PUSH2 0x490 JUMP JUMPDEST JUMPDEST POP SWAP2 SWAP1 POP JUMP JUMPDEST PUSH0 DUP2 SWAP1 POP DUP2 PUSH0 MSTORE PUSH1 0x20 PUSH0 KECCAK256 SWAP1 POP SWAP2 SWAP1 POP JUMP JUMPDEST PUSH0 PUSH1 0x20 PUSH1 0x1F DUP4 ADD DIV SWAP1 POP SWAP2 SWAP1 POP JUMP JUMPDEST PUSH0 DUP3 DUP3 SHL SWAP1 POP SWAP3 SWAP2 POP POP JUMP JUMPDEST PUSH0 PUSH1 0x8 DUP4 MUL PUSH2 0x549 PUSH32 0xFFFFFFFFFFFFFFFFFFFFFFFFFFFFFFFFFFFFFFFFFFFFFFFFFFFFFFFFFFFFFFFF DUP3 PUSH2 0x50E JUMP JUMPDEST PUSH2 0x553 DUP7 DUP4 PUSH2 0x50E JUMP JUMPDEST SWAP6 POP DUP1 NOT DUP5 AND SWAP4 POP DUP1 DUP7 AND DUP5 OR SWAP3 POP POP POP SWAP4 SWAP3 POP POP POP JUMP JUMPDEST PUSH0 DUP2 SWAP1 POP SWAP2 SWAP1 POP JUMP JUMPDEST PUSH0 PUSH2 0x58E PUSH2 0x589 PUSH2 0x584 DUP5 PUSH2 0x3CB JUMP JUMPDEST PUSH2 0x56B JUMP JUMPDEST PUSH2 0x3CB JUMP JUMPDEST SWAP1 POP SWAP2 SWAP1 POP JUMP JUMPDEST PUSH0 DUP2 SWAP1 POP SWAP2 SWAP1 POP JUMP JUMPDEST PUSH2 0x5A7 DUP4 PUSH2 0x574 JUMP JUMPDEST PUSH2 0x5BB PUSH2 0x5B3 DUP3 PUSH2 0x595 JUMP JUMPDEST DUP5 DUP5 SLOAD PUSH2 0x51A JUMP JUMPDEST DUP3 SSTORE POP POP POP POP JUMP JUMPDEST PUSH0 SWAP1 JUMP JUMPDEST PUSH2 0x5CF PUSH2 0x5C3 JUMP JUMPDEST PUSH2 0x5DA DUP2 DUP5 DUP5 PUSH2 0x59E JUMP JUMPDEST POP POP POP JUMP JUMPDEST JUMPDEST DUP2 DUP2 LT ISZERO PUSH2 0x5FD JUMPI PUSH2 0x5F2 PUSH0 DUP3 PUSH2 0x5C7 JUMP JUMPDEST PUSH1 0x1 DUP2 ADD SWAP1 POP PUSH2 0x5E0 JUMP JUMPDEST POP POP JUMP JUMPDEST PUSH1 0x1F DUP3 GT ISZERO PUSH2 0x642 JUMPI PUSH2 0x613 DUP2 PUSH2 0x4ED JUMP JUMPDEST PUSH2 0x61C DUP5 PUSH2 0x4FF JUMP JUMPDEST DUP2 ADD PUSH1 0x20 DUP6 LT ISZERO PUSH2 0x62B JUMPI DUP2 SWAP1 POP JUMPDEST PUSH2 0x63F PUSH2 0x637 DUP6 PUSH2 0x4FF JUMP JUMPDEST DUP4 ADD DUP3 PUSH2 0x5DF JUMP JUMPDEST POP POP JUMPDEST POP POP POP JUMP JUMPDEST PUSH0 DUP3 DUP3 SHR SWAP1 POP SWAP3 SWAP2 POP POP JUMP JUMPDEST PUSH0 PUSH2 0x662 PUSH0 NOT DUP5 PUSH1 0x8 MUL PUSH2 0x647 JUMP JUMPDEST NOT DUP1 DUP4 AND SWAP2 POP POP SWAP3 SWAP2 POP POP JUMP JUMPDEST PUSH0 PUSH2 0x67A DUP4 DUP4 PUSH2 0x653 JUMP JUMPDEST SWAP2 POP DUP3 PUSH1 0x2 MUL DUP3 OR SWAP1 POP SWAP3 SWAP2 POP POP JUMP JUMPDEST PUSH2 0x693 DUP3 PUSH2 0x486 JUMP JUMPDEST PUSH8 0xFFFFFFFFFFFFFFFF DUP2 GT ISZERO PUSH2 0x6AC JUMPI PUSH2 0x6AB PUSH2 0x1C5 JUMP JUMPDEST JUMPDEST PUSH2 0x6B6 DUP3 SLOAD PUSH2 0x4BD JUMP JUMPDEST PUSH2 0x6C1 DUP3 DUP3 DUP6 PUSH2 0x601 JUMP JUMPDEST PUSH0 PUSH1 0x20 SWAP1 POP PUSH1 0x1F DUP4 GT PUSH1 0x1 DUP2 EQ PUSH2 0x6F2 JUMPI PUSH0 DUP5 ISZERO PUSH2 0x6E0 JUMPI DUP3 DUP8 ADD MLOAD SWAP1 POP JUMPDEST PUSH2 0x6EA DUP6 DUP3 PUSH2 0x66F JUMP JUMPDEST DUP7 SSTORE POP PUSH2 0x751 JUMP JUMPDEST PUSH1 0x1F NOT DUP5 AND PUSH2 0x700 DUP7 PUSH2 0x4ED JUMP JUMPDEST PUSH0 JUMPDEST DUP3 DUP2 LT ISZERO PUSH2 0x727 JUMPI DUP5 DUP10 ADD MLOAD DUP3 SSTORE PUSH1 0x1 DUP3 ADD SWAP2 POP PUSH1 0x20 DUP6 ADD SWAP5 POP PUSH1 0x20 DUP2 ADD SWAP1 POP PUSH2 0x702 JUMP JUMPDEST DUP7 DUP4 LT ISZERO PUSH2 0x744 JUMPI DUP5 DUP10 ADD MLOAD PUSH2 0x740 PUSH1 0x1F DUP10 AND DUP3 PUSH2 0x653 JUMP JUMPDEST DUP4 SSTORE POP JUMPDEST PUSH1 0x1 PUSH1 0x2 DUP9 MUL ADD DUP9 SSTORE POP POP POP JUMPDEST POP POP POP POP POP POP JUMP JUMPDEST PUSH32 0x4E487B7100000000000000000000000000000000000000000000000000000000 PUSH0 MSTORE PUSH1 0x11 PUSH1 0x4 MSTORE PUSH1 0x24 PUSH0 REVERT JUMPDEST PUSH0 PUSH2 0x790 DUP3 PUSH2 0x3CB JUMP JUMPDEST SWAP2 POP PUSH2 0x79B DUP4 PUSH2 0x3CB JUMP JUMPDEST SWAP3 POP DUP3 DUP3 ADD SWAP1 POP DUP1 DUP3 GT ISZERO PUSH2 0x7B3 JUMPI PUSH2 0x7B2 PUSH2 0x759 JUMP JUMPDEST JUMPDEST SWAP3 SWAP2 POP POP JUMP JUMPDEST PUSH2 0x117D DUP1 PUSH2 0x7C6 PUSH0 CODECOPY PUSH0 RETURN INVALID PUSH1 0x80 PUSH1 0x40 MSTORE CALLVALUE DUP1 ISZERO PUSH2 0xF JUMPI PUSH0 DUP1 REVERT JUMPDEST POP PUSH1 0x4 CALLDATASIZE LT PUSH2 0x91 JUMPI PUSH0 CALLDATALOAD PUSH1 0xE0 SHR DUP1 PUSH4 0x8DA5CB5B GT PUSH2 0x64 JUMPI DUP1 PUSH4 0x8DA5CB5B EQ PUSH2 0x131 JUMPI DUP1 PUSH4 0xB99EF1FA EQ PUSH2 0x14F JUMPI DUP1 PUSH4 0xBF63A577 EQ PUSH2 0x17F JUMPI DUP1 PUSH4 0xC3403DDF EQ PUSH2 0x19D JUMPI DUP1 PUSH4 0xFC36E15B EQ PUSH2 0x1A7 JUMPI PUSH2 0x91 JUMP JUMPDEST DUP1 PUSH4 0x36EE850 EQ PUSH2 0x95 JUMPI DUP1 PUSH4 0x9EEF43E EQ PUSH2 0xB3 JUMPI DUP1 PUSH4 0x2479ECB8 EQ PUSH2 0xE3 JUMPI DUP1 PUSH4 0x3477EE2E EQ PUSH2 0x101 JUMPI JUMPDEST PUSH0 DUP1 REVERT JUMPDEST PUSH2 0x9D PUSH2 0x1C3 JUMP JUMPDEST PUSH1 0x40 MLOAD PUSH2 0xAA SWAP2 SWAP1 PUSH2 0x917 JUMP JUMPDEST PUSH1 0x40 MLOAD DUP1 SWAP2 SUB SWAP1 RETURN JUMPDEST PUSH2 0xCD PUSH1 0x4 DUP1 CALLDATASIZE SUB DUP2 ADD SWAP1 PUSH2 0xC8 SWAP2 SWAP1 PUSH2 0x99B JUMP JUMPDEST PUSH2 0x1C9 JUMP JUMPDEST PUSH1 0x40 MLOAD PUSH2 0xDA SWAP2 SWAP1 PUSH2 0x9E0 JUMP JUMPDEST PUSH1 0x40 MLOAD DUP1 SWAP2 SUB SWAP1 RETURN JUMPDEST PUSH2 0xEB PUSH2 0x1E6 JUMP JUMPDEST PUSH1 0x40 MLOAD PUSH2 0xF8 SWAP2 SWAP1 PUSH2 0x9E0 JUMP JUMPDEST PUSH1 0x40 MLOAD DUP1 SWAP2 SUB SWAP1 RETURN JUMPDEST PUSH2 0x11B PUSH1 0x4 DUP1 CALLDATASIZE SUB DUP2 ADD SWAP1 PUSH2 0x116 SWAP2 SWAP1 PUSH2 0xA23 JUMP JUMPDEST PUSH2 0x1F8 JUMP JUMPDEST PUSH1 0x40 MLOAD PUSH2 0x128 SWAP2 SWAP1 PUSH2 0xABE JUMP JUMPDEST PUSH1 0x40 MLOAD DUP1 SWAP2 SUB SWAP1 RETURN JUMPDEST PUSH2 0x139 PUSH2 0x29E JUMP JUMPDEST PUSH1 0x40 MLOAD PUSH2 0x146 SWAP2 SWAP1 PUSH2 0xAED JUMP JUMPDEST PUSH1 0x40 MLOAD DUP1 SWAP2 SUB SWAP1 RETURN JUMPDEST PUSH2 0x169 PUSH1 0x4 DUP1 CALLDATASIZE SUB DUP2 ADD SWAP1 PUSH2 0x164 SWAP2 SWAP1 PUSH2 0xC32 JUMP JUMPDEST PUSH2 0x2C1 JUMP JUMPDEST PUSH1 0x40 MLOAD PUSH2 0x176 SWAP2 SWAP1 PUSH2 0x917 JUMP JUMPDEST PUSH1 0x40 MLOAD DUP1 SWAP2 SUB SWAP1 RETURN JUMPDEST PUSH2 0x187 PUSH2 0x2EE JUMP JUMPDEST PUSH1 0x40 MLOAD PUSH2 0x194 SWAP2 SWAP1 PUSH2 0xABE JUMP JUMPDEST PUSH1 0x40 MLOAD DUP1 SWAP2 SUB SWAP1 RETURN JUMPDEST PUSH2 0x1A5 PUSH2 0x37A JUMP JUMPDEST STOP JUMPDEST PUSH2 0x1C1 PUSH1 0x4 DUP1 CALLDATASIZE SUB DUP2 ADD SWAP1 PUSH2 0x1BC SWAP2 SWAP1 PUSH2 0xC32 JUMP JUMPDEST PUSH2 0x632 JUMP JUMPDEST STOP JUMPDEST PUSH1 0x2 SLOAD DUP2 JUMP JUMPDEST PUSH1 0x3 PUSH1 0x20 MSTORE DUP1 PUSH0 MSTORE PUSH1 0x40 PUSH0 KECCAK256 PUSH0 SWAP2 POP SLOAD SWAP1 PUSH2 0x100 EXP SWAP1 DIV PUSH1 0xFF AND DUP2 JUMP JUMPDEST PUSH1 0x6 PUSH0 SWAP1 SLOAD SWAP1 PUSH2 0x100 EXP SWAP1 DIV PUSH1 0xFF AND DUP2 JUMP JUMPDEST PUSH1 0x5 DUP2 DUP2 SLOAD DUP2 LT PUSH2 0x207 JUMPI PUSH0 DUP1 REVERT JUMPDEST SWAP1 PUSH0 MSTORE PUSH1 0x20 PUSH0 KECCAK256 ADD PUSH0 SWAP2 POP SWAP1 POP DUP1 SLOAD PUSH2 0x21F SWAP1 PUSH2 0xCA6 JUMP JUMPDEST DUP1 PUSH1 0x1F ADD PUSH1 0x20 DUP1 SWAP2 DIV MUL PUSH1 0x20 ADD PUSH1 0x40 MLOAD SWAP1 DUP2 ADD PUSH1 0x40 MSTORE DUP1 SWAP3 SWAP2 SWAP1 DUP2 DUP2 MSTORE PUSH1 0x20 ADD DUP3 DUP1 SLOAD PUSH2 0x24B SWAP1 PUSH2 0xCA6 JUMP JUMPDEST DUP1 ISZERO PUSH2 0x296 JUMPI DUP1 PUSH1 0x1F LT PUSH2 0x26D JUMPI PUSH2 0x100 DUP1 DUP4 SLOAD DIV MUL DUP4 MSTORE SWAP2 PUSH1 0x20 ADD SWAP2 PUSH2 0x296 JUMP JUMPDEST DUP3 ADD SWAP2 SWAP1 PUSH0 MSTORE PUSH1 0x20 PUSH0 KECCAK256 SWAP1 JUMPDEST DUP2 SLOAD DUP2 MSTORE SWAP1 PUSH1 0x1 ADD SWAP1 PUSH1 0x20 ADD DUP1 DUP4 GT PUSH2 0x279 JUMPI DUP3 SWAP1 SUB PUSH1 0x1F AND DUP3 ADD SWAP2 JUMPDEST POP POP POP POP POP DUP2 JUMP JUMPDEST PUSH0 DUP1 SLOAD SWAP1 PUSH2 0x100 EXP SWAP1 DIV PUSH20 0xFFFFFFFFFFFFFFFFFFFFFFFFFFFFFFFFFFFFFFFF AND DUP2 JUMP JUMPDEST PUSH1 0x4 DUP2 DUP1 MLOAD PUSH1 0x20 DUP2 ADD DUP3 ADD DUP1 MLOAD DUP5 DUP3 MSTORE PUSH1 0x20 DUP4 ADD PUSH1 0x20 DUP6 ADD KECCAK256 DUP2 DUP4 MSTORE DUP1 SWAP6 POP POP POP POP POP POP PUSH0 SWAP2 POP SWAP1 POP SLOAD DUP2 JUMP JUMPDEST PUSH1 0x1 DUP1 SLOAD PUSH2 0x2FB SWAP1 PUSH2 0xCA6 JUMP JUMPDEST DUP1 PUSH1 0x1F ADD PUSH1 0x20 DUP1 SWAP2 DIV MUL PUSH1 0x20 ADD PUSH1 0x40 MLOAD SWAP1 DUP2 ADD PUSH1 0x40 MSTORE DUP1 SWAP3 SWAP2 SWAP1 DUP2 DUP2 MSTORE PUSH1 0x20 ADD DUP3 DUP1 SLOAD PUSH2 0x327 SWAP1 PUSH2 0xCA6 JUMP JUMPDEST DUP1 ISZERO PUSH2 0x372 JUMPI DUP1 PUSH1 0x1F LT PUSH2 0x349 JUMPI PUSH2 0x100 DUP1 DUP4 SLOAD DIV MUL DUP4 MSTORE SWAP2 PUSH1 0x20 ADD SWAP2 PUSH2 0x372 JUMP JUMPDEST DUP3 ADD SWAP2 SWAP1 PUSH0 MSTORE PUSH1 0x20 PUSH0 KECCAK256 SWAP1 JUMPDEST DUP2 SLOAD DUP2 MSTORE SWAP1 PUSH1 0x1 ADD SWAP1 PUSH1 0x20 ADD DUP1 DUP4 GT PUSH2 0x355 JUMPI DUP3 SWAP1 SUB PUSH1 0x1F AND DUP3 ADD SWAP2 JUMPDEST POP POP POP POP POP DUP2 JUMP JUMPDEST PUSH0 DUP1 SLOAD SWAP1 PUSH2 0x100 EXP SWAP1 DIV PUSH20 0xFFFFFFFFFFFFFFFFFFFFFFFFFFFFFFFFFFFFFFFF AND PUSH20 0xFFFFFFFFFFFFFFFFFFFFFFFFFFFFFFFFFFFFFFFF AND CALLER PUSH20 0xFFFFFFFFFFFFFFFFFFFFFFFFFFFFFFFFFFFFFFFF AND EQ PUSH2 0x407 JUMPI PUSH1 0x40 MLOAD PUSH32 0x8C379A000000000000000000000000000000000000000000000000000000000 DUP2 MSTORE PUSH1 0x4 ADD PUSH2 0x3FE SWAP1 PUSH2 0xD20 JUMP JUMPDEST PUSH1 0x40 MLOAD DUP1 SWAP2 SUB SWAP1 REVERT JUMPDEST PUSH1 0x2 SLOAD TIMESTAMP GT PUSH2 0x44B JUMPI PUSH1 0x40 MLOAD PUSH32 0x8C379A000000000000000000000000000000000000000000000000000000000 DUP2 MSTORE PUSH1 0x4 ADD PUSH2 0x442 SWAP1 PUSH2 0xD88 JUMP JUMPDEST PUSH1 0x40 MLOAD DUP1 SWAP2 SUB SWAP1 REVERT JUMPDEST PUSH1 0x6 PUSH0 SWAP1 SLOAD SWAP1 PUSH2 0x100 EXP SWAP1 DIV PUSH1 0xFF AND ISZERO PUSH2 0x49A JUMPI PUSH1 0x40 MLOAD PUSH32 0x8C379A000000000000000000000000000000000000000000000000000000000 DUP2 MSTORE PUSH1 0x4 ADD PUSH2 0x491 SWAP1 PUSH2 0xDF0 JUMP JUMPDEST PUSH1 0x40 MLOAD DUP1 SWAP2 SUB SWAP1 REVERT JUMPDEST PUSH1 0x60 PUSH0 DUP1 JUMPDEST PUSH1 0x5 DUP1 SLOAD SWAP1 POP DUP2 LT ISZERO PUSH2 0x5DC JUMPI DUP2 PUSH1 0x4 PUSH1 0x5 DUP4 DUP2 SLOAD DUP2 LT PUSH2 0x4C3 JUMPI PUSH2 0x4C2 PUSH2 0xE0E JUMP JUMPDEST JUMPDEST SWAP1 PUSH0 MSTORE PUSH1 0x20 PUSH0 KECCAK256 ADD PUSH1 0x40 MLOAD PUSH2 0x4D8 SWAP2 SWAP1 PUSH2 0xED7 JUMP JUMPDEST SWAP1 DUP2 MSTORE PUSH1 0x20 ADD PUSH1 0x40 MLOAD DUP1 SWAP2 SUB SWAP1 KECCAK256 SLOAD GT ISZERO PUSH2 0x5CF JUMPI PUSH1 0x4 PUSH1 0x5 DUP3 DUP2 SLOAD DUP2 LT PUSH2 0x503 JUMPI PUSH2 0x502 PUSH2 0xE0E JUMP JUMPDEST JUMPDEST SWAP1 PUSH0 MSTORE PUSH1 0x20 PUSH0 KECCAK256 ADD PUSH1 0x40 MLOAD PUSH2 0x518 SWAP2 SWAP1 PUSH2 0xED7 JUMP JUMPDEST SWAP1 DUP2 MSTORE PUSH1 0x20 ADD PUSH1 0x40 MLOAD DUP1 SWAP2 SUB SWAP1 KECCAK256 SLOAD SWAP2 POP PUSH1 0x5 DUP2 DUP2 SLOAD DUP2 LT PUSH2 0x53D JUMPI PUSH2 0x53C PUSH2 0xE0E JUMP JUMPDEST JUMPDEST SWAP1 PUSH0 MSTORE PUSH1 0x20 PUSH0 KECCAK256 ADD DUP1 SLOAD PUSH2 0x550 SWAP1 PUSH2 0xCA6 JUMP JUMPDEST DUP1 PUSH1 0x1F ADD PUSH1 0x20 DUP1 SWAP2 DIV MUL PUSH1 0x20 ADD PUSH1 0x40 MLOAD SWAP1 DUP2 ADD PUSH1 0x40 MSTORE DUP1 SWAP3 SWAP2 SWAP1 DUP2 DUP2 MSTORE PUSH1 0x20 ADD DUP3 DUP1 SLOAD PUSH2 0x57C SWAP1 PUSH2 0xCA6 JUMP JUMPDEST DUP1 ISZERO PUSH2 0x5C7 JUMPI DUP1 PUSH1 0x1F LT PUSH2 0x59E JUMPI PUSH2 0x100 DUP1 DUP4 SLOAD DIV MUL DUP4 MSTORE SWAP2 PUSH1 0x20 ADD SWAP2 PUSH2 0x5C7 JUMP JUMPDEST DUP3 ADD SWAP2 SWAP1 PUSH0 MSTORE PUSH1 0x20 PUSH0 KECCAK256 SWAP1 JUMPDEST DUP2 SLOAD DUP2 MSTORE SWAP1 PUSH1 0x1 ADD SWAP1 PUSH1 0x20 ADD DUP1 DUP4 GT PUSH2 0x5AA JUMPI DUP3 SWAP1 SUB PUSH1 0x1F AND DUP3 ADD SWAP2 JUMPDEST POP POP POP POP POP SWAP3 POP JUMPDEST DUP1 DUP1 PUSH1 0x1 ADD SWAP2 POP POP PUSH2 0x49F JUMP JUMPDEST POP PUSH1 0x1 PUSH1 0x6 PUSH0 PUSH2 0x100 EXP DUP2 SLOAD DUP2 PUSH1 0xFF MUL NOT AND SWAP1 DUP4 ISZERO ISZERO MUL OR SWAP1 SSTORE POP PUSH32 0x3230E72EF07ADC105DE93AD791B887E1AFF8D7D710B98494AD2B0D8D25E4A56C DUP3 PUSH1 0x40 MLOAD PUSH2 0x626 SWAP2 SWAP1 PUSH2 0xABE JUMP JUMPDEST PUSH1 0x40 MLOAD DUP1 SWAP2 SUB SWAP1 LOG1 POP POP JUMP JUMPDEST PUSH1 0x2 SLOAD TIMESTAMP GT ISZERO PUSH2 0x677 JUMPI PUSH1 0x40 MLOAD PUSH32 0x8C379A000000000000000000000000000000000000000000000000000000000 DUP2 MSTORE PUSH1 0x4 ADD PUSH2 0x66E SWAP1 PUSH2 0xF37 JUMP JUMPDEST PUSH1 0x40 MLOAD DUP1 SWAP2 SUB SWAP1 REVERT JUMPDEST PUSH1 0x3 PUSH0 CALLER PUSH20 0xFFFFFFFFFFFFFFFFFFFFFFFFFFFFFFFFFFFFFFFF AND PUSH20 0xFFFFFFFFFFFFFFFFFFFFFFFFFFFFFFFFFFFFFFFF AND DUP2 MSTORE PUSH1 0x20 ADD SWAP1 DUP2 MSTORE PUSH1 0x20 ADD PUSH0 KECCAK256 PUSH0 SWAP1 SLOAD SWAP1 PUSH2 0x100 EXP SWAP1 DIV PUSH1 0xFF AND ISZERO PUSH2 0x701 JUMPI PUSH1 0x40 MLOAD PUSH32 0x8C379A000000000000000000000000000000000000000000000000000000000 DUP2 MSTORE PUSH1 0x4 ADD PUSH2 0x6F8 SWAP1 PUSH2 0xF9F JUMP JUMPDEST PUSH1 0x40 MLOAD DUP1 SWAP2 SUB SWAP1 REVERT JUMPDEST PUSH1 0x6 PUSH0 SWAP1 SLOAD SWAP1 PUSH2 0x100 EXP SWAP1 DIV PUSH1 0xFF AND ISZERO PUSH2 0x750 JUMPI PUSH1 0x40 MLOAD PUSH32 0x8C379A000000000000000000000000000000000000000000000000000000000 DUP2 MSTORE PUSH1 0x4 ADD PUSH2 0x747 SWAP1 PUSH2 0x1007 JUMP JUMPDEST PUSH1 0x40 MLOAD DUP1 SWAP2 SUB SWAP1 REVERT JUMPDEST PUSH0 DUP1 JUMPDEST PUSH1 0x5 DUP1 SLOAD SWAP1 POP DUP2 LT ISZERO PUSH2 0x7E4 JUMPI DUP3 PUSH1 0x40 MLOAD PUSH1 0x20 ADD PUSH2 0x771 SWAP2 SWAP1 PUSH2 0x1055 JUMP JUMPDEST PUSH1 0x40 MLOAD PUSH1 0x20 DUP2 DUP4 SUB SUB DUP2 MSTORE SWAP1 PUSH1 0x40 MSTORE DUP1 MLOAD SWAP1 PUSH1 0x20 ADD KECCAK256 PUSH1 0x5 DUP3 DUP2 SLOAD DUP2 LT PUSH2 0x79B JUMPI PUSH2 0x79A PUSH2 0xE0E JUMP JUMPDEST JUMPDEST SWAP1 PUSH0 MSTORE PUSH1 0x20 PUSH0 KECCAK256 ADD PUSH1 0x40 MLOAD PUSH1 0x20 ADD PUSH2 0x7B3 SWAP2 SWAP1 PUSH2 0xED7 JUMP JUMPDEST PUSH1 0x40 MLOAD PUSH1 0x20 DUP2 DUP4 SUB SUB DUP2 MSTORE SWAP1 PUSH1 0x40 MSTORE DUP1 MLOAD SWAP1 PUSH1 0x20 ADD KECCAK256 SUB PUSH2 0x7D7 JUMPI PUSH1 0x1 SWAP2 POP PUSH2 0x7E4 JUMP JUMPDEST DUP1 DUP1 PUSH1 0x1 ADD SWAP2 POP POP PUSH2 0x753 JUMP JUMPDEST POP DUP1 PUSH2 0x825 JUMPI PUSH1 0x40 MLOAD PUSH32 0x8C379A000000000000000000000000000000000000000000000000000000000 DUP2 MSTORE PUSH1 0x4 ADD PUSH2 0x81C SWAP1 PUSH2 0x10B5 JUMP JUMPDEST PUSH1 0x40 MLOAD DUP1 SWAP2 SUB SWAP1 REVERT JUMPDEST PUSH1 0x4 DUP3 PUSH1 0x40 MLOAD PUSH2 0x835 SWAP2 SWAP1 PUSH2 0x1055 JUMP JUMPDEST SWAP1 DUP2 MSTORE PUSH1 0x20 ADD PUSH1 0x40 MLOAD DUP1 SWAP2 SUB SWAP1 KECCAK256 PUSH0 DUP2 SLOAD DUP1 SWAP3 SWAP2 SWAP1 PUSH2 0x853 SWAP1 PUSH2 0x1100 JUMP JUMPDEST SWAP2 SWAP1 POP SSTORE POP PUSH1 0x1 PUSH1 0x3 PUSH0 CALLER PUSH20 0xFFFFFFFFFFFFFFFFFFFFFFFFFFFFFFFFFFFFFFFF AND PUSH20 0xFFFFFFFFFFFFFFFFFFFFFFFFFFFFFFFFFFFFFFFF AND DUP2 MSTORE PUSH1 0x20 ADD SWAP1 DUP2 MSTORE PUSH1 0x20 ADD PUSH0 KECCAK256 PUSH0 PUSH2 0x100 EXP DUP2 SLOAD DUP2 PUSH1 0xFF MUL NOT AND SWAP1 DUP4 ISZERO ISZERO MUL OR SWAP1 SSTORE POP CALLER PUSH20 0xFFFFFFFFFFFFFFFFFFFFFFFFFFFFFFFFFFFFFFFF AND PUSH32 0x866DC605853954FFA419910EB05D67F430EFEC2E7DB7CE135BF55565667A4AB4 DUP4 PUSH1 0x40 MLOAD PUSH2 0x8F3 SWAP2 SWAP1 PUSH2 0xABE JUMP JUMPDEST PUSH1 0x40 MLOAD DUP1 SWAP2 SUB SWAP1 LOG2 POP POP JUMP JUMPDEST PUSH0 DUP2 SWAP1 POP SWAP2 SWAP1 POP JUMP JUMPDEST PUSH2 0x911 DUP2 PUSH2 0x8FF JUMP JUMPDEST DUP3 MSTORE POP POP JUMP JUMPDEST PUSH0 PUSH1 0x20 DUP3 ADD SWAP1 POP PUSH2 0x92A PUSH0 DUP4 ADD DUP5 PUSH2 0x908 JUMP JUMPDEST SWAP3 SWAP2 POP POP JUMP JUMPDEST PUSH0 PUSH1 0x40 MLOAD SWAP1 POP SWAP1 JUMP JUMPDEST PUSH0 DUP1 REVERT JUMPDEST PUSH0 DUP1 REVERT JUMPDEST PUSH0 PUSH20 0xFFFFFFFFFFFFFFFFFFFFFFFFFFFFFFFFFFFFFFFF DUP3 AND SWAP1 POP SWAP2 SWAP1 POP JUMP JUMPDEST PUSH0 PUSH2 0x96A DUP3 PUSH2 0x941 JUMP JUMPDEST SWAP1 POP SWAP2 SWAP1 POP JUMP JUMPDEST PUSH2 0x97A DUP2 PUSH2 0x960 JUMP JUMPDEST DUP2 EQ PUSH2 0x984 JUMPI PUSH0 DUP1 REVERT JUMPDEST POP JUMP JUMPDEST PUSH0 DUP2 CALLDATALOAD SWAP1 POP PUSH2 0x995 DUP2 PUSH2 0x971 JUMP JUMPDEST SWAP3 SWAP2 POP POP JUMP JUMPDEST PUSH0 PUSH1 0x20 DUP3 DUP5 SUB SLT ISZERO PUSH2 0x9B0 JUMPI PUSH2 0x9AF PUSH2 0x939 JUMP JUMPDEST JUMPDEST PUSH0 PUSH2 0x9BD DUP5 DUP3 DUP6 ADD PUSH2 0x987 JUMP JUMPDEST SWAP2 POP POP SWAP3 SWAP2 POP POP JUMP JUMPDEST PUSH0 DUP2 ISZERO ISZERO SWAP1 POP SWAP2 SWAP1 POP JUMP JUMPDEST PUSH2 0x9DA DUP2 PUSH2 0x9C6 JUMP JUMPDEST DUP3 MSTORE POP POP JUMP JUMPDEST PUSH0 PUSH1 0x20 DUP3 ADD SWAP1 POP PUSH2 0x9F3 PUSH0 DUP4 ADD DUP5 PUSH2 0x9D1 JUMP JUMPDEST SWAP3 SWAP2 POP POP JUMP JUMPDEST PUSH2 0xA02 DUP2 PUSH2 0x8FF JUMP JUMPDEST DUP2 EQ PUSH2 0xA0C JUMPI PUSH0 DUP1 REVERT JUMPDEST POP JUMP JUMPDEST PUSH0 DUP2 CALLDATALOAD SWAP1 POP PUSH2 0xA1D DUP2 PUSH2 0x9F9 JUMP JUMPDEST SWAP3 SWAP2 POP POP JUMP JUMPDEST PUSH0 PUSH1 0x20 DUP3 DUP5 SUB SLT ISZERO PUSH2 0xA38 JUMPI PUSH2 0xA37 PUSH2 0x939 JUMP JUMPDEST JUMPDEST PUSH0 PUSH2 0xA45 DUP5 DUP3 DUP6 ADD PUSH2 0xA0F JUMP JUMPDEST SWAP2 POP POP SWAP3 SWAP2 POP POP JUMP JUMPDEST PUSH0 DUP2 MLOAD SWAP1 POP SWAP2 SWAP1 POP JUMP JUMPDEST PUSH0 DUP3 DUP3 MSTORE PUSH1 0x20 DUP3 ADD SWAP1 POP SWAP3 SWAP2 POP POP JUMP JUMPDEST DUP3 DUP2 DUP4 MCOPY PUSH0 DUP4 DUP4 ADD MSTORE POP POP POP JUMP JUMPDEST PUSH0 PUSH1 0x1F NOT PUSH1 0x1F DUP4 ADD AND SWAP1 POP SWAP2 SWAP1 POP JUMP JUMPDEST PUSH0 PUSH2 0xA90 DUP3 PUSH2 0xA4E JUMP JUMPDEST PUSH2 0xA9A DUP2 DUP6 PUSH2 0xA58 JUMP JUMPDEST SWAP4 POP PUSH2 0xAAA DUP2 DUP6 PUSH1 0x20 DUP7 ADD PUSH2 0xA68 JUMP JUMPDEST PUSH2 0xAB3 DUP2 PUSH2 0xA76 JUMP JUMPDEST DUP5 ADD SWAP2 POP POP SWAP3 SWAP2 POP POP JUMP JUMPDEST PUSH0 PUSH1 0x20 DUP3 ADD SWAP1 POP DUP2 DUP2 SUB PUSH0 DUP4 ADD MSTORE PUSH2 0xAD6 DUP2 DUP5 PUSH2 0xA86 JUMP JUMPDEST SWAP1 POP SWAP3 SWAP2 POP POP JUMP JUMPDEST PUSH2 0xAE7 DUP2 PUSH2 0x960 JUMP JUMPDEST DUP3 MSTORE POP POP JUMP JUMPDEST PUSH0 PUSH1 0x20 DUP3 ADD SWAP1 POP PUSH2 0xB00 PUSH0 DUP4 ADD DUP5 PUSH2 0xADE JUMP JUMPDEST SWAP3 SWAP2 POP POP JUMP JUMPDEST PUSH0 DUP1 REVERT JUMPDEST PUSH0 DUP1 REVERT JUMPDEST PUSH32 0x4E487B7100000000000000000000000000000000000000000000000000000000 PUSH0 MSTORE PUSH1 0x41 PUSH1 0x4 MSTORE PUSH1 0x24 PUSH0 REVERT JUMPDEST PUSH2 0xB44 DUP3 PUSH2 0xA76 JUMP JUMPDEST DUP2 ADD DUP2 DUP2 LT PUSH8 0xFFFFFFFFFFFFFFFF DUP3 GT OR ISZERO PUSH2 0xB63 JUMPI PUSH2 0xB62 PUSH2 0xB0E JUMP JUMPDEST JUMPDEST DUP1 PUSH1 0x40 MSTORE POP POP POP JUMP JUMPDEST PUSH0 PUSH2 0xB75 PUSH2 0x930 JUMP JUMPDEST SWAP1 POP PUSH2 0xB81 DUP3 DUP3 PUSH2 0xB3B JUMP JUMPDEST SWAP2 SWAP1 POP JUMP JUMPDEST PUSH0 PUSH8 0xFFFFFFFFFFFFFFFF DUP3 GT ISZERO PUSH2 0xBA0 JUMPI PUSH2 0xB9F PUSH2 0xB0E JUMP JUMPDEST JUMPDEST PUSH2 0xBA9 DUP3 PUSH2 0xA76 JUMP JUMPDEST SWAP1 POP PUSH1 0x20 DUP2 ADD SWAP1 POP SWAP2 SWAP1 POP JUMP JUMPDEST DUP3 DUP2 DUP4 CALLDATACOPY PUSH0 DUP4 DUP4 ADD MSTORE POP POP POP JUMP JUMPDEST PUSH0 PUSH2 0xBD6 PUSH2 0xBD1 DUP5 PUSH2 0xB86 JUMP JUMPDEST PUSH2 0xB6C JUMP JUMPDEST SWAP1 POP DUP3 DUP2 MSTORE PUSH1 0x20 DUP2 ADD DUP5 DUP5 DUP5 ADD GT ISZERO PUSH2 0xBF2 JUMPI PUSH2 0xBF1 PUSH2 0xB0A JUMP JUMPDEST JUMPDEST PUSH2 0xBFD DUP5 DUP3 DUP6 PUSH2 0xBB6 JUMP JUMPDEST POP SWAP4 SWAP3 POP POP POP JUMP JUMPDEST PUSH0 DUP3 PUSH1 0x1F DUP4 ADD SLT PUSH2 0xC19 JUMPI PUSH2 0xC18 PUSH2 0xB06 JUMP JUMPDEST JUMPDEST DUP2 CALLDATALOAD PUSH2 0xC29 DUP5 DUP3 PUSH1 0x20 DUP7 ADD PUSH2 0xBC4 JUMP JUMPDEST SWAP2 POP POP SWAP3 SWAP2 POP POP JUMP JUMPDEST PUSH0 PUSH1 0x20 DUP3 DUP5 SUB SLT ISZERO PUSH2 0xC47 JUMPI PUSH2 0xC46 PUSH2 0x939 JUMP JUMPDEST JUMPDEST PUSH0 DUP3 ADD CALLDATALOAD PUSH8 0xFFFFFFFFFFFFFFFF DUP2 GT ISZERO PUSH2 0xC64 JUMPI PUSH2 0xC63 PUSH2 0x93D JUMP JUMPDEST JUMPDEST PUSH2 0xC70 DUP5 DUP3 DUP6 ADD PUSH2 0xC05 JUMP JUMPDEST SWAP2 POP POP SWAP3 SWAP2 POP POP JUMP JUMPDEST PUSH32 0x4E487B7100000000000000000000000000000000000000000000000000000000 PUSH0 MSTORE PUSH1 0x22 PUSH1 0x4 MSTORE PUSH1 0x24 PUSH0 REVERT JUMPDEST PUSH0 PUSH1 0x2 DUP3 DIV SWAP1 POP PUSH1 0x1 DUP3 AND DUP1 PUSH2 0xCBD JUMPI PUSH1 0x7F DUP3 AND SWAP2 POP JUMPDEST PUSH1 0x20 DUP3 LT DUP2 SUB PUSH2 0xCD0 JUMPI PUSH2 0xCCF PUSH2 0xC79 JUMP JUMPDEST JUMPDEST POP SWAP2 SWAP1 POP JUMP JUMPDEST PUSH32 0x4F6E6C79206F776E65722063616E2063616C6C20746869732E00000000000000 PUSH0 DUP3 ADD MSTORE POP JUMP JUMPDEST PUSH0 PUSH2 0xD0A PUSH1 0x19 DUP4 PUSH2 0xA58 JUMP JUMPDEST SWAP2 POP PUSH2 0xD15 DUP3 PUSH2 0xCD6 JUMP JUMPDEST PUSH1 0x20 DUP3 ADD SWAP1 POP SWAP2 SWAP1 POP JUMP JUMPDEST PUSH0 PUSH1 0x20 DUP3 ADD SWAP1 POP DUP2 DUP2 SUB PUSH0 DUP4 ADD MSTORE PUSH2 0xD37 DUP2 PUSH2 0xCFE JUMP JUMPDEST SWAP1 POP SWAP2 SWAP1 POP JUMP JUMPDEST PUSH32 0x566F74696E6720706572696F64207374696C6C206163746976652E0000000000 PUSH0 DUP3 ADD MSTORE POP JUMP JUMPDEST PUSH0 PUSH2 0xD72 PUSH1 0x1B DUP4 PUSH2 0xA58 JUMP JUMPDEST SWAP2 POP PUSH2 0xD7D DUP3 PUSH2 0xD3E JUMP JUMPDEST PUSH1 0x20 DUP3 ADD SWAP1 POP SWAP2 SWAP1 POP JUMP JUMPDEST PUSH0 PUSH1 0x20 DUP3 ADD SWAP1 POP DUP2 DUP2 SUB PUSH0 DUP4 ADD MSTORE PUSH2 0xD9F DUP2 PUSH2 0xD66 JUMP JUMPDEST SWAP1 POP SWAP2 SWAP1 POP JUMP JUMPDEST PUSH32 0x566F74696E6720616C726561647920656E6465642E0000000000000000000000 PUSH0 DUP3 ADD MSTORE POP JUMP JUMPDEST PUSH0 PUSH2 0xDDA PUSH1 0x15 DUP4 PUSH2 0xA58 JUMP JUMPDEST SWAP2 POP PUSH2 0xDE5 DUP3 PUSH2 0xDA6 JUMP JUMPDEST PUSH1 0x20 DUP3 ADD SWAP1 POP SWAP2 SWAP1 POP JUMP JUMPDEST PUSH0 PUSH1 0x20 DUP3 ADD SWAP1 POP DUP2 DUP2 SUB PUSH0 DUP4 ADD MSTORE PUSH2 0xE07 DUP2 PUSH2 0xDCE JUMP JUMPDEST SWAP1 POP SWAP2 SWAP1 POP JUMP JUMPDEST PUSH32 0x4E487B7100000000000000000000000000000000000000000000000000000000 PUSH0 MSTORE PUSH1 0x32 PUSH1 0x4 MSTORE PUSH1 0x24 PUSH0 REVERT JUMPDEST PUSH0 DUP2 SWAP1 POP SWAP3 SWAP2 POP POP JUMP JUMPDEST PUSH0 DUP2 SWAP1 POP DUP2 PUSH0 MSTORE PUSH1 0x20 PUSH0 KECCAK256 SWAP1 POP SWAP2 SWAP1 POP JUMP JUMPDEST PUSH0 DUP2 SLOAD PUSH2 0xE63 DUP2 PUSH2 0xCA6 JUMP JUMPDEST PUSH2 0xE6D DUP2 DUP7 PUSH2 0xE3B JUMP JUMPDEST SWAP5 POP PUSH1 0x1 DUP3 AND PUSH0 DUP2 EQ PUSH2 0xE87 JUMPI PUSH1 0x1 DUP2 EQ PUSH2 0xE9C JUMPI PUSH2 0xECE JUMP JUMPDEST PUSH1 0xFF NOT DUP4 AND DUP7 MSTORE DUP2 ISZERO ISZERO DUP3 MUL DUP7 ADD SWAP4 POP PUSH2 0xECE JUMP JUMPDEST PUSH2 0xEA5 DUP6 PUSH2 0xE45 JUMP JUMPDEST PUSH0 JUMPDEST DUP4 DUP2 LT ISZERO PUSH2 0xEC6 JUMPI DUP2 SLOAD DUP2 DUP10 ADD MSTORE PUSH1 0x1 DUP3 ADD SWAP2 POP PUSH1 0x20 DUP2 ADD SWAP1 POP PUSH2 0xEA7 JUMP JUMPDEST DUP4 DUP9 ADD SWAP6 POP POP POP JUMPDEST POP POP POP SWAP3 SWAP2 POP POP JUMP JUMPDEST PUSH0 PUSH2 0xEE2 DUP3 DUP5 PUSH2 0xE57 JUMP JUMPDEST SWAP2 POP DUP2 SWAP1 POP SWAP3 SWAP2 POP POP JUMP JUMPDEST PUSH32 0x566F74696E6720706572696F64206973206F7665722E00000000000000000000 PUSH0 DUP3 ADD MSTORE POP JUMP JUMPDEST PUSH0 PUSH2 0xF21 PUSH1 0x16 DUP4 PUSH2 0xA58 JUMP JUMPDEST SWAP2 POP PUSH2 0xF2C DUP3 PUSH2 0xEED JUMP JUMPDEST PUSH1 0x20 DUP3 ADD SWAP1 POP SWAP2 SWAP1 POP JUMP JUMPDEST PUSH0 PUSH1 0x20 DUP3 ADD SWAP1 POP DUP2 DUP2 SUB PUSH0 DUP4 ADD MSTORE PUSH2 0xF4E DUP2 PUSH2 0xF15 JUMP JUMPDEST SWAP1 POP SWAP2 SWAP1 POP JUMP JUMPDEST PUSH32 0x596F75206861766520616C726561647920766F7465642E000000000000000000 PUSH0 DUP3 ADD MSTORE POP JUMP JUMPDEST PUSH0 PUSH2 0xF89 PUSH1 0x17 DUP4 PUSH2 0xA58 JUMP JUMPDEST SWAP2 POP PUSH2 0xF94 DUP3 PUSH2 0xF55 JUMP JUMPDEST PUSH1 0x20 DUP3 ADD SWAP1 POP SWAP2 SWAP1 POP JUMP JUMPDEST PUSH0 PUSH1 0x20 DUP3 ADD SWAP1 POP DUP2 DUP2 SUB PUSH0 DUP4 ADD MSTORE PUSH2 0xFB6 DUP2 PUSH2 0xF7D JUMP JUMPDEST SWAP1 POP SWAP2 SWAP1 POP JUMP JUMPDEST PUSH32 0x566F74696E672068617320656E6465642E000000000000000000000000000000 PUSH0 DUP3 ADD MSTORE POP JUMP JUMPDEST PUSH0 PUSH2 0xFF1 PUSH1 0x11 DUP4 PUSH2 0xA58 JUMP JUMPDEST SWAP2 POP PUSH2 0xFFC DUP3 PUSH2 0xFBD JUMP JUMPDEST PUSH1 0x20 DUP3 ADD SWAP1 POP SWAP2 SWAP1 POP JUMP JUMPDEST PUSH0 PUSH1 0x20 DUP3 ADD SWAP1 POP DUP2 DUP2 SUB PUSH0 DUP4 ADD MSTORE PUSH2 0x101E DUP2 PUSH2 0xFE5 JUMP JUMPDEST SWAP1 POP SWAP2 SWAP1 POP JUMP JUMPDEST PUSH0 PUSH2 0x102F DUP3 PUSH2 0xA4E JUMP JUMPDEST PUSH2 0x1039 DUP2 DUP6 PUSH2 0xE3B JUMP JUMPDEST SWAP4 POP PUSH2 0x1049 DUP2 DUP6 PUSH1 0x20 DUP7 ADD PUSH2 0xA68 JUMP JUMPDEST DUP1 DUP5 ADD SWAP2 POP POP SWAP3 SWAP2 POP POP JUMP JUMPDEST PUSH0 PUSH2 0x1060 DUP3 DUP5 PUSH2 0x1025 JUMP JUMPDEST SWAP2 POP DUP2 SWAP1 POP SWAP3 SWAP2 POP POP JUMP JUMPDEST PUSH32 0x496E76616C69642063616E6469646174652E0000000000000000000000000000 PUSH0 DUP3 ADD MSTORE POP JUMP JUMPDEST PUSH0 PUSH2 0x109F PUSH1 0x12 DUP4 PUSH2 0xA58 JUMP JUMPDEST SWAP2 POP PUSH2 0x10AA DUP3 PUSH2 0x106B JUMP JUMPDEST PUSH1 0x20 DUP3 ADD SWAP1 POP SWAP2 SWAP1 POP JUMP JUMPDEST PUSH0 PUSH1 0x20 DUP3 ADD SWAP1 POP DUP2 DUP2 SUB PUSH0 DUP4 ADD MSTORE PUSH2 0x10CC DUP2 PUSH2 0x1093 JUMP JUMPDEST SWAP1 POP SWAP2 SWAP1 POP JUMP JUMPDEST PUSH32 0x4E487B7100000000000000000000000000000000000000000000000000000000 PUSH0 MSTORE PUSH1 0x11 PUSH1 0x4 MSTORE PUSH1 0x24 PUSH0 REVERT JUMPDEST PUSH0 PUSH2 0x110A DUP3 PUSH2 0x8FF JUMP JUMPDEST SWAP2 POP PUSH32 0xFFFFFFFFFFFFFFFFFFFFFFFFFFFFFFFFFFFFFFFFFFFFFFFFFFFFFFFFFFFFFFFF DUP3 SUB PUSH2 0x113C JUMPI PUSH2 0x113B PUSH2 0x10D3 JUMP JUMPDEST JUMPDEST PUSH1 0x1 DUP3 ADD SWAP1 POP SWAP2 SWAP1 POP JUMP INVALID LOG2 PUSH5 0x6970667358 0x22 SLT KECCAK256 PUSH21 0x823B6F71BE9ECB236C0232631A3076A072E4891A5E DUP4 0xD1 SLT SWAP10 PUSH11 0x40824A4F4A64736F6C6343 STOP ADDMOD BYTE STOP CALLER "
				},
				"gasEstimates": {
					"creation": {
						"codeDepositCost": "895400",
						"executionCost": "infinite",
						"totalCost": "infinite"
					},
					"external": {
						"candidates(uint256)": "infinite",
						"endVoting()": "infinite",
						"hasVoted(address)": "2856",
						"owner()": "2505",
						"topic()": "infinite",
						"vote(string)": "infinite",
						"votes(string)": "infinite",
						"votingClosed()": "2511",
						"votingDeadline()": "2426"
					}
				},
				"methodIdentifiers": {
					"candidates(uint256)": "3477ee2e",
					"endVoting()": "c3403ddf",
					"hasVoted(address)": "09eef43e",
					"owner()": "8da5cb5b",
					"topic()": "bf63a577",
					"vote(string)": "fc36e15b",
					"votes(string)": "b99ef1fa",
					"votingClosed()": "2479ecb8",
					"votingDeadline()": "036ee850"
				}
			},
			"storageLayout": {
				"storage": [
					{
						"astId": 790,
						"contract": "grupal/test.sol:DecentralizedVoting",
						"label": "owner",
						"offset": 0,
						"slot": "0",
						"type": "t_address"
					},
					{
						"astId": 792,
						"contract": "grupal/test.sol:DecentralizedVoting",
						"label": "topic",
						"offset": 0,
						"slot": "1",
						"type": "t_string_storage"
					},
					{
						"astId": 794,
						"contract": "grupal/test.sol:DecentralizedVoting",
						"label": "votingDeadline",
						"offset": 0,
						"slot": "2",
						"type": "t_uint256"
					},
					{
						"astId": 798,
						"contract": "grupal/test.sol:DecentralizedVoting",
						"label": "hasVoted",
						"offset": 0,
						"slot": "3",
						"type": "t_mapping(t_address,t_bool)"
					},
					{
						"astId": 802,
						"contract": "grupal/test.sol:DecentralizedVoting",
						"label": "votes",
						"offset": 0,
						"slot": "4",
						"type": "t_mapping(t_string_memory_ptr,t_uint256)"
					},
					{
						"astId": 805,
						"contract": "grupal/test.sol:DecentralizedVoting",
						"label": "candidates",
						"offset": 0,
						"slot": "5",
						"type": "t_array(t_string_storage)dyn_storage"
					},
					{
						"astId": 807,
						"contract": "grupal/test.sol:DecentralizedVoting",
						"label": "votingClosed",
						"offset": 0,
						"slot": "6",
						"type": "t_bool"
					}
				],
				"types": {
					"t_address": {
						"encoding": "inplace",
						"label": "address",
						"numberOfBytes": "20"
					},
					"t_array(t_string_storage)dyn_storage": {
						"base": "t_string_storage",
						"encoding": "dynamic_array",
						"label": "string[]",
						"numberOfBytes": "32"
					},
					"t_bool": {
						"encoding": "inplace",
						"label": "bool",
						"numberOfBytes": "1"
					},
					"t_mapping(t_address,t_bool)": {
						"encoding": "mapping",
						"key": "t_address",
						"label": "mapping(address => bool)",
						"numberOfBytes": "32",
						"value": "t_bool"
					},
					"t_mapping(t_string_memory_ptr,t_uint256)": {
						"encoding": "mapping",
						"key": "t_string_memory_ptr",
						"label": "mapping(string => uint256)",
						"numberOfBytes": "32",
						"value": "t_uint256"
					},
					"t_string_memory_ptr": {
						"encoding": "bytes",
						"label": "string",
						"numberOfBytes": "32"
					},
					"t_string_storage": {
						"encoding": "bytes",
						"label": "string",
						"numberOfBytes": "32"
					},
					"t_uint256": {
						"encoding": "inplace",
						"label": "uint256",
						"numberOfBytes": "32"
					}
				}
			},
			"userdoc": {
				"kind": "user",
				"methods": {},
				"version": 1
			}
		}
	}
}